{"abi":[{"type":"function","name":"setWillVerify","inputs":[{"name":"_willVerify","type":"bool","internalType":"bool"}],"outputs":[],"stateMutability":"nonpayable"},{"type":"function","name":"verifyProof","inputs":[{"name":"","type":"bytes","internalType":"bytes"},{"name":"","type":"uint256","internalType":"uint256"}],"outputs":[{"name":"","type":"bool","internalType":"bool"}],"stateMutability":"view"},{"type":"function","name":"willVerify","inputs":[],"outputs":[{"name":"","type":"bool","internalType":"bool"}],"stateMutability":"view"}],"bytecode":{"object":"0x60806040525f805460ff1916600117905534801561001b575f80fd5b5061018a806100295f395ff3fe608060405234801561000f575f80fd5b506004361061003f575f3560e01c806310cb32ee1461004357806361c6ceef14610083578063f623db76146100b1575b5f80fd5b6100816100513660046100bd565b5f80547fffffffffffffffffffffffffffffffffffffffffffffffffffffffffffffff0016911515919091179055565b005b61009d6100913660046100e3565b5f5460ff169392505050565b604051901515815260200160405180910390f35b5f5461009d9060ff1681565b5f602082840312156100cd575f80fd5b813580151581146100dc575f80fd5b9392505050565b5f805f604084860312156100f5575f80fd5b833567ffffffffffffffff8082111561010c575f80fd5b818601915086601f83011261011f575f80fd5b81358181111561012d575f80fd5b87602082850101111561013e575f80fd5b602092830198909750959091013594935050505056fea2646970667358221220ba1bfa44982e36beacaf7428daa0724f8864d6dff1764361e130b051f6313e8964736f6c63430008140033","linkReferences":{}},"methodIdentifiers":{"setWillVerify(bool)":"10cb32ee","verifyProof(bytes,uint256)":"61c6ceef","willVerify()":"f623db76"},"id":17}