{"contracts/mocks/MockZKVerifier.sol":{"MockZKVerifier":{"abi":[{"inputs":[{"internalType":"bool","name":"_willVerify","type":"bool"}],"name":"setWillVerify","outputs":[],"stateMutability":"nonpayable","type":"function"},{"inputs":[{"internalType":"bytes32","name":"proof","type":"bytes32"}],"name":"verify","outputs":[{"internalType":"bool","name":"","type":"bool"}],"stateMutability":"view","type":"function"}],"evm":{"bytecode":{"linkReferences":{},"object":"608060405234801561001057600080fd5b5060f58061001f6000396000f3fe6080604052348015600f57600080fd5b506004361060325760003560e01c806310cb32ee14603757806375e36616146057575b600080fd5b605560423660046080565b6000805460ff1916911515919091179055565b005b606c606236600460a7565b5060005460ff1690565b604051901515815260200160405180910390f35b600060208284031215609157600080fd5b8135801515811460a057600080fd5b9392505050565b60006020828403121560b857600080fd5b503591905056fea264697066735822122090de6c2ee4475a830a11f90371b5e32197c5df209bd7d36f67332623029bf7a664736f6c63430008140033","opcodes":"PUSH1 0x80 PUSH1 0x40 MSTORE CALLVALUE DUP1 ISZERO PUSH2 0x10 JUMPI PUSH1 0x0 DUP1 REVERT JUMPDEST POP PUSH1 0xF5 DUP1 PUSH2 0x1F PUSH1 0x0 CODECOPY PUSH1 0x0 RETURN INVALID PUSH1 0x80 PUSH1 0x40 MSTORE CALLVALUE DUP1 ISZERO PUSH1 0xF JUMPI PUSH1 0x0 DUP1 REVERT JUMPDEST POP PUSH1 0x4 CALLDATASIZE LT PUSH1 0x32 JUMPI PUSH1 0x0 CALLDATALOAD PUSH1 0xE0 SHR DUP1 PUSH4 0x10CB32EE EQ PUSH1 0x37 JUMPI DUP1 PUSH4 0x75E36616 EQ PUSH1 0x57 JUMPI JUMPDEST PUSH1 0x0 DUP1 REVERT JUMPDEST PUSH1 0x55 PUSH1 0x42 CALLDATASIZE PUSH1 0x4 PUSH1 0x80 JUMP JUMPDEST PUSH1 0x0 DUP1 SLOAD PUSH1 0xFF NOT AND SWAP2 ISZERO ISZERO SWAP2 SWAP1 SWAP2 OR SWAP1 SSTORE JUMP JUMPDEST STOP JUMPDEST PUSH1 0x6C PUSH1 0x62 CALLDATASIZE PUSH1 0x4 PUSH1 0xA7 JUMP JUMPDEST POP PUSH1 0x0 SLOAD PUSH1 0xFF AND SWAP1 JUMP JUMPDEST PUSH1 0x40 MLOAD SWAP1 ISZERO ISZERO DUP2 MSTORE PUSH1 0x20 ADD PUSH1 0x40 MLOAD DUP1 SWAP2 SUB SWAP1 RETURN JUMPDEST PUSH1 0x0 PUSH1 0x20 DUP3 DUP5 SUB SLT ISZERO PUSH1 0x91 JUMPI PUSH1 0x0 DUP1 REVERT JUMPDEST DUP2 CALLDATALOAD DUP1 ISZERO ISZERO DUP2 EQ PUSH1 0xA0 JUMPI PUSH1 0x0 DUP1 REVERT JUMPDEST SWAP4 SWAP3 POP POP POP JUMP JUMPDEST PUSH1 0x0 PUSH1 0x20 DUP3 DUP5 SUB SLT ISZERO PUSH1 0xB8 JUMPI PUSH1 0x0 DUP1 REVERT JUMPDEST POP CALLDATALOAD SWAP2 SWAP1 POP JUMP INVALID LOG2 PUSH5 0x6970667358 0x22 SLT KECCAK256 SWAP1 0xDE PUSH13 0x2EE4475A830A11F90371B5E321 SWAP8 0xC5 0xDF KECCAK256 SWAP12 0xD7 0xD3 PUSH16 0x67332623029BF7A664736F6C63430008 EQ STOP CALLER "},"methodIdentifiers":{"setWillVerify(bool)":"10cb32ee","verify(bytes32)":"75e36616"}}}}}