{"contracts/mocks/MockSilo.sol":{"MockSilo":{"abi":[{"inputs":[{"internalType":"address","name":"user","type":"address"}],"name":"getStakingBoost","outputs":[{"internalType":"uint256","name":"","type":"uint256"}],"stateMutability":"view","type":"function"},{"inputs":[{"internalType":"address","name":"user","type":"address"}],"name":"getStakingInfo","outputs":[{"internalType":"uint256","name":"","type":"uint256"},{"internalType":"uint256","name":"","type":"uint256"}],"stateMutability":"view","type":"function"},{"inputs":[{"internalType":"address","name":"user","type":"address"},{"internalType":"uint256","name":"boost","type":"uint256"}],"name":"setStakingBoost","outputs":[],"stateMutability":"nonpayable","type":"function"},{"inputs":[{"internalType":"address","name":"","type":"address"}],"name":"stakedAmount","outputs":[{"internalType":"uint256","name":"","type":"uint256"}],"stateMutability":"view","type":"function"},{"inputs":[{"internalType":"address","name":"","type":"address"}],"name":"stakingBoost","outputs":[{"internalType":"uint256","name":"","type":"uint256"}],"stateMutability":"view","type":"function"},{"inputs":[{"internalType":"address","name":"user","type":"address"},{"internalType":"uint256","name":"amount","type":"uint256"},{"internalType":"uint256","name":"boost","type":"uint256"}],"name":"updateStakingInfo","outputs":[],"stateMutability":"nonpayable","type":"function"}],"evm":{"bytecode":{"linkReferences":{},"object":"608060405234801561001057600080fd5b5061028b806100206000396000f3fe608060405234801561001057600080fd5b50600436106100625760003560e01c8063115b45d2146100675780634edaba6b1461008d578063866f604d146100c3578063aa4704f3146100ed578063f93b4d4514610136578063f993185514610156575b600080fd5b61007a6100753660046101d6565b610176565b6040519081526020015b60405180910390f35b6100c161009b3660046101f8565b6001600160a01b0390921660009081526020818152604080832093909355600190522055565b005b6100c16100d136600461022b565b6001600160a01b03909116600090815260016020526040902055565b6101216100fb3660046101d6565b6001600160a01b0316600090815260208181526040808320546001909252909120549091565b60408051928352602083019190915201610084565b61007a6101443660046101d6565b60016020526000908152604090205481565b61007a6101643660046101d6565b60006020819052908152604090205481565b6001600160a01b03811660009081526001602052604081205461019a5760646101b4565b6001600160a01b0382166000908152600160205260409020545b92915050565b80356001600160a01b03811681146101d157600080fd5b919050565b6000602082840312156101e857600080fd5b6101f1826101ba565b9392505050565b60008060006060848603121561020d57600080fd5b610216846101ba565b95602085013595506040909401359392505050565b6000806040838503121561023e57600080fd5b610247836101ba565b94602093909301359350505056fea2646970667358221220c3dd8adb2baac5f0637856827eb00f58ef7603ea58e1020fa0cf2d5da522c16d64736f6c63430008140033","opcodes":"PUSH1 0x80 PUSH1 0x40 MSTORE CALLVALUE DUP1 ISZERO PUSH2 0x10 JUMPI PUSH1 0x0 DUP1 REVERT JUMPDEST POP PUSH2 0x28B DUP1 PUSH2 0x20 PUSH1 0x0 CODECOPY PUSH1 0x0 RETURN INVALID PUSH1 0x80 PUSH1 0x40 MSTORE CALLVALUE DUP1 ISZERO PUSH2 0x10 JUMPI PUSH1 0x0 DUP1 REVERT JUMPDEST POP PUSH1 0x4 CALLDATASIZE LT PUSH2 0x62 JUMPI PUSH1 0x0 CALLDATALOAD PUSH1 0xE0 SHR DUP1 PUSH4 0x115B45D2 EQ PUSH2 0x67 JUMPI DUP1 PUSH4 0x4EDABA6B EQ PUSH2 0x8D JUMPI DUP1 PUSH4 0x866F604D EQ PUSH2 0xC3 JUMPI DUP1 PUSH4 0xAA4704F3 EQ PUSH2 0xED JUMPI DUP1 PUSH4 0xF93B4D45 EQ PUSH2 0x136 JUMPI DUP1 PUSH4 0xF9931855 EQ PUSH2 0x156 JUMPI JUMPDEST PUSH1 0x0 DUP1 REVERT JUMPDEST PUSH2 0x7A PUSH2 0x75 CALLDATASIZE PUSH1 0x4 PUSH2 0x1D6 JUMP JUMPDEST PUSH2 0x176 JUMP JUMPDEST PUSH1 0x40 MLOAD SWAP1 DUP2 MSTORE PUSH1 0x20 ADD JUMPDEST PUSH1 0x40 MLOAD DUP1 SWAP2 SUB SWAP1 RETURN JUMPDEST PUSH2 0xC1 PUSH2 0x9B CALLDATASIZE PUSH1 0x4 PUSH2 0x1F8 JUMP JUMPDEST PUSH1 0x1 PUSH1 0x1 PUSH1 0xA0 SHL SUB SWAP1 SWAP3 AND PUSH1 0x0 SWAP1 DUP2 MSTORE PUSH1 0x20 DUP2 DUP2 MSTORE PUSH1 0x40 DUP1 DUP4 KECCAK256 SWAP4 SWAP1 SWAP4 SSTORE PUSH1 0x1 SWAP1 MSTORE KECCAK256 SSTORE JUMP JUMPDEST STOP JUMPDEST PUSH2 0xC1 PUSH2 0xD1 CALLDATASIZE PUSH1 0x4 PUSH2 0x22B JUMP JUMPDEST PUSH1 0x1 PUSH1 0x1 PUSH1 0xA0 SHL SUB SWAP1 SWAP2 AND PUSH1 0x0 SWAP1 DUP2 MSTORE PUSH1 0x1 PUSH1 0x20 MSTORE PUSH1 0x40 SWAP1 KECCAK256 SSTORE JUMP JUMPDEST PUSH2 0x121 PUSH2 0xFB CALLDATASIZE PUSH1 0x4 PUSH2 0x1D6 JUMP JUMPDEST PUSH1 0x1 PUSH1 0x1 PUSH1 0xA0 SHL SUB AND PUSH1 0x0 SWAP1 DUP2 MSTORE PUSH1 0x20 DUP2 DUP2 MSTORE PUSH1 0x40 DUP1 DUP4 KECCAK256 SLOAD PUSH1 0x1 SWAP1 SWAP3 MSTORE SWAP1 SWAP2 KECCAK256 SLOAD SWAP1 SWAP2 JUMP JUMPDEST PUSH1 0x40 DUP1 MLOAD SWAP3 DUP4 MSTORE PUSH1 0x20 DUP4 ADD SWAP2 SWAP1 SWAP2 MSTORE ADD PUSH2 0x84 JUMP JUMPDEST PUSH2 0x7A PUSH2 0x144 CALLDATASIZE PUSH1 0x4 PUSH2 0x1D6 JUMP JUMPDEST PUSH1 0x1 PUSH1 0x20 MSTORE PUSH1 0x0 SWAP1 DUP2 MSTORE PUSH1 0x40 SWAP1 KECCAK256 SLOAD DUP2 JUMP JUMPDEST PUSH2 0x7A PUSH2 0x164 CALLDATASIZE PUSH1 0x4 PUSH2 0x1D6 JUMP JUMPDEST PUSH1 0x0 PUSH1 0x20 DUP2 SWAP1 MSTORE SWAP1 DUP2 MSTORE PUSH1 0x40 SWAP1 KECCAK256 SLOAD DUP2 JUMP JUMPDEST PUSH1 0x1 PUSH1 0x1 PUSH1 0xA0 SHL SUB DUP2 AND PUSH1 0x0 SWAP1 DUP2 MSTORE PUSH1 0x1 PUSH1 0x20 MSTORE PUSH1 0x40 DUP2 KECCAK256 SLOAD PUSH2 0x19A JUMPI PUSH1 0x64 PUSH2 0x1B4 JUMP JUMPDEST PUSH1 0x1 PUSH1 0x1 PUSH1 0xA0 SHL SUB DUP3 AND PUSH1 0x0 SWAP1 DUP2 MSTORE PUSH1 0x1 PUSH1 0x20 MSTORE PUSH1 0x40 SWAP1 KECCAK256 SLOAD JUMPDEST SWAP3 SWAP2 POP POP JUMP JUMPDEST DUP1 CALLDATALOAD PUSH1 0x1 PUSH1 0x1 PUSH1 0xA0 SHL SUB DUP2 AND DUP2 EQ PUSH2 0x1D1 JUMPI PUSH1 0x0 DUP1 REVERT JUMPDEST SWAP2 SWAP1 POP JUMP JUMPDEST PUSH1 0x0 PUSH1 0x20 DUP3 DUP5 SUB SLT ISZERO PUSH2 0x1E8 JUMPI PUSH1 0x0 DUP1 REVERT JUMPDEST PUSH2 0x1F1 DUP3 PUSH2 0x1BA JUMP JUMPDEST SWAP4 SWAP3 POP POP POP JUMP JUMPDEST PUSH1 0x0 DUP1 PUSH1 0x0 PUSH1 0x60 DUP5 DUP7 SUB SLT ISZERO PUSH2 0x20D JUMPI PUSH1 0x0 DUP1 REVERT JUMPDEST PUSH2 0x216 DUP5 PUSH2 0x1BA JUMP JUMPDEST SWAP6 PUSH1 0x20 DUP6 ADD CALLDATALOAD SWAP6 POP PUSH1 0x40 SWAP1 SWAP5 ADD CALLDATALOAD SWAP4 SWAP3 POP POP POP JUMP JUMPDEST PUSH1 0x0 DUP1 PUSH1 0x40 DUP4 DUP6 SUB SLT ISZERO PUSH2 0x23E JUMPI PUSH1 0x0 DUP1 REVERT JUMPDEST PUSH2 0x247 DUP4 PUSH2 0x1BA JUMP JUMPDEST SWAP5 PUSH1 0x20 SWAP4 SWAP1 SWAP4 ADD CALLDATALOAD SWAP4 POP POP POP JUMP INVALID LOG2 PUSH5 0x6970667358 0x22 SLT KECCAK256 0xC3 0xDD DUP11 0xDB 0x2B 0xAA 0xC5 CREATE PUSH4 0x7856827E 0xB0 0xF PC 0xEF PUSH23 0x3EA58E1020FA0CF2D5DA522C16D64736F6C6343000814 STOP CALLER "},"methodIdentifiers":{"getStakingBoost(address)":"115b45d2","getStakingInfo(address)":"aa4704f3","setStakingBoost(address,uint256)":"866f604d","stakedAmount(address)":"f9931855","stakingBoost(address)":"f93b4d45","updateStakingInfo(address,uint256,uint256)":"4edaba6b"}}}}}