{"contracts/Silo.sol":{"Silo":{"abi":[{"inputs":[{"internalType":"uint256","name":"amount","type":"uint256"}],"name":"boostReward","outputs":[{"internalType":"uint256","name":"","type":"uint256"}],"stateMutability":"pure","type":"function"}],"evm":{"bytecode":{"linkReferences":{},"object":"6080604052348015600f57600080fd5b50609b8061001e6000396000f3fe6080604052348015600f57600080fd5b506004361060285760003560e01c80634195fbf314602d575b600080fd5b603b6038366004604d565b90565b60405190815260200160405180910390f35b600060208284031215605e57600080fd5b503591905056fea2646970667358221220744cf6aa0f901f93fab1a96a2cb1e409035e9297db0ac0e519c9ab4268ada67664736f6c63430008140033","opcodes":"PUSH1 0x80 PUSH1 0x40 MSTORE CALLVALUE DUP1 ISZERO PUSH1 0xF JUMPI PUSH1 0x0 DUP1 REVERT JUMPDEST POP PUSH1 0x9B DUP1 PUSH2 0x1E PUSH1 0x0 CODECOPY PUSH1 0x0 RETURN INVALID PUSH1 0x80 PUSH1 0x40 MSTORE CALLVALUE DUP1 ISZERO PUSH1 0xF JUMPI PUSH1 0x0 DUP1 REVERT JUMPDEST POP PUSH1 0x4 CALLDATASIZE LT PUSH1 0x28 JUMPI PUSH1 0x0 CALLDATALOAD PUSH1 0xE0 SHR DUP1 PUSH4 0x4195FBF3 EQ PUSH1 0x2D JUMPI JUMPDEST PUSH1 0x0 DUP1 REVERT JUMPDEST PUSH1 0x3B PUSH1 0x38 CALLDATASIZE PUSH1 0x4 PUSH1 0x4D JUMP JUMPDEST SWAP1 JUMP JUMPDEST PUSH1 0x40 MLOAD SWAP1 DUP2 MSTORE PUSH1 0x20 ADD PUSH1 0x40 MLOAD DUP1 SWAP2 SUB SWAP1 RETURN JUMPDEST PUSH1 0x0 PUSH1 0x20 DUP3 DUP5 SUB SLT ISZERO PUSH1 0x5E JUMPI PUSH1 0x0 DUP1 REVERT JUMPDEST POP CALLDATALOAD SWAP2 SWAP1 POP JUMP INVALID LOG2 PUSH5 0x6970667358 0x22 SLT KECCAK256 PUSH21 0x4CF6AA0F901F93FAB1A96A2CB1E409035E9297DB0A 0xC0 0xE5 NOT 0xC9 0xAB TIMESTAMP PUSH9 0xADA67664736F6C6343 STOP ADDMOD EQ STOP CALLER "},"methodIdentifiers":{"boostReward(uint256)":"4195fbf3"}}}}}