{"contracts/mocks/MockZKVerifier.sol":{"MockZKVerifier":{"abi":[{"inputs":[{"internalType":"bool","name":"_willVerify","type":"bool"}],"name":"setWillVerify","outputs":[],"stateMutability":"nonpayable","type":"function"},{"inputs":[{"internalType":"bytes","name":"","type":"bytes"},{"internalType":"uint256","name":"","type":"uint256"}],"name":"verifyProof","outputs":[{"internalType":"bool","name":"","type":"bool"}],"stateMutability":"view","type":"function"},{"inputs":[],"name":"willVerify","outputs":[{"internalType":"bool","name":"","type":"bool"}],"stateMutability":"view","type":"function"}],"evm":{"bytecode":{"linkReferences":{},"object":"60806040526000805460ff1916600117905534801561001d57600080fd5b5061017c8061002d6000396000f3fe608060405234801561001057600080fd5b50600436106100415760003560e01c806310cb32ee1461004657806361c6ceef14610069578063f623db7614610098575b600080fd5b6100676100543660046100a5565b6000805460ff1916911515919091179055565b005b6100846100773660046100ce565b60005460ff169392505050565b604051901515815260200160405180910390f35b6000546100849060ff1681565b6000602082840312156100b757600080fd5b813580151581146100c757600080fd5b9392505050565b6000806000604084860312156100e357600080fd5b833567ffffffffffffffff808211156100fb57600080fd5b818601915086601f83011261010f57600080fd5b81358181111561011e57600080fd5b87602082850101111561013057600080fd5b602092830198909750959091013594935050505056fea2646970667358221220f0297f2313e36b4d6694aadb6d65342a9c71398dbbc679b4846ae3f6fde0865b64736f6c63430008140033","opcodes":"PUSH1 0x80 PUSH1 0x40 MSTORE PUSH1 0x0 DUP1 SLOAD PUSH1 0xFF NOT AND PUSH1 0x1 OR SWAP1 SSTORE CALLVALUE DUP1 ISZERO PUSH2 0x1D JUMPI PUSH1 0x0 DUP1 REVERT JUMPDEST POP PUSH2 0x17C DUP1 PUSH2 0x2D PUSH1 0x0 CODECOPY PUSH1 0x0 RETURN INVALID PUSH1 0x80 PUSH1 0x40 MSTORE CALLVALUE DUP1 ISZERO PUSH2 0x10 JUMPI PUSH1 0x0 DUP1 REVERT JUMPDEST POP PUSH1 0x4 CALLDATASIZE LT PUSH2 0x41 JUMPI PUSH1 0x0 CALLDATALOAD PUSH1 0xE0 SHR DUP1 PUSH4 0x10CB32EE EQ PUSH2 0x46 JUMPI DUP1 PUSH4 0x61C6CEEF EQ PUSH2 0x69 JUMPI DUP1 PUSH4 0xF623DB76 EQ PUSH2 0x98 JUMPI JUMPDEST PUSH1 0x0 DUP1 REVERT JUMPDEST PUSH2 0x67 PUSH2 0x54 CALLDATASIZE PUSH1 0x4 PUSH2 0xA5 JUMP JUMPDEST PUSH1 0x0 DUP1 SLOAD PUSH1 0xFF NOT AND SWAP2 ISZERO ISZERO SWAP2 SWAP1 SWAP2 OR SWAP1 SSTORE JUMP JUMPDEST STOP JUMPDEST PUSH2 0x84 PUSH2 0x77 CALLDATASIZE PUSH1 0x4 PUSH2 0xCE JUMP JUMPDEST PUSH1 0x0 SLOAD PUSH1 0xFF AND SWAP4 SWAP3 POP POP POP JUMP JUMPDEST PUSH1 0x40 MLOAD SWAP1 ISZERO ISZERO DUP2 MSTORE PUSH1 0x20 ADD PUSH1 0x40 MLOAD DUP1 SWAP2 SUB SWAP1 RETURN JUMPDEST PUSH1 0x0 SLOAD PUSH2 0x84 SWAP1 PUSH1 0xFF AND DUP2 JUMP JUMPDEST PUSH1 0x0 PUSH1 0x20 DUP3 DUP5 SUB SLT ISZERO PUSH2 0xB7 JUMPI PUSH1 0x0 DUP1 REVERT JUMPDEST DUP2 CALLDATALOAD DUP1 ISZERO ISZERO DUP2 EQ PUSH2 0xC7 JUMPI PUSH1 0x0 DUP1 REVERT JUMPDEST SWAP4 SWAP3 POP POP POP JUMP JUMPDEST PUSH1 0x0 DUP1 PUSH1 0x0 PUSH1 0x40 DUP5 DUP7 SUB SLT ISZERO PUSH2 0xE3 JUMPI PUSH1 0x0 DUP1 REVERT JUMPDEST DUP4 CALLDATALOAD PUSH8 0xFFFFFFFFFFFFFFFF DUP1 DUP3 GT ISZERO PUSH2 0xFB JUMPI PUSH1 0x0 DUP1 REVERT JUMPDEST DUP2 DUP7 ADD SWAP2 POP DUP7 PUSH1 0x1F DUP4 ADD SLT PUSH2 0x10F JUMPI PUSH1 0x0 DUP1 REVERT JUMPDEST DUP2 CALLDATALOAD DUP2 DUP2 GT ISZERO PUSH2 0x11E JUMPI PUSH1 0x0 DUP1 REVERT JUMPDEST DUP8 PUSH1 0x20 DUP3 DUP6 ADD ADD GT ISZERO PUSH2 0x130 JUMPI PUSH1 0x0 DUP1 REVERT JUMPDEST PUSH1 0x20 SWAP3 DUP4 ADD SWAP9 SWAP1 SWAP8 POP SWAP6 SWAP1 SWAP2 ADD CALLDATALOAD SWAP5 SWAP4 POP POP POP POP JUMP INVALID LOG2 PUSH5 0x6970667358 0x22 SLT KECCAK256 CREATE 0x29 PUSH32 0x2313E36B4D6694AADB6D65342A9C71398DBBC679B4846AE3F6FDE0865B64736F PUSH13 0x63430008140033000000000000 "},"methodIdentifiers":{"setWillVerify(bool)":"10cb32ee","verifyProof(bytes,uint256)":"61c6ceef","willVerify()":"f623db76"}}}}}