{"contracts/mocks/MockRewards.sol":{"MockRewards":{"abi":[{"anonymous":false,"inputs":[{"indexed":false,"internalType":"address","name":"developer","type":"address"},{"indexed":false,"internalType":"address","name":"dataProvider","type":"address"},{"indexed":false,"internalType":"uint256","name":"baseReward","type":"uint256"}],"name":"RewardsDistributed","type":"event"},{"inputs":[{"internalType":"address","name":"developer","type":"address"},{"internalType":"address","name":"dataProvider","type":"address"},{"internalType":"uint256","name":"baseReward","type":"uint256"}],"name":"distributeRewards","outputs":[],"stateMutability":"nonpayable","type":"function"}],"evm":{"bytecode":{"linkReferences":{},"object":"608060405234801561001057600080fd5b50610116806100206000396000f3fe6080604052348015600f57600080fd5b506004361060285760003560e01c8063a70631a014602d575b600080fd5b603c603836600460a9565b603e565b005b604080516001600160a01b038086168252841660208201529081018290527f92d8e67e11e35152e7b525077fc4cf66393423d128ce3b803453b22533c576419060600160405180910390a1505050565b80356001600160a01b038116811460a457600080fd5b919050565b60008060006060848603121560bd57600080fd5b60c484608e565b925060d060208501608e565b915060408401359050925092509256fea264697066735822122059521c5cc7541bdacbb1b78094ccd334ac0de1703a3aba2880fcff575922d90664736f6c63430008140033","opcodes":"PUSH1 0x80 PUSH1 0x40 MSTORE CALLVALUE DUP1 ISZERO PUSH2 0x10 JUMPI PUSH1 0x0 DUP1 REVERT JUMPDEST POP PUSH2 0x116 DUP1 PUSH2 0x20 PUSH1 0x0 CODECOPY PUSH1 0x0 RETURN INVALID PUSH1 0x80 PUSH1 0x40 MSTORE CALLVALUE DUP1 ISZERO PUSH1 0xF JUMPI PUSH1 0x0 DUP1 REVERT JUMPDEST POP PUSH1 0x4 CALLDATASIZE LT PUSH1 0x28 JUMPI PUSH1 0x0 CALLDATALOAD PUSH1 0xE0 SHR DUP1 PUSH4 0xA70631A0 EQ PUSH1 0x2D JUMPI JUMPDEST PUSH1 0x0 DUP1 REVERT JUMPDEST PUSH1 0x3C PUSH1 0x38 CALLDATASIZE PUSH1 0x4 PUSH1 0xA9 JUMP JUMPDEST PUSH1 0x3E JUMP JUMPDEST STOP JUMPDEST PUSH1 0x40 DUP1 MLOAD PUSH1 0x1 PUSH1 0x1 PUSH1 0xA0 SHL SUB DUP1 DUP7 AND DUP3 MSTORE DUP5 AND PUSH1 0x20 DUP3 ADD MSTORE SWAP1 DUP2 ADD DUP3 SWAP1 MSTORE PUSH32 0x92D8E67E11E35152E7B525077FC4CF66393423D128CE3B803453B22533C57641 SWAP1 PUSH1 0x60 ADD PUSH1 0x40 MLOAD DUP1 SWAP2 SUB SWAP1 LOG1 POP POP POP JUMP JUMPDEST DUP1 CALLDATALOAD PUSH1 0x1 PUSH1 0x1 PUSH1 0xA0 SHL SUB DUP2 AND DUP2 EQ PUSH1 0xA4 JUMPI PUSH1 0x0 DUP1 REVERT JUMPDEST SWAP2 SWAP1 POP JUMP JUMPDEST PUSH1 0x0 DUP1 PUSH1 0x0 PUSH1 0x60 DUP5 DUP7 SUB SLT ISZERO PUSH1 0xBD JUMPI PUSH1 0x0 DUP1 REVERT JUMPDEST PUSH1 0xC4 DUP5 PUSH1 0x8E JUMP JUMPDEST SWAP3 POP PUSH1 0xD0 PUSH1 0x20 DUP6 ADD PUSH1 0x8E JUMP JUMPDEST SWAP2 POP PUSH1 0x40 DUP5 ADD CALLDATALOAD SWAP1 POP SWAP3 POP SWAP3 POP SWAP3 JUMP INVALID LOG2 PUSH5 0x6970667358 0x22 SLT KECCAK256 MSIZE MSTORE SHR 0x5C 0xC7 SLOAD SHL 0xDA 0xCB 0xB1 0xB7 DUP1 SWAP5 0xCC 0xD3 CALLVALUE 0xAC 0xD 0xE1 PUSH17 0x3A3ABA2880FCFF575922D90664736F6C63 NUMBER STOP ADDMOD EQ STOP CALLER "},"methodIdentifiers":{"distributeRewards(address,address,uint256)":"a70631a0"}}}}}