{"contracts/mocks/MockSiloConfig.sol":{"MockSiloConfig":{"abi":[{"inputs":[{"internalType":"address","name":"user","type":"address"}],"name":"getYieldRate","outputs":[{"internalType":"uint256","name":"","type":"uint256"}],"stateMutability":"view","type":"function"},{"inputs":[{"internalType":"address","name":"user","type":"address"},{"internalType":"uint256","name":"newYield","type":"uint256"}],"name":"updateYieldRate","outputs":[],"stateMutability":"nonpayable","type":"function"}],"evm":{"bytecode":{"linkReferences":{},"object":"608060405234801561001057600080fd5b5061012f806100206000396000f3fe6080604052348015600f57600080fd5b506004361060325760003560e01c806333900766146037578063f37a55e414606f575b600080fd5b605d604236600460b3565b6001600160a01b031660009081526020819052604090205490565b60405190815260200160405180910390f35b6096607a36600460d2565b6001600160a01b03909116600090815260208190526040902055565b005b80356001600160a01b038116811460ae57600080fd5b919050565b60006020828403121560c457600080fd5b60cb826098565b9392505050565b6000806040838503121560e457600080fd5b60eb836098565b94602093909301359350505056fea264697066735822122059f732fcbb0d6a4e0c874d973a9fae32a1fb98b26b09b68935a0043f36932c0064736f6c63430008140033","opcodes":"PUSH1 0x80 PUSH1 0x40 MSTORE CALLVALUE DUP1 ISZERO PUSH2 0x10 JUMPI PUSH1 0x0 DUP1 REVERT JUMPDEST POP PUSH2 0x12F DUP1 PUSH2 0x20 PUSH1 0x0 CODECOPY PUSH1 0x0 RETURN INVALID PUSH1 0x80 PUSH1 0x40 MSTORE CALLVALUE DUP1 ISZERO PUSH1 0xF JUMPI PUSH1 0x0 DUP1 REVERT JUMPDEST POP PUSH1 0x4 CALLDATASIZE LT PUSH1 0x32 JUMPI PUSH1 0x0 CALLDATALOAD PUSH1 0xE0 SHR DUP1 PUSH4 0x33900766 EQ PUSH1 0x37 JUMPI DUP1 PUSH4 0xF37A55E4 EQ PUSH1 0x6F JUMPI JUMPDEST PUSH1 0x0 DUP1 REVERT JUMPDEST PUSH1 0x5D PUSH1 0x42 CALLDATASIZE PUSH1 0x4 PUSH1 0xB3 JUMP JUMPDEST PUSH1 0x1 PUSH1 0x1 PUSH1 0xA0 SHL SUB AND PUSH1 0x0 SWAP1 DUP2 MSTORE PUSH1 0x20 DUP2 SWAP1 MSTORE PUSH1 0x40 SWAP1 KECCAK256 SLOAD SWAP1 JUMP JUMPDEST PUSH1 0x40 MLOAD SWAP1 DUP2 MSTORE PUSH1 0x20 ADD PUSH1 0x40 MLOAD DUP1 SWAP2 SUB SWAP1 RETURN JUMPDEST PUSH1 0x96 PUSH1 0x7A CALLDATASIZE PUSH1 0x4 PUSH1 0xD2 JUMP JUMPDEST PUSH1 0x1 PUSH1 0x1 PUSH1 0xA0 SHL SUB SWAP1 SWAP2 AND PUSH1 0x0 SWAP1 DUP2 MSTORE PUSH1 0x20 DUP2 SWAP1 MSTORE PUSH1 0x40 SWAP1 KECCAK256 SSTORE JUMP JUMPDEST STOP JUMPDEST DUP1 CALLDATALOAD PUSH1 0x1 PUSH1 0x1 PUSH1 0xA0 SHL SUB DUP2 AND DUP2 EQ PUSH1 0xAE JUMPI PUSH1 0x0 DUP1 REVERT JUMPDEST SWAP2 SWAP1 POP JUMP JUMPDEST PUSH1 0x0 PUSH1 0x20 DUP3 DUP5 SUB SLT ISZERO PUSH1 0xC4 JUMPI PUSH1 0x0 DUP1 REVERT JUMPDEST PUSH1 0xCB DUP3 PUSH1 0x98 JUMP JUMPDEST SWAP4 SWAP3 POP POP POP JUMP JUMPDEST PUSH1 0x0 DUP1 PUSH1 0x40 DUP4 DUP6 SUB SLT ISZERO PUSH1 0xE4 JUMPI PUSH1 0x0 DUP1 REVERT JUMPDEST PUSH1 0xEB DUP4 PUSH1 0x98 JUMP JUMPDEST SWAP5 PUSH1 0x20 SWAP4 SWAP1 SWAP4 ADD CALLDATALOAD SWAP4 POP POP POP JUMP INVALID LOG2 PUSH5 0x6970667358 0x22 SLT KECCAK256 MSIZE 0xF7 ORIGIN 0xFC 0xBB 0xD PUSH11 0x4E0C874D973A9FAE32A1FB SWAP9 0xB2 PUSH12 0x9B68935A0043F36932C0064 PUSH20 0x6F6C634300081400330000000000000000000000 "},"methodIdentifiers":{"getYieldRate(address)":"33900766","updateYieldRate(address,uint256)":"f37a55e4"}}}}}