{"contracts/mocks/MockStoryIntegration.sol":{"MockStoryIntegration":{"abi":[{"anonymous":false,"inputs":[{"indexed":false,"internalType":"address","name":"owner","type":"address"},{"indexed":false,"internalType":"uint256","name":"tokenId","type":"uint256"},{"indexed":false,"internalType":"address","name":"ipId","type":"address"},{"indexed":false,"internalType":"uint256","name":"licenseTermsId","type":"uint256"}],"name":"DatasetRegistered","type":"event"},{"inputs":[{"internalType":"address","name":"datasetNFT","type":"address"},{"internalType":"uint256","name":"tokenId","type":"uint256"}],"name":"registerDataset","outputs":[{"internalType":"address","name":"ipId","type":"address"},{"internalType":"uint256","name":"licenseTermsId","type":"uint256"}],"stateMutability":"nonpayable","type":"function"}],"evm":{"bytecode":{"linkReferences":{},"object":"608060405234801561001057600080fd5b506101a3806100206000396000f3fe608060405234801561001057600080fd5b506004361061002b5760003560e01c8063260e794814610030575b600080fd5b61004361003e366004610135565b610066565b604080516001600160a01b03909316835260208301919091520160405180910390f35b60408051606084901b6bffffffffffffffffffffffff19166020808301829052603480840186905284518085039091018152605484018552805190820120607484019290925260888301859052666c6963656e736560c81b60a88401528351608f81850301815260af8401808652815191909201203390915260cf83018590526001600160a01b03821660ef84015261010f830181905292519092917fd9bf917be08ce89b1b0d673821a321030412bf6707a2272160f4e9fa46b02c31919081900361012f0190a19250929050565b6000806040838503121561014857600080fd5b82356001600160a01b038116811461015f57600080fd5b94602093909301359350505056fea2646970667358221220d97d8a135f061c295a4146a8ccb5544baed495e77d4b52ee05b9b068b265c7c664736f6c63430008140033","opcodes":"PUSH1 0x80 PUSH1 0x40 MSTORE CALLVALUE DUP1 ISZERO PUSH2 0x10 JUMPI PUSH1 0x0 DUP1 REVERT JUMPDEST POP PUSH2 0x1A3 DUP1 PUSH2 0x20 PUSH1 0x0 CODECOPY PUSH1 0x0 RETURN INVALID PUSH1 0x80 PUSH1 0x40 MSTORE CALLVALUE DUP1 ISZERO PUSH2 0x10 JUMPI PUSH1 0x0 DUP1 REVERT JUMPDEST POP PUSH1 0x4 CALLDATASIZE LT PUSH2 0x2B JUMPI PUSH1 0x0 CALLDATALOAD PUSH1 0xE0 SHR DUP1 PUSH4 0x260E7948 EQ PUSH2 0x30 JUMPI JUMPDEST PUSH1 0x0 DUP1 REVERT JUMPDEST PUSH2 0x43 PUSH2 0x3E CALLDATASIZE PUSH1 0x4 PUSH2 0x135 JUMP JUMPDEST PUSH2 0x66 JUMP JUMPDEST PUSH1 0x40 DUP1 MLOAD PUSH1 0x1 PUSH1 0x1 PUSH1 0xA0 SHL SUB SWAP1 SWAP4 AND DUP4 MSTORE PUSH1 0x20 DUP4 ADD SWAP2 SWAP1 SWAP2 MSTORE ADD PUSH1 0x40 MLOAD DUP1 SWAP2 SUB SWAP1 RETURN JUMPDEST PUSH1 0x40 DUP1 MLOAD PUSH1 0x60 DUP5 SWAP1 SHL PUSH12 0xFFFFFFFFFFFFFFFFFFFFFFFF NOT AND PUSH1 0x20 DUP1 DUP4 ADD DUP3 SWAP1 MSTORE PUSH1 0x34 DUP1 DUP5 ADD DUP7 SWAP1 MSTORE DUP5 MLOAD DUP1 DUP6 SUB SWAP1 SWAP2 ADD DUP2 MSTORE PUSH1 0x54 DUP5 ADD DUP6 MSTORE DUP1 MLOAD SWAP1 DUP3 ADD KECCAK256 PUSH1 0x74 DUP5 ADD SWAP3 SWAP1 SWAP3 MSTORE PUSH1 0x88 DUP4 ADD DUP6 SWAP1 MSTORE PUSH7 0x6C6963656E7365 PUSH1 0xC8 SHL PUSH1 0xA8 DUP5 ADD MSTORE DUP4 MLOAD PUSH1 0x8F DUP2 DUP6 SUB ADD DUP2 MSTORE PUSH1 0xAF DUP5 ADD DUP1 DUP7 MSTORE DUP2 MLOAD SWAP2 SWAP1 SWAP3 ADD KECCAK256 CALLER SWAP1 SWAP2 MSTORE PUSH1 0xCF DUP4 ADD DUP6 SWAP1 MSTORE PUSH1 0x1 PUSH1 0x1 PUSH1 0xA0 SHL SUB DUP3 AND PUSH1 0xEF DUP5 ADD MSTORE PUSH2 0x10F DUP4 ADD DUP2 SWAP1 MSTORE SWAP3 MLOAD SWAP1 SWAP3 SWAP2 PUSH32 0xD9BF917BE08CE89B1B0D673821A321030412BF6707A2272160F4E9FA46B02C31 SWAP2 SWAP1 DUP2 SWAP1 SUB PUSH2 0x12F ADD SWAP1 LOG1 SWAP3 POP SWAP3 SWAP1 POP JUMP JUMPDEST PUSH1 0x0 DUP1 PUSH1 0x40 DUP4 DUP6 SUB SLT ISZERO PUSH2 0x148 JUMPI PUSH1 0x0 DUP1 REVERT JUMPDEST DUP3 CALLDATALOAD PUSH1 0x1 PUSH1 0x1 PUSH1 0xA0 SHL SUB DUP2 AND DUP2 EQ PUSH2 0x15F JUMPI PUSH1 0x0 DUP1 REVERT JUMPDEST SWAP5 PUSH1 0x20 SWAP4 SWAP1 SWAP4 ADD CALLDATALOAD SWAP4 POP POP POP JUMP INVALID LOG2 PUSH5 0x6970667358 0x22 SLT KECCAK256 0xD9 PUSH30 0x8A135F061C295A4146A8CCB5544BAED495E77D4B52EE05B9B068B265C7C6 PUSH5 0x736F6C6343 STOP ADDMOD EQ STOP CALLER "},"methodIdentifiers":{"registerDataset(address,uint256)":"260e7948"}}}}}