{
  "_format": "hh-sol-artifact-1",
  "contractName": "MockSilo",
  "sourceName": "contracts/MockSilo.sol",
  "abi": [
    {
      "inputs": [
        {
          "internalType": "uint256",
          "name": "amount",
          "type": "uint256"
        }
      ],
      "name": "boostReward",
      "outputs": [
        {
          "internalType": "uint256",
          "name": "",
          "type": "uint256"
        }
      ],
      "stateMutability": "pure",
      "type": "function"
    }
  ],
  "bytecode": "0x6080604052348015600f57600080fd5b5061011b8061001f6000396000f3fe6080604052348015600f57600080fd5b506004361060285760003560e01c80634195fbf314602d575b600080fd5b60436004803603810190603f91906097565b6057565b604051604e919060cc565b60405180910390f35b6000819050919050565b600080fd5b6000819050919050565b6077816066565b8114608157600080fd5b50565b6000813590506091816070565b92915050565b60006020828403121560aa5760a96061565b5b600060b6848285016084565b91505092915050565b60c6816066565b82525050565b600060208201905060df600083018460bf565b9291505056fea26469706673582212205c9cb8f3501c7fcce1a68024726e5b89fe98a936aa0b2d495c4e13eec7e52fa664736f6c634300081c0033",
  "linkReferences": {},
  "deployedLinkReferences": {}
}