{"abi":[{"type":"function","name":"registerDataset","inputs":[{"name":"datasetNFT","type":"address","internalType":"address"},{"name":"tokenId","type":"uint256","internalType":"uint256"}],"outputs":[{"name":"ipId","type":"address","internalType":"address"},{"name":"licenseTermsId","type":"uint256","internalType":"uint256"}],"stateMutability":"nonpayable"},{"type":"event","name":"DatasetRegistered","inputs":[{"name":"owner","type":"address","indexed":false,"internalType":"address"},{"name":"tokenId","type":"uint256","indexed":false,"internalType":"uint256"},{"name":"ipId","type":"address","indexed":false,"internalType":"address"},{"name":"licenseTermsId","type":"uint256","indexed":false,"internalType":"uint256"}],"anonymous":false}],"bytecode":{"object":"0x608060405234801561000f575f80fd5b506101ed8061001d5f395ff3fe608060405234801561000f575f80fd5b5060043610610029575f3560e01c8063260e79481461002d575b5f80fd5b61004061003b366004610175565b610070565b6040805173ffffffffffffffffffffffffffffffffffffffff909316835260208301919091520160405180910390f35b60408051606084901b7fffffffffffffffffffffffffffffffffffffffff0000000000000000000000001660208083018290526034808401869052845180850390910181526054840185528051908201206074840192909252608883018590527f6c6963656e73650000000000000000000000000000000000000000000000000060a88401528351608f81850301815260af8401808652815191909201203390915260cf830185905273ffffffffffffffffffffffffffffffffffffffff821660ef84015261010f830181905292519092917fd9bf917be08ce89b1b0d673821a321030412bf6707a2272160f4e9fa46b02c31919081900361012f0190a19250929050565b5f8060408385031215610186575f80fd5b823573ffffffffffffffffffffffffffffffffffffffff811681146101a9575f80fd5b94602093909301359350505056fea26469706673582212208c2141677fcfd0e9e5a9fe1671dd4055675edaa1d88262c70f15bf0d793adf7264736f6c63430008140033","linkReferences":{}},"methodIdentifiers":{"registerDataset(address,uint256)":"260e7948"},"id":16}