{
  "_format": "hh-sol-artifact-1",
  "contractName": "ContestFactory",
  "sourceName": "contracts/ContestFactory.sol",
  "abi": [
    {
      "anonymous": false,
      "inputs": [
        {
          "indexed": false,
          "internalType": "address",
          "name": "contestAddress",
          "type": "address"
        },
        {
          "indexed": false,
          "internalType": "string",
          "name": "title",
          "type": "string"
        },
        {
          "indexed": false,
          "internalType": "address",
          "name": "owner",
          "type": "address"
        }
      ],
      "name": "ContestCreated",
      "type": "event"
    },
    {
      "inputs": [
        {
          "internalType": "uint256",
          "name": "",
          "type": "uint256"
        }
      ],
      "name": "contests",
      "outputs": [
        {
          "internalType": "contract Contest",
          "name": "",
          "type": "address"
        }
      ],
      "stateMutability": "view",
      "type": "function"
    },
    {
      "inputs": [
        {
          "internalType": "string",
          "name": "_title",
          "type": "string"
        },
        {
          "internalType": "string",
          "name": "_datasetLink",
          "type": "string"
        },
        {
          "internalType": "string",
          "name": "_description",
          "type": "string"
        },
        {
          "internalType": "uint256",
          "name": "_deadline",
          "type": "uint256"
        },
        {
          "internalType": "uint256",
          "name": "_stakeRequired",
          "type": "uint256"
        }
      ],
      "name": "createContest",
      "outputs": [],
      "stateMutability": "nonpayable",
      "type": "function"
    },
    {
      "inputs": [],
      "name": "getContestsCount",
      "outputs": [
        {
          "internalType": "uint256",
          "name": "",
          "type": "uint256"
        }
      ],
      "stateMutability": "view",
      "type": "function"
    }
  ],
  "bytecode": "0x6080604052348015600f57600080fd5b506121618061001f6000396000f3fe608060405234801561001057600080fd5b50600436106100415760003560e01c80637d086dfa146100465780639d7ed73814610062578063d07bb03614610092575b600080fd5b610060600480360381019061005b9190610380565b6100b0565b005b61007c6004803603810190610077919061044f565b610198565b60405161008991906104fb565b60405180910390f35b61009a6101d7565b6040516100a79190610525565b60405180910390f35b60008585858585336040516100c4906101e3565b6100d3969594939291906105e0565b604051809103906000f0801580156100ef573d6000803e3d6000fd5b5090506000819080600181540180825580915050600190039060005260206000200160009091909190916101000a81548173ffffffffffffffffffffffffffffffffffffffff021916908373ffffffffffffffffffffffffffffffffffffffff1602179055507fe0597a88cc0e94ebebddc0653a999b18f8210fd689571bc3b2cced3be40ac65f81873360405161018893929190610656565b60405180910390a1505050505050565b600081815481106101a857600080fd5b906000526020600020016000915054906101000a900473ffffffffffffffffffffffffffffffffffffffff1681565b60008080549050905090565b611a978061069583390190565b6000604051905090565b600080fd5b600080fd5b600080fd5b600080fd5b6000601f19601f8301169050919050565b7f4e487b7100000000000000000000000000000000000000000000000000000000600052604160045260246000fd5b6102578261020e565b810181811067ffffffffffffffff821117156102765761027561021f565b5b80604052505050565b60006102896101f0565b9050610295828261024e565b919050565b600067ffffffffffffffff8211156102b5576102b461021f565b5b6102be8261020e565b9050602081019050919050565b82818337600083830152505050565b60006102ed6102e88461029a565b61027f565b90508281526020810184848401111561030957610308610209565b5b6103148482856102cb565b509392505050565b600082601f83011261033157610330610204565b5b81356103418482602086016102da565b91505092915050565b6000819050919050565b61035d8161034a565b811461036857600080fd5b50565b60008135905061037a81610354565b92915050565b600080600080600060a0868803121561039c5761039b6101fa565b5b600086013567ffffffffffffffff8111156103ba576103b96101ff565b5b6103c68882890161031c565b955050602086013567ffffffffffffffff8111156103e7576103e66101ff565b5b6103f38882890161031c565b945050604086013567ffffffffffffffff811115610414576104136101ff565b5b6104208882890161031c565b93505060606104318882890161036b565b92505060806104428882890161036b565b9150509295509295909350565b600060208284031215610465576104646101fa565b5b60006104738482850161036b565b91505092915050565b600073ffffffffffffffffffffffffffffffffffffffff82169050919050565b6000819050919050565b60006104c16104bc6104b78461047c565b61049c565b61047c565b9050919050565b60006104d3826104a6565b9050919050565b60006104e5826104c8565b9050919050565b6104f5816104da565b82525050565b600060208201905061051060008301846104ec565b92915050565b61051f8161034a565b82525050565b600060208201905061053a6000830184610516565b92915050565b600081519050919050565b600082825260208201905092915050565b60005b8381101561057a57808201518184015260208101905061055f565b60008484015250505050565b600061059182610540565b61059b818561054b565b93506105ab81856020860161055c565b6105b48161020e565b840191505092915050565b60006105ca8261047c565b9050919050565b6105da816105bf565b82525050565b600060c08201905081810360008301526105fa8189610586565b9050818103602083015261060e8188610586565b905081810360408301526106228187610586565b90506106316060830186610516565b61063e6080830185610516565b61064b60a08301846105d1565b979650505050505050565b600060608201905061066b60008301866105d1565b818103602083015261067d8185610586565b905061068c60408301846105d1565b94935050505056fe608060405234801561001057600080fd5b50604051611a97380380611a97833981810160405281019061003291906102e0565b856000908161004191906105d8565b50846001908161005191906105d8565b50836002908161006191906105d8565b50826003819055508160048190555080600560006101000a81548173ffffffffffffffffffffffffffffffffffffffff021916908373ffffffffffffffffffffffffffffffffffffffff1602179055506000600560146101000a81548160ff0219169083151502179055505050505050506106aa565b6000604051905090565b600080fd5b600080fd5b600080fd5b600080fd5b6000601f19601f8301169050919050565b7f4e487b7100000000000000000000000000000000000000000000000000000000600052604160045260246000fd5b61013e826100f5565b810181811067ffffffffffffffff8211171561015d5761015c610106565b5b80604052505050565b60006101706100d7565b905061017c8282610135565b919050565b600067ffffffffffffffff82111561019c5761019b610106565b5b6101a5826100f5565b9050602081019050919050565b60005b838110156101d05780820151818401526020810190506101b5565b60008484015250505050565b60006101ef6101ea84610181565b610166565b90508281526020810184848401111561020b5761020a6100f0565b5b6102168482856101b2565b509392505050565b600082601f830112610233576102326100eb565b5b81516102438482602086016101dc565b91505092915050565b6000819050919050565b61025f8161024c565b811461026a57600080fd5b50565b60008151905061027c81610256565b92915050565b600073ffffffffffffffffffffffffffffffffffffffff82169050919050565b60006102ad82610282565b9050919050565b6102bd816102a2565b81146102c857600080fd5b50565b6000815190506102da816102b4565b92915050565b60008060008060008060c087890312156102fd576102fc6100e1565b5b600087015167ffffffffffffffff81111561031b5761031a6100e6565b5b61032789828a0161021e565b965050602087015167ffffffffffffffff811115610348576103476100e6565b5b61035489828a0161021e565b955050604087015167ffffffffffffffff811115610375576103746100e6565b5b61038189828a0161021e565b945050606061039289828a0161026d565b93505060806103a389828a0161026d565b92505060a06103b489828a016102cb565b9150509295509295509295565b600081519050919050565b7f4e487b7100000000000000000000000000000000000000000000000000000000600052602260045260246000fd5b6000600282049050600182168061041357607f821691505b602082108103610426576104256103cc565b5b50919050565b60008190508160005260206000209050919050565b60006020601f8301049050919050565b600082821b905092915050565b60006008830261048e7fffffffffffffffffffffffffffffffffffffffffffffffffffffffffffffffff82610451565b6104988683610451565b95508019841693508086168417925050509392505050565b6000819050919050565b60006104d56104d06104cb8461024c565b6104b0565b61024c565b9050919050565b6000819050919050565b6104ef836104ba565b6105036104fb826104dc565b84845461045e565b825550505050565b600090565b61051861050b565b6105238184846104e6565b505050565b5b818110156105475761053c600082610510565b600181019050610529565b5050565b601f82111561058c5761055d8161042c565b61056684610441565b81016020851015610575578190505b61058961058185610441565b830182610528565b50505b505050565b600082821c905092915050565b60006105af60001984600802610591565b1980831691505092915050565b60006105c8838361059e565b9150826002028217905092915050565b6105e1826103c1565b67ffffffffffffffff8111156105fa576105f9610106565b5b61060482546103fb565b61060f82828561054b565b600060209050601f8311600181146106425760008415610630578287015190505b61063a85826105bc565b8655506106a2565b601f1984166106508661042c565b60005b8281101561067857848901518255600182019150602085019450602081019050610653565b868310156106955784890151610691601f89168261059e565b8355505b6001600288020188555050505b505050505050565b6113de806106b96000396000f3fe6080604052600436106100a75760003560e01c80634a79d50c116100645780634a79d50c1461018b5780637284e416146101b65780638da5cb5b146101e1578063a094c6321461020c578063ad73349e14610223578063f9003b3514610264576100a7565b806305010105146100ac57806324600fc3146100d757806329dcb0cf146100ee578063360299181461011957806346fb5ac61461014457806348462a6014610160575b600080fd5b3480156100b857600080fd5b506100c161028f565b6040516100ce9190610a9e565b60405180910390f35b3480156100e357600080fd5b506100ec610295565b005b3480156100fa57600080fd5b50610103610390565b6040516101109190610a9e565b60405180910390f35b34801561012557600080fd5b5061012e610396565b60405161013b9190610a9e565b60405180910390f35b61015e60048036038101906101599190610c13565b6103a3565b005b34801561016c57600080fd5b506101756105cb565b6040516101829190610cd5565b60405180910390f35b34801561019757600080fd5b506101a06105de565b6040516101ad9190610d6f565b60405180910390f35b3480156101c257600080fd5b506101cb61066c565b6040516101d89190610d6f565b60405180910390f35b3480156101ed57600080fd5b506101f66106fa565b6040516102039190610dd2565b60405180910390f35b34801561021857600080fd5b50610221610720565b005b34801561022f57600080fd5b5061024a60048036038101906102459190610e19565b6107f9565b60405161025b959493929190610e46565b60405180910390f35b34801561027057600080fd5b506102796109f7565b6040516102869190610d6f565b60405180910390f35b60045481565b600560009054906101000a900473ffffffffffffffffffffffffffffffffffffffff1673ffffffffffffffffffffffffffffffffffffffff163373ffffffffffffffffffffffffffffffffffffffff1614610325576040517f08c379a000000000000000000000000000000000000000000000000000000000815260040161031c90610efa565b60405180910390fd5b600560009054906101000a900473ffffffffffffffffffffffffffffffffffffffff1673ffffffffffffffffffffffffffffffffffffffff166108fc479081150290604051600060405180830381858888f1935050505015801561038d573d6000803e3d6000fd5b50565b60035481565b6000600680549050905090565b60035442106103e7576040517f08c379a00000000000000000000000000000000000000000000000000000000081526004016103de90610f66565b60405180910390fd5b600560149054906101000a900460ff1615610437576040517f08c379a000000000000000000000000000000000000000000000000000000000815260040161042e90610fd2565b60405180910390fd5b600454341461047b576040517f08c379a00000000000000000000000000000000000000000000000000000000081526004016104729061103e565b60405180910390fd5b60066040518060a001604052803373ffffffffffffffffffffffffffffffffffffffff16815260200185815260200184815260200183815260200142815250908060018154018082558091505060019003906000526020600020906005020160009091909190915060008201518160000160006101000a81548173ffffffffffffffffffffffffffffffffffffffff021916908373ffffffffffffffffffffffffffffffffffffffff160217905550602082015181600101908161053f919061126a565b506040820151816002019081610555919061126a565b50606082015181600301908161056b919061126a565b506080820151816004015550503373ffffffffffffffffffffffffffffffffffffffff167ff5c01a5bb24ea185710d849c5175804603859fbe180fbe3daf4ef099d1e8e21e426040516105be9190610a9e565b60405180910390a2505050565b600560149054906101000a900460ff1681565b600080546105eb9061108d565b80601f01602080910402602001604051908101604052809291908181526020018280546106179061108d565b80156106645780601f1061063957610100808354040283529160200191610664565b820191906000526020600020905b81548152906001019060200180831161064757829003601f168201915b505050505081565b600280546106799061108d565b80601f01602080910402602001604051908101604052809291908181526020018280546106a59061108d565b80156106f25780601f106106c7576101008083540402835291602001916106f2565b820191906000526020600020905b8154815290600101906020018083116106d557829003601f168201915b505050505081565b600560009054906101000a900473ffffffffffffffffffffffffffffffffffffffff1681565b600560009054906101000a900473ffffffffffffffffffffffffffffffffffffffff1673ffffffffffffffffffffffffffffffffffffffff163373ffffffffffffffffffffffffffffffffffffffff16146107b0576040517f08c379a00000000000000000000000000000000000000000000000000000000081526004016107a790611388565b60405180910390fd5b6001600560146101000a81548160ff0219169083151502179055507fef19c40e684c836035e6598f5d86819dfec89371571efdeed79473397397114360405160405180910390a1565b6006818154811061080957600080fd5b90600052602060002090600502016000915090508060000160009054906101000a900473ffffffffffffffffffffffffffffffffffffffff16908060010180546108529061108d565b80601f016020809104026020016040519081016040528092919081815260200182805461087e9061108d565b80156108cb5780601f106108a0576101008083540402835291602001916108cb565b820191906000526020600020905b8154815290600101906020018083116108ae57829003601f168201915b5050505050908060020180546108e09061108d565b80601f016020809104026020016040519081016040528092919081815260200182805461090c9061108d565b80156109595780601f1061092e57610100808354040283529160200191610959565b820191906000526020600020905b81548152906001019060200180831161093c57829003601f168201915b50505050509080600301805461096e9061108d565b80601f016020809104026020016040519081016040528092919081815260200182805461099a9061108d565b80156109e75780601f106109bc576101008083540402835291602001916109e7565b820191906000526020600020905b8154815290600101906020018083116109ca57829003601f168201915b5050505050908060040154905085565b60018054610a049061108d565b80601f0160208091040260200160405190810160405280929190818152602001828054610a309061108d565b8015610a7d5780601f10610a5257610100808354040283529160200191610a7d565b820191906000526020600020905b815481529060010190602001808311610a6057829003601f168201915b505050505081565b6000819050919050565b610a9881610a85565b82525050565b6000602082019050610ab36000830184610a8f565b92915050565b6000604051905090565b600080fd5b600080fd5b600080fd5b600080fd5b6000601f19601f8301169050919050565b7f4e487b7100000000000000000000000000000000000000000000000000000000600052604160045260246000fd5b610b2082610ad7565b810181811067ffffffffffffffff82111715610b3f57610b3e610ae8565b5b80604052505050565b6000610b52610ab9565b9050610b5e8282610b17565b919050565b600067ffffffffffffffff821115610b7e57610b7d610ae8565b5b610b8782610ad7565b9050602081019050919050565b82818337600083830152505050565b6000610bb6610bb184610b63565b610b48565b905082815260208101848484011115610bd257610bd1610ad2565b5b610bdd848285610b94565b509392505050565b600082601f830112610bfa57610bf9610acd565b5b8135610c0a848260208601610ba3565b91505092915050565b600080600060608486031215610c2c57610c2b610ac3565b5b600084013567ffffffffffffffff811115610c4a57610c49610ac8565b5b610c5686828701610be5565b935050602084013567ffffffffffffffff811115610c7757610c76610ac8565b5b610c8386828701610be5565b925050604084013567ffffffffffffffff811115610ca457610ca3610ac8565b5b610cb086828701610be5565b9150509250925092565b60008115159050919050565b610ccf81610cba565b82525050565b6000602082019050610cea6000830184610cc6565b92915050565b600081519050919050565b600082825260208201905092915050565b60005b83811015610d2a578082015181840152602081019050610d0f565b60008484015250505050565b6000610d4182610cf0565b610d4b8185610cfb565b9350610d5b818560208601610d0c565b610d6481610ad7565b840191505092915050565b60006020820190508181036000830152610d898184610d36565b905092915050565b600073ffffffffffffffffffffffffffffffffffffffff82169050919050565b6000610dbc82610d91565b9050919050565b610dcc81610db1565b82525050565b6000602082019050610de76000830184610dc3565b92915050565b610df681610a85565b8114610e0157600080fd5b50565b600081359050610e1381610ded565b92915050565b600060208284031215610e2f57610e2e610ac3565b5b6000610e3d84828501610e04565b91505092915050565b600060a082019050610e5b6000830188610dc3565b8181036020830152610e6d8187610d36565b90508181036040830152610e818186610d36565b90508181036060830152610e958185610d36565b9050610ea46080830184610a8f565b9695505050505050565b7f4f6e6c79206f776e65722063616e2077697468647261772066756e6473000000600082015250565b6000610ee4601d83610cfb565b9150610eef82610eae565b602082019050919050565b60006020820190508181036000830152610f1381610ed7565b9050919050565b7f436f6e7465737420646561646c696e6520706173736564000000000000000000600082015250565b6000610f50601783610cfb565b9150610f5b82610f1a565b602082019050919050565b60006020820190508181036000830152610f7f81610f43565b9050919050565b7f436f6e7465737420697320636c6f736564000000000000000000000000000000600082015250565b6000610fbc601183610cfb565b9150610fc782610f86565b602082019050919050565b60006020820190508181036000830152610feb81610faf565b9050919050565b7f496e636f7272656374207374616b6520616d6f756e7400000000000000000000600082015250565b6000611028601683610cfb565b915061103382610ff2565b602082019050919050565b600060208201905081810360008301526110578161101b565b9050919050565b7f4e487b7100000000000000000000000000000000000000000000000000000000600052602260045260246000fd5b600060028204905060018216806110a557607f821691505b6020821081036110b8576110b761105e565b5b50919050565b60008190508160005260206000209050919050565b60006020601f8301049050919050565b600082821b905092915050565b6000600883026111207fffffffffffffffffffffffffffffffffffffffffffffffffffffffffffffffff826110e3565b61112a86836110e3565b95508019841693508086168417925050509392505050565b6000819050919050565b600061116761116261115d84610a85565b611142565b610a85565b9050919050565b6000819050919050565b6111818361114c565b61119561118d8261116e565b8484546110f0565b825550505050565b600090565b6111aa61119d565b6111b5818484611178565b505050565b5b818110156111d9576111ce6000826111a2565b6001810190506111bb565b5050565b601f82111561121e576111ef816110be565b6111f8846110d3565b81016020851015611207578190505b61121b611213856110d3565b8301826111ba565b50505b505050565b600082821c905092915050565b600061124160001984600802611223565b1980831691505092915050565b600061125a8383611230565b9150826002028217905092915050565b61127382610cf0565b67ffffffffffffffff81111561128c5761128b610ae8565b5b611296825461108d565b6112a18282856111dd565b600060209050601f8311600181146112d457600084156112c2578287015190505b6112cc858261124e565b865550611334565b601f1984166112e2866110be565b60005b8281101561130a578489015182556001820191506020850194506020810190506112e5565b868310156113275784890151611323601f891682611230565b8355505b6001600288020188555050505b505050505050565b7f4f6e6c79206f776e65722063616e20636c6f736520636f6e7465737400000000600082015250565b6000611372601c83610cfb565b915061137d8261133c565b602082019050919050565b600060208201905081810360008301526113a181611365565b905091905056fea2646970667358221220cc8e3e051b82b2093c0b67f121922779f46ad60ad10c6ef74f24e081068e60bd64736f6c634300081c0033a26469706673582212208d0c9848101289fc3e594be2e239d8ea7033b6ff83eb3b4885825a79527a8c2064736f6c634300081c0033",
  "linkReferences": {},
  "deployedLinkReferences": {}
}