{
  "_format": "hh-sol-artifact-1",
  "contractName": "DataMarket",
  "sourceName": "contracts/DataMarket.sol",
  "abi": [
    {
      "inputs": [
        {
          "internalType": "address",
          "name": "_ethStorage",
          "type": "address"
        }
      ],
      "stateMutability": "nonpayable",
      "type": "constructor"
    },
    {
      "inputs": [
        {
          "internalType": "address",
          "name": "owner",
          "type": "address"
        }
      ],
      "name": "OwnableInvalidOwner",
      "type": "error"
    },
    {
      "inputs": [
        {
          "internalType": "address",
          "name": "account",
          "type": "address"
        }
      ],
      "name": "OwnableUnauthorizedAccount",
      "type": "error"
    },
    {
      "anonymous": false,
      "inputs": [
        {
          "indexed": true,
          "internalType": "uint256",
          "name": "dataId",
          "type": "uint256"
        },
        {
          "indexed": false,
          "internalType": "bytes32",
          "name": "ethStorageKey",
          "type": "bytes32"
        },
        {
          "indexed": false,
          "internalType": "uint256",
          "name": "blobIndex",
          "type": "uint256"
        },
        {
          "indexed": false,
          "internalType": "uint256",
          "name": "dataLength",
          "type": "uint256"
        },
        {
          "indexed": true,
          "internalType": "address",
          "name": "uploader",
          "type": "address"
        }
      ],
      "name": "DataUploaded",
      "type": "event"
    },
    {
      "anonymous": false,
      "inputs": [
        {
          "indexed": true,
          "internalType": "address",
          "name": "previousOwner",
          "type": "address"
        },
        {
          "indexed": true,
          "internalType": "address",
          "name": "newOwner",
          "type": "address"
        }
      ],
      "name": "OwnershipTransferred",
      "type": "event"
    },
    {
      "inputs": [],
      "name": "dataCounter",
      "outputs": [
        {
          "internalType": "uint256",
          "name": "",
          "type": "uint256"
        }
      ],
      "stateMutability": "view",
      "type": "function"
    },
    {
      "inputs": [
        {
          "internalType": "uint256",
          "name": "",
          "type": "uint256"
        }
      ],
      "name": "dataEntries",
      "outputs": [
        {
          "internalType": "string",
          "name": "metadata",
          "type": "string"
        },
        {
          "internalType": "bytes32",
          "name": "ethStorageKey",
          "type": "bytes32"
        },
        {
          "internalType": "uint256",
          "name": "blobIndex",
          "type": "uint256"
        },
        {
          "internalType": "uint256",
          "name": "dataLength",
          "type": "uint256"
        },
        {
          "internalType": "address",
          "name": "uploader",
          "type": "address"
        }
      ],
      "stateMutability": "view",
      "type": "function"
    },
    {
      "inputs": [],
      "name": "ethStorage",
      "outputs": [
        {
          "internalType": "contract IEthStorage",
          "name": "",
          "type": "address"
        }
      ],
      "stateMutability": "view",
      "type": "function"
    },
    {
      "inputs": [
        {
          "internalType": "uint256",
          "name": "dataId",
          "type": "uint256"
        }
      ],
      "name": "getData",
      "outputs": [
        {
          "internalType": "string",
          "name": "metadata",
          "type": "string"
        },
        {
          "internalType": "bytes32",
          "name": "key",
          "type": "bytes32"
        },
        {
          "internalType": "uint256",
          "name": "blobIndex",
          "type": "uint256"
        },
        {
          "internalType": "uint256",
          "name": "dataLength",
          "type": "uint256"
        }
      ],
      "stateMutability": "view",
      "type": "function"
    },
    {
      "inputs": [],
      "name": "owner",
      "outputs": [
        {
          "internalType": "address",
          "name": "",
          "type": "address"
        }
      ],
      "stateMutability": "view",
      "type": "function"
    },
    {
      "inputs": [],
      "name": "renounceOwnership",
      "outputs": [],
      "stateMutability": "nonpayable",
      "type": "function"
    },
    {
      "inputs": [
        {
          "internalType": "address",
          "name": "newOwner",
          "type": "address"
        }
      ],
      "name": "transferOwnership",
      "outputs": [],
      "stateMutability": "nonpayable",
      "type": "function"
    },
    {
      "inputs": [
        {
          "internalType": "bytes32",
          "name": "key",
          "type": "bytes32"
        },
        {
          "internalType": "uint256",
          "name": "blobIdx",
          "type": "uint256"
        },
        {
          "internalType": "uint256",
          "name": "length",
          "type": "uint256"
        },
        {
          "internalType": "string",
          "name": "metadata",
          "type": "string"
        }
      ],
      "name": "uploadData",
      "outputs": [],
      "stateMutability": "nonpayable",
      "type": "function"
    }
  ],
  "bytecode": "0x608060405234801561001057600080fd5b5060405161156838038061156883398181016040528101906100329190610292565b33600073ffffffffffffffffffffffffffffffffffffffff168173ffffffffffffffffffffffffffffffffffffffff16036100a55760006040517f1e4fbdf700000000000000000000000000000000000000000000000000000000815260040161009c91906102ce565b60405180910390fd5b6100b48161016b60201b60201c565b50600073ffffffffffffffffffffffffffffffffffffffff168173ffffffffffffffffffffffffffffffffffffffff1603610124576040517f08c379a000000000000000000000000000000000000000000000000000000000815260040161011b90610346565b60405180910390fd5b80600260006101000a81548173ffffffffffffffffffffffffffffffffffffffff021916908373ffffffffffffffffffffffffffffffffffffffff16021790555050610366565b60008060009054906101000a900473ffffffffffffffffffffffffffffffffffffffff169050816000806101000a81548173ffffffffffffffffffffffffffffffffffffffff021916908373ffffffffffffffffffffffffffffffffffffffff1602179055508173ffffffffffffffffffffffffffffffffffffffff168173ffffffffffffffffffffffffffffffffffffffff167f8be0079c531659141344cd1fd0a4f28419497f9722a3daafe3b4186f6b6457e060405160405180910390a35050565b600080fd5b600073ffffffffffffffffffffffffffffffffffffffff82169050919050565b600061025f82610234565b9050919050565b61026f81610254565b811461027a57600080fd5b50565b60008151905061028c81610266565b92915050565b6000602082840312156102a8576102a761022f565b5b60006102b68482850161027d565b91505092915050565b6102c881610254565b82525050565b60006020820190506102e360008301846102bf565b92915050565b600082825260208201905092915050565b7f496e76616c69642045746853746f726167652061646472657373000000000000600082015250565b6000610330601a836102e9565b915061033b826102fa565b602082019050919050565b6000602082019050818103600083015261035f81610323565b9050919050565b6111f3806103756000396000f3fe608060405234801561001057600080fd5b50600436106100885760003560e01c80638da5cb5b1161005b5780638da5cb5b1461011a5780639418feaa14610138578063d861111614610156578063f2fde38b1461017457610088565b80630178fe3f1461008d578063305aa10a146100c0578063325f4658146100dc578063715018a614610110575b600080fd5b6100a760048036038101906100a291906108aa565b610190565b6040516100b7949392919061098f565b60405180910390f35b6100da60048036038101906100d59190610b3c565b6102e2565b005b6100f660048036038101906100f191906108aa565b610540565b604051610107959493929190610c00565b60405180910390f35b61011861061e565b005b610122610632565b60405161012f9190610c5a565b60405180910390f35b61014061065b565b60405161014d9190610c75565b60405180910390f35b61015e610661565b60405161016b9190610cef565b60405180910390f35b61018e60048036038101906101899190610d36565b610687565b005b6060600080600080600160008781526020019081526020016000206040518060a00160405290816000820180546101c690610d92565b80601f01602080910402602001604051908101604052809291908181526020018280546101f290610d92565b801561023f5780601f106102145761010080835404028352916020019161023f565b820191906000526020600020905b81548152906001019060200180831161022257829003601f168201915b505050505081526020016001820154815260200160028201548152602001600382015481526020016004820160009054906101000a900473ffffffffffffffffffffffffffffffffffffffff1673ffffffffffffffffffffffffffffffffffffffff1673ffffffffffffffffffffffffffffffffffffffff1681525050905080600001518160200151826040015183606001519450945094509450509193509193565b6000815111610326576040517f08c379a000000000000000000000000000000000000000000000000000000000815260040161031d90610e0f565b60405180910390fd5b6202000082111561036c576040517f08c379a000000000000000000000000000000000000000000000000000000000815260040161036390610e7b565b60405180910390fd5b600260009054906101000a900473ffffffffffffffffffffffffffffffffffffffff1673ffffffffffffffffffffffffffffffffffffffff16634581a9208585856040518463ffffffff1660e01b81526004016103cb93929190610e9b565b600060405180830381600087803b1580156103e557600080fd5b505af11580156103f9573d6000803e3d6000fd5b5050505060006003600081548092919061041290610f01565b9190505590506040518060a001604052808381526020018681526020018581526020018481526020013373ffffffffffffffffffffffffffffffffffffffff1681525060016000838152602001908152602001600020600082015181600001908161047d91906110eb565b5060208201518160010155604082015181600201556060820151816003015560808201518160040160006101000a81548173ffffffffffffffffffffffffffffffffffffffff021916908373ffffffffffffffffffffffffffffffffffffffff1602179055509050503373ffffffffffffffffffffffffffffffffffffffff16817f12a5fa65f6ff3cb6b5ada7f2d36940d6249c2bafad7001cdba4b248638199bf487878760405161053193929190610e9b565b60405180910390a35050505050565b600160205280600052604060002060009150905080600001805461056390610d92565b80601f016020809104026020016040519081016040528092919081815260200182805461058f90610d92565b80156105dc5780601f106105b1576101008083540402835291602001916105dc565b820191906000526020600020905b8154815290600101906020018083116105bf57829003601f168201915b5050505050908060010154908060020154908060030154908060040160009054906101000a900473ffffffffffffffffffffffffffffffffffffffff16905085565b61062661070d565b6106306000610794565b565b60008060009054906101000a900473ffffffffffffffffffffffffffffffffffffffff16905090565b60035481565b600260009054906101000a900473ffffffffffffffffffffffffffffffffffffffff1681565b61068f61070d565b600073ffffffffffffffffffffffffffffffffffffffff168173ffffffffffffffffffffffffffffffffffffffff16036107015760006040517f1e4fbdf70000000000000000000000000000000000000000000000000000000081526004016106f89190610c5a565b60405180910390fd5b61070a81610794565b50565b610715610858565b73ffffffffffffffffffffffffffffffffffffffff16610733610632565b73ffffffffffffffffffffffffffffffffffffffff161461079257610756610858565b6040517f118cdaa70000000000000000000000000000000000000000000000000000000081526004016107899190610c5a565b60405180910390fd5b565b60008060009054906101000a900473ffffffffffffffffffffffffffffffffffffffff169050816000806101000a81548173ffffffffffffffffffffffffffffffffffffffff021916908373ffffffffffffffffffffffffffffffffffffffff1602179055508173ffffffffffffffffffffffffffffffffffffffff168173ffffffffffffffffffffffffffffffffffffffff167f8be0079c531659141344cd1fd0a4f28419497f9722a3daafe3b4186f6b6457e060405160405180910390a35050565b600033905090565b6000604051905090565b600080fd5b600080fd5b6000819050919050565b61088781610874565b811461089257600080fd5b50565b6000813590506108a48161087e565b92915050565b6000602082840312156108c0576108bf61086a565b5b60006108ce84828501610895565b91505092915050565b600081519050919050565b600082825260208201905092915050565b60005b838110156109115780820151818401526020810190506108f6565b60008484015250505050565b6000601f19601f8301169050919050565b6000610939826108d7565b61094381856108e2565b93506109538185602086016108f3565b61095c8161091d565b840191505092915050565b6000819050919050565b61097a81610967565b82525050565b61098981610874565b82525050565b600060808201905081810360008301526109a9818761092e565b90506109b86020830186610971565b6109c56040830185610980565b6109d26060830184610980565b95945050505050565b6109e481610967565b81146109ef57600080fd5b50565b600081359050610a01816109db565b92915050565b600080fd5b600080fd5b7f4e487b7100000000000000000000000000000000000000000000000000000000600052604160045260246000fd5b610a498261091d565b810181811067ffffffffffffffff82111715610a6857610a67610a11565b5b80604052505050565b6000610a7b610860565b9050610a878282610a40565b919050565b600067ffffffffffffffff821115610aa757610aa6610a11565b5b610ab08261091d565b9050602081019050919050565b82818337600083830152505050565b6000610adf610ada84610a8c565b610a71565b905082815260208101848484011115610afb57610afa610a0c565b5b610b06848285610abd565b509392505050565b600082601f830112610b2357610b22610a07565b5b8135610b33848260208601610acc565b91505092915050565b60008060008060808587031215610b5657610b5561086a565b5b6000610b64878288016109f2565b9450506020610b7587828801610895565b9350506040610b8687828801610895565b925050606085013567ffffffffffffffff811115610ba757610ba661086f565b5b610bb387828801610b0e565b91505092959194509250565b600073ffffffffffffffffffffffffffffffffffffffff82169050919050565b6000610bea82610bbf565b9050919050565b610bfa81610bdf565b82525050565b600060a0820190508181036000830152610c1a818861092e565b9050610c296020830187610971565b610c366040830186610980565b610c436060830185610980565b610c506080830184610bf1565b9695505050505050565b6000602082019050610c6f6000830184610bf1565b92915050565b6000602082019050610c8a6000830184610980565b92915050565b6000819050919050565b6000610cb5610cb0610cab84610bbf565b610c90565b610bbf565b9050919050565b6000610cc782610c9a565b9050919050565b6000610cd982610cbc565b9050919050565b610ce981610cce565b82525050565b6000602082019050610d046000830184610ce0565b92915050565b610d1381610bdf565b8114610d1e57600080fd5b50565b600081359050610d3081610d0a565b92915050565b600060208284031215610d4c57610d4b61086a565b5b6000610d5a84828501610d21565b91505092915050565b7f4e487b7100000000000000000000000000000000000000000000000000000000600052602260045260246000fd5b60006002820490506001821680610daa57607f821691505b602082108103610dbd57610dbc610d63565b5b50919050565b7f4d657461646174612063616e6e6f7420626520656d7074790000000000000000600082015250565b6000610df96018836108e2565b9150610e0482610dc3565b602082019050919050565b60006020820190508181036000830152610e2881610dec565b9050919050565b7f45786365656473206d617820626c6f622073697a650000000000000000000000600082015250565b6000610e656015836108e2565b9150610e7082610e2f565b602082019050919050565b60006020820190508181036000830152610e9481610e58565b9050919050565b6000606082019050610eb06000830186610971565b610ebd6020830185610980565b610eca6040830184610980565b949350505050565b7f4e487b7100000000000000000000000000000000000000000000000000000000600052601160045260246000fd5b6000610f0c82610874565b91507fffffffffffffffffffffffffffffffffffffffffffffffffffffffffffffffff8203610f3e57610f3d610ed2565b5b600182019050919050565b60008190508160005260206000209050919050565b60006020601f8301049050919050565b600082821b905092915050565b600060088302610fab7fffffffffffffffffffffffffffffffffffffffffffffffffffffffffffffffff82610f6e565b610fb58683610f6e565b95508019841693508086168417925050509392505050565b6000610fe8610fe3610fde84610874565b610c90565b610874565b9050919050565b6000819050919050565b61100283610fcd565b61101661100e82610fef565b848454610f7b565b825550505050565b600090565b61102b61101e565b611036818484610ff9565b505050565b5b8181101561105a5761104f600082611023565b60018101905061103c565b5050565b601f82111561109f5761107081610f49565b61107984610f5e565b81016020851015611088578190505b61109c61109485610f5e565b83018261103b565b50505b505050565b600082821c905092915050565b60006110c2600019846008026110a4565b1980831691505092915050565b60006110db83836110b1565b9150826002028217905092915050565b6110f4826108d7565b67ffffffffffffffff81111561110d5761110c610a11565b5b6111178254610d92565b61112282828561105e565b600060209050601f8311600181146111555760008415611143578287015190505b61114d85826110cf565b8655506111b5565b601f19841661116386610f49565b60005b8281101561118b57848901518255600182019150602085019450602081019050611166565b868310156111a857848901516111a4601f8916826110b1565b8355505b6001600288020188555050505b50505050505056fea2646970667358221220f33ea689b733d3c47e35f6446d936812e4fa5e2db11c66a648b80ca68ca80f5764736f6c634300081c0033",
  "linkReferences": {},
  "deployedLinkReferences": {}
}