{
  "_format": "hh-sol-artifact-1",
  "contractName": "StoryIntegration",
  "sourceName": "contracts/StoryIntegration.sol",
  "abi": [
    {
      "inputs": [],
      "stateMutability": "nonpayable",
      "type": "constructor"
    },
    {
      "inputs": [
        {
          "internalType": "address",
          "name": "owner",
          "type": "address"
        }
      ],
      "name": "OwnableInvalidOwner",
      "type": "error"
    },
    {
      "inputs": [
        {
          "internalType": "address",
          "name": "account",
          "type": "address"
        }
      ],
      "name": "OwnableUnauthorizedAccount",
      "type": "error"
    },
    {
      "anonymous": false,
      "inputs": [
        {
          "indexed": true,
          "internalType": "address",
          "name": "owner",
          "type": "address"
        },
        {
          "indexed": false,
          "internalType": "uint256",
          "name": "tokenId",
          "type": "uint256"
        },
        {
          "indexed": false,
          "internalType": "address",
          "name": "ipId",
          "type": "address"
        },
        {
          "indexed": false,
          "internalType": "uint256",
          "name": "licenseTermsId",
          "type": "uint256"
        }
      ],
      "name": "DatasetRegistered",
      "type": "event"
    },
    {
      "anonymous": false,
      "inputs": [
        {
          "indexed": true,
          "internalType": "address",
          "name": "previousOwner",
          "type": "address"
        },
        {
          "indexed": true,
          "internalType": "address",
          "name": "newOwner",
          "type": "address"
        }
      ],
      "name": "OwnershipTransferred",
      "type": "event"
    },
    {
      "inputs": [],
      "name": "owner",
      "outputs": [
        {
          "internalType": "address",
          "name": "",
          "type": "address"
        }
      ],
      "stateMutability": "view",
      "type": "function"
    },
    {
      "inputs": [
        {
          "internalType": "address",
          "name": "datasetNFT",
          "type": "address"
        },
        {
          "internalType": "uint256",
          "name": "tokenId",
          "type": "uint256"
        }
      ],
      "name": "registerDataset",
      "outputs": [
        {
          "internalType": "address",
          "name": "ipId",
          "type": "address"
        },
        {
          "internalType": "uint256",
          "name": "licenseTermsId",
          "type": "uint256"
        }
      ],
      "stateMutability": "nonpayable",
      "type": "function"
    },
    {
      "inputs": [],
      "name": "renounceOwnership",
      "outputs": [],
      "stateMutability": "nonpayable",
      "type": "function"
    },
    {
      "inputs": [
        {
          "internalType": "address",
          "name": "newOwner",
          "type": "address"
        }
      ],
      "name": "transferOwnership",
      "outputs": [],
      "stateMutability": "nonpayable",
      "type": "function"
    }
  ],
  "bytecode": "0x608060405234801561001057600080fd5b50338061003757604051631e4fbdf760e01b81526000600482015260240160405180910390fd5b61004081610046565b50610096565b600080546001600160a01b038381166001600160a01b0319831681178455604051919092169283917f8be0079c531659141344cd1fd0a4f28419497f9722a3daafe3b4186f6b6457e09190a35050565b6103dc806100a56000396000f3fe608060405234801561001057600080fd5b506004361061004c5760003560e01c8063260e794814610051578063715018a6146100885780638da5cb5b14610092578063f2fde38b146100ad575b600080fd5b61006461005f366004610339565b6100c0565b604080516001600160a01b0390931683526020830191909152015b60405180910390f35b610090610255565b005b6000546040516001600160a01b03909116815260200161007f565b6100906100bb366004610365565b610269565b6040516331a9108f60e11b815260048101829052600090819033906001600160a01b03861690636352211e90602401602060405180830381865afa15801561010c573d6000803e3d6000fd5b505050506040513d601f19601f820116820180604052508101906101309190610389565b6001600160a01b03161461018b5760405162461bcd60e51b815260206004820152601c60248201527f596f75206d757374206f776e207468652064617461736574204e46540000000060448201526064015b60405180910390fd5b505060408051606084901b6bffffffffffffffffffffffff19166020808301829052603480840186905284518085039091018152605484018552805190820120607484019290925260888301859052666c6963656e736560c81b60a88401528351608f81850301815260af840180865281519190920120908590526001600160a01b03821660cf84015260ef8301819052925190929133917fd9bf917be08ce89b1b0d673821a321030412bf6707a2272160f4e9fa46b02c319181900361010f0190a29250929050565b61025d6102a7565b61026760006102d4565b565b6102716102a7565b6001600160a01b03811661029b57604051631e4fbdf760e01b815260006004820152602401610182565b6102a4816102d4565b50565b6000546001600160a01b031633146102675760405163118cdaa760e01b8152336004820152602401610182565b600080546001600160a01b038381166001600160a01b0319831681178455604051919092169283917f8be0079c531659141344cd1fd0a4f28419497f9722a3daafe3b4186f6b6457e09190a35050565b6001600160a01b03811681146102a457600080fd5b6000806040838503121561034c57600080fd5b823561035781610324565b946020939093013593505050565b60006020828403121561037757600080fd5b813561038281610324565b9392505050565b60006020828403121561039b57600080fd5b81516103828161032456fea2646970667358221220c0b10c16c7c7da4a4265ef8d4d4983ca0016981090169cfce2fb2210bc84c2fa64736f6c63430008140033",
  "linkReferences": {},
  "deployedLinkReferences": {}
}