{
  "_format": "hh-sol-artifact-1",
  "contractName": "DataMarket",
  "sourceName": "contracts/DataMarket.sol",
  "abi": [
    {
      "inputs": [
        {
          "internalType": "address",
          "name": "_storyIntegration",
          "type": "address"
        }
      ],
      "stateMutability": "nonpayable",
      "type": "constructor"
    },
    {
      "inputs": [
        {
          "internalType": "address",
          "name": "sender",
          "type": "address"
        },
        {
          "internalType": "uint256",
          "name": "tokenId",
          "type": "uint256"
        },
        {
          "internalType": "address",
          "name": "owner",
          "type": "address"
        }
      ],
      "name": "ERC721IncorrectOwner",
      "type": "error"
    },
    {
      "inputs": [
        {
          "internalType": "address",
          "name": "operator",
          "type": "address"
        },
        {
          "internalType": "uint256",
          "name": "tokenId",
          "type": "uint256"
        }
      ],
      "name": "ERC721InsufficientApproval",
      "type": "error"
    },
    {
      "inputs": [
        {
          "internalType": "address",
          "name": "approver",
          "type": "address"
        }
      ],
      "name": "ERC721InvalidApprover",
      "type": "error"
    },
    {
      "inputs": [
        {
          "internalType": "address",
          "name": "operator",
          "type": "address"
        }
      ],
      "name": "ERC721InvalidOperator",
      "type": "error"
    },
    {
      "inputs": [
        {
          "internalType": "address",
          "name": "owner",
          "type": "address"
        }
      ],
      "name": "ERC721InvalidOwner",
      "type": "error"
    },
    {
      "inputs": [
        {
          "internalType": "address",
          "name": "receiver",
          "type": "address"
        }
      ],
      "name": "ERC721InvalidReceiver",
      "type": "error"
    },
    {
      "inputs": [
        {
          "internalType": "address",
          "name": "sender",
          "type": "address"
        }
      ],
      "name": "ERC721InvalidSender",
      "type": "error"
    },
    {
      "inputs": [
        {
          "internalType": "uint256",
          "name": "tokenId",
          "type": "uint256"
        }
      ],
      "name": "ERC721NonexistentToken",
      "type": "error"
    },
    {
      "inputs": [
        {
          "internalType": "address",
          "name": "owner",
          "type": "address"
        }
      ],
      "name": "OwnableInvalidOwner",
      "type": "error"
    },
    {
      "inputs": [
        {
          "internalType": "address",
          "name": "account",
          "type": "address"
        }
      ],
      "name": "OwnableUnauthorizedAccount",
      "type": "error"
    },
    {
      "anonymous": false,
      "inputs": [
        {
          "indexed": true,
          "internalType": "address",
          "name": "owner",
          "type": "address"
        },
        {
          "indexed": true,
          "internalType": "address",
          "name": "approved",
          "type": "address"
        },
        {
          "indexed": true,
          "internalType": "uint256",
          "name": "tokenId",
          "type": "uint256"
        }
      ],
      "name": "Approval",
      "type": "event"
    },
    {
      "anonymous": false,
      "inputs": [
        {
          "indexed": true,
          "internalType": "address",
          "name": "owner",
          "type": "address"
        },
        {
          "indexed": true,
          "internalType": "address",
          "name": "operator",
          "type": "address"
        },
        {
          "indexed": false,
          "internalType": "bool",
          "name": "approved",
          "type": "bool"
        }
      ],
      "name": "ApprovalForAll",
      "type": "event"
    },
    {
      "anonymous": false,
      "inputs": [
        {
          "indexed": false,
          "internalType": "uint256",
          "name": "_fromTokenId",
          "type": "uint256"
        },
        {
          "indexed": false,
          "internalType": "uint256",
          "name": "_toTokenId",
          "type": "uint256"
        }
      ],
      "name": "BatchMetadataUpdate",
      "type": "event"
    },
    {
      "anonymous": false,
      "inputs": [
        {
          "indexed": true,
          "internalType": "uint256",
          "name": "tokenId",
          "type": "uint256"
        },
        {
          "indexed": true,
          "internalType": "address",
          "name": "uploader",
          "type": "address"
        },
        {
          "indexed": false,
          "internalType": "string",
          "name": "metadata",
          "type": "string"
        },
        {
          "indexed": false,
          "internalType": "address",
          "name": "ipId",
          "type": "address"
        }
      ],
      "name": "DatasetUploaded",
      "type": "event"
    },
    {
      "anonymous": false,
      "inputs": [
        {
          "indexed": false,
          "internalType": "uint256",
          "name": "_tokenId",
          "type": "uint256"
        }
      ],
      "name": "MetadataUpdate",
      "type": "event"
    },
    {
      "anonymous": false,
      "inputs": [
        {
          "indexed": true,
          "internalType": "address",
          "name": "previousOwner",
          "type": "address"
        },
        {
          "indexed": true,
          "internalType": "address",
          "name": "newOwner",
          "type": "address"
        }
      ],
      "name": "OwnershipTransferred",
      "type": "event"
    },
    {
      "anonymous": false,
      "inputs": [
        {
          "indexed": true,
          "internalType": "address",
          "name": "from",
          "type": "address"
        },
        {
          "indexed": true,
          "internalType": "address",
          "name": "to",
          "type": "address"
        },
        {
          "indexed": true,
          "internalType": "uint256",
          "name": "tokenId",
          "type": "uint256"
        }
      ],
      "name": "Transfer",
      "type": "event"
    },
    {
      "inputs": [
        {
          "internalType": "address",
          "name": "to",
          "type": "address"
        },
        {
          "internalType": "uint256",
          "name": "tokenId",
          "type": "uint256"
        }
      ],
      "name": "approve",
      "outputs": [],
      "stateMutability": "nonpayable",
      "type": "function"
    },
    {
      "inputs": [
        {
          "internalType": "address",
          "name": "owner",
          "type": "address"
        }
      ],
      "name": "balanceOf",
      "outputs": [
        {
          "internalType": "uint256",
          "name": "",
          "type": "uint256"
        }
      ],
      "stateMutability": "view",
      "type": "function"
    },
    {
      "inputs": [
        {
          "internalType": "uint256",
          "name": "",
          "type": "uint256"
        }
      ],
      "name": "datasets",
      "outputs": [
        {
          "internalType": "string",
          "name": "metadata",
          "type": "string"
        },
        {
          "internalType": "uint256",
          "name": "tokenId",
          "type": "uint256"
        },
        {
          "internalType": "address",
          "name": "uploader",
          "type": "address"
        },
        {
          "internalType": "address",
          "name": "ipId",
          "type": "address"
        },
        {
          "internalType": "uint256",
          "name": "licenseTermsId",
          "type": "uint256"
        }
      ],
      "stateMutability": "view",
      "type": "function"
    },
    {
      "inputs": [
        {
          "internalType": "uint256",
          "name": "tokenId",
          "type": "uint256"
        }
      ],
      "name": "getApproved",
      "outputs": [
        {
          "internalType": "address",
          "name": "",
          "type": "address"
        }
      ],
      "stateMutability": "view",
      "type": "function"
    },
    {
      "inputs": [
        {
          "internalType": "address",
          "name": "owner",
          "type": "address"
        },
        {
          "internalType": "address",
          "name": "operator",
          "type": "address"
        }
      ],
      "name": "isApprovedForAll",
      "outputs": [
        {
          "internalType": "bool",
          "name": "",
          "type": "bool"
        }
      ],
      "stateMutability": "view",
      "type": "function"
    },
    {
      "inputs": [],
      "name": "name",
      "outputs": [
        {
          "internalType": "string",
          "name": "",
          "type": "string"
        }
      ],
      "stateMutability": "view",
      "type": "function"
    },
    {
      "inputs": [],
      "name": "owner",
      "outputs": [
        {
          "internalType": "address",
          "name": "",
          "type": "address"
        }
      ],
      "stateMutability": "view",
      "type": "function"
    },
    {
      "inputs": [
        {
          "internalType": "uint256",
          "name": "tokenId",
          "type": "uint256"
        }
      ],
      "name": "ownerOf",
      "outputs": [
        {
          "internalType": "address",
          "name": "",
          "type": "address"
        }
      ],
      "stateMutability": "view",
      "type": "function"
    },
    {
      "inputs": [],
      "name": "renounceOwnership",
      "outputs": [],
      "stateMutability": "nonpayable",
      "type": "function"
    },
    {
      "inputs": [
        {
          "internalType": "address",
          "name": "from",
          "type": "address"
        },
        {
          "internalType": "address",
          "name": "to",
          "type": "address"
        },
        {
          "internalType": "uint256",
          "name": "tokenId",
          "type": "uint256"
        }
      ],
      "name": "safeTransferFrom",
      "outputs": [],
      "stateMutability": "nonpayable",
      "type": "function"
    },
    {
      "inputs": [
        {
          "internalType": "address",
          "name": "from",
          "type": "address"
        },
        {
          "internalType": "address",
          "name": "to",
          "type": "address"
        },
        {
          "internalType": "uint256",
          "name": "tokenId",
          "type": "uint256"
        },
        {
          "internalType": "bytes",
          "name": "data",
          "type": "bytes"
        }
      ],
      "name": "safeTransferFrom",
      "outputs": [],
      "stateMutability": "nonpayable",
      "type": "function"
    },
    {
      "inputs": [
        {
          "internalType": "address",
          "name": "operator",
          "type": "address"
        },
        {
          "internalType": "bool",
          "name": "approved",
          "type": "bool"
        }
      ],
      "name": "setApprovalForAll",
      "outputs": [],
      "stateMutability": "nonpayable",
      "type": "function"
    },
    {
      "inputs": [],
      "name": "storyIntegration",
      "outputs": [
        {
          "internalType": "contract StoryIntegration",
          "name": "",
          "type": "address"
        }
      ],
      "stateMutability": "view",
      "type": "function"
    },
    {
      "inputs": [
        {
          "internalType": "bytes4",
          "name": "interfaceId",
          "type": "bytes4"
        }
      ],
      "name": "supportsInterface",
      "outputs": [
        {
          "internalType": "bool",
          "name": "",
          "type": "bool"
        }
      ],
      "stateMutability": "view",
      "type": "function"
    },
    {
      "inputs": [],
      "name": "symbol",
      "outputs": [
        {
          "internalType": "string",
          "name": "",
          "type": "string"
        }
      ],
      "stateMutability": "view",
      "type": "function"
    },
    {
      "inputs": [
        {
          "internalType": "uint256",
          "name": "tokenId",
          "type": "uint256"
        }
      ],
      "name": "tokenURI",
      "outputs": [
        {
          "internalType": "string",
          "name": "",
          "type": "string"
        }
      ],
      "stateMutability": "view",
      "type": "function"
    },
    {
      "inputs": [
        {
          "internalType": "address",
          "name": "from",
          "type": "address"
        },
        {
          "internalType": "address",
          "name": "to",
          "type": "address"
        },
        {
          "internalType": "uint256",
          "name": "tokenId",
          "type": "uint256"
        }
      ],
      "name": "transferFrom",
      "outputs": [],
      "stateMutability": "nonpayable",
      "type": "function"
    },
    {
      "inputs": [
        {
          "internalType": "address",
          "name": "newOwner",
          "type": "address"
        }
      ],
      "name": "transferOwnership",
      "outputs": [],
      "stateMutability": "nonpayable",
      "type": "function"
    },
    {
      "inputs": [
        {
          "internalType": "string",
          "name": "metadata",
          "type": "string"
        }
      ],
      "name": "uploadDataset",
      "outputs": [
        {
          "internalType": "uint256",
          "name": "",
          "type": "uint256"
        },
        {
          "internalType": "address",
          "name": "",
          "type": "address"
        },
        {
          "internalType": "uint256",
          "name": "",
          "type": "uint256"
        }
      ],
      "stateMutability": "nonpayable",
      "type": "function"
    }
  ],
  "bytecode": "0x60806040523480156200001157600080fd5b5060405162001a0938038062001a09833981016040819052620000349162000154565b336040518060400160405280601181526020017011185d1854ddd85c9b4811185d185cd95d607a1b8152506040518060400160405280600681526020016544534441544160d01b81525081600090816200008f91906200022b565b5060016200009e82826200022b565b5050506001600160a01b038116620000d057604051631e4fbdf760e01b81526000600482015260240160405180910390fd5b620000db8162000102565b50600980546001600160a01b0319166001600160a01b0392909216919091179055620002f7565b600780546001600160a01b038381166001600160a01b0319831681179093556040519116919082907f8be0079c531659141344cd1fd0a4f28419497f9722a3daafe3b4186f6b6457e090600090a35050565b6000602082840312156200016757600080fd5b81516001600160a01b03811681146200017f57600080fd5b9392505050565b634e487b7160e01b600052604160045260246000fd5b600181811c90821680620001b157607f821691505b602082108103620001d257634e487b7160e01b600052602260045260246000fd5b50919050565b601f8211156200022657600081815260208120601f850160051c81016020861015620002015750805b601f850160051c820191505b8181101562000222578281556001016200020d565b5050505b505050565b81516001600160401b0381111562000247576200024762000186565b6200025f816200025884546200019c565b84620001d8565b602080601f8311600181146200029757600084156200027e5750858301515b600019600386901b1c1916600185901b17855562000222565b600085815260208120601f198616915b82811015620002c857888601518255948401946001909101908401620002a7565b5085821015620002e75787850151600019600388901b60f8161c191681555b5050505050600190811b01905550565b61170280620003076000396000f3fe608060405234801561001057600080fd5b50600436106101215760003560e01c806370a08231116100ad578063a22cb46511610071578063a22cb4651461028b578063b88d4fde1461029e578063c87b56dd146102b1578063e985e9c5146102c4578063f2fde38b146102d757600080fd5b806370a0823114610213578063715018a6146102345780637499d6f61461023c5780638da5cb5b1461027257806395d89b411461028357600080fd5b80631cff85e1116100f45780631cff85e1146101a357806323b872dd146101c757806342842e0e146101da5780636352211e146101ed578063676c702a1461020057600080fd5b806301ffc9a71461012657806306fdde031461014e578063081812fc14610163578063095ea7b31461018e575b600080fd5b610139610134366004611153565b6102ea565b60405190151581526020015b60405180910390f35b610156610315565b60405161014591906111c0565b6101766101713660046111d3565b6103a7565b6040516001600160a01b039091168152602001610145565b6101a161019c366004611201565b6103d0565b005b6101b66101b13660046111d3565b6103df565b60405161014595949392919061122d565b6101a16101d536600461126b565b6104a3565b6101a16101e836600461126b565b610533565b6101766101fb3660046111d3565b610553565b600954610176906001600160a01b031681565b6102266102213660046112ac565b61055e565b604051908152602001610145565b6101a16105a6565b61024f61024a366004611355565b6105ba565b604080519384526001600160a01b03909216602084015290820152606001610145565b6007546001600160a01b0316610176565b610156610754565b6101a161029936600461139e565b610763565b6101a16102ac3660046113dc565b61076e565b6101566102bf3660046111d3565b610786565b6101396102d236600461145c565b610897565b6101a16102e53660046112ac565b6108c5565b60006001600160e01b03198216632483248360e11b148061030f575061030f82610903565b92915050565b6060600080546103249061148a565b80601f01602080910402602001604051908101604052809291908181526020018280546103509061148a565b801561039d5780601f106103725761010080835404028352916020019161039d565b820191906000526020600020905b81548152906001019060200180831161038057829003601f168201915b5050505050905090565b60006103b282610953565b506000828152600460205260409020546001600160a01b031661030f565b6103db82823361098c565b5050565b600a602052600090815260409020805481906103fa9061148a565b80601f01602080910402602001604051908101604052809291908181526020018280546104269061148a565b80156104735780601f1061044857610100808354040283529160200191610473565b820191906000526020600020905b81548152906001019060200180831161045657829003601f168201915b505050600184015460028501546003860154600490960154949591946001600160a01b0391821694509116915085565b6001600160a01b0382166104d257604051633250574960e11b8152600060048201526024015b60405180910390fd5b60006104df838333610999565b9050836001600160a01b0316816001600160a01b03161461052d576040516364283d7b60e01b81526001600160a01b03808616600483015260248201849052821660448201526064016104c9565b50505050565b61054e8383836040518060200160405280600081525061076e565b505050565b600061030f82610953565b60006001600160a01b03821661058a576040516322718ad960e21b8152600060048201526024016104c9565b506001600160a01b031660009081526003602052604090205490565b6105ae610a92565b6105b86000610abf565b565b6008805460009182918291600190836105d383856114c4565b909155506105e390503382610b11565b6105ed8186610b76565b6009546040516304c1cf2960e31b81523060048201526024810183905260009182916001600160a01b039091169063260e79489060440160408051808303816000875af1158015610642573d6000803e3d6000fd5b505050506040513d601f19601f8201168201806040525081019061066691906114e5565b6040805160a0810182528a8152602080820188905233828401526001600160a01b0385166060830152608082018490526000888152600a9091529190912081519395509193509181906106b99082611559565b50602082015160018201556040808301516002830180546001600160a01b039283166001600160a01b031991821617909155606085015160038501805491909316911617905560809092015160049091015551339084907f6088dcb45b62163dc087d158a0be2ff52ff4e6eb30591feefc85ae789003956c9061073f908b908790611619565b60405180910390a39196909550909350915050565b6060600180546103249061148a565b6103db338383610bc6565b6107798484846104a3565b61052d3385858585610c65565b606061079182610953565b50600082815260066020526040812080546107ab9061148a565b80601f01602080910402602001604051908101604052809291908181526020018280546107d79061148a565b80156108245780601f106107f957610100808354040283529160200191610824565b820191906000526020600020905b81548152906001019060200180831161080757829003601f168201915b50505050509050600061084260408051602081019091526000815290565b90508051600003610854575092915050565b81511561088657808260405160200161086e929190611643565b60405160208183030381529060405292505050919050565b61088f84610d90565b949350505050565b6001600160a01b03918216600090815260056020908152604080832093909416825291909152205460ff1690565b6108cd610a92565b6001600160a01b0381166108f757604051631e4fbdf760e01b8152600060048201526024016104c9565b61090081610abf565b50565b60006001600160e01b031982166380ac58cd60e01b148061093457506001600160e01b03198216635b5e139f60e01b145b8061030f57506301ffc9a760e01b6001600160e01b031983161461030f565b6000818152600260205260408120546001600160a01b03168061030f57604051637e27328960e01b8152600481018490526024016104c9565b61054e8383836001610e05565b6000828152600260205260408120546001600160a01b03908116908316156109c6576109c6818486610f0b565b6001600160a01b03811615610a04576109e3600085600080610e05565b6001600160a01b038116600090815260036020526040902080546000190190555b6001600160a01b03851615610a33576001600160a01b0385166000908152600360205260409020805460010190555b60008481526002602052604080822080546001600160a01b0319166001600160a01b0389811691821790925591518793918516917fddf252ad1be2c89b69c2b068fc378daa952ba7f163c4a11628f55a4df523b3ef91a4949350505050565b6007546001600160a01b031633146105b85760405163118cdaa760e01b81523360048201526024016104c9565b600780546001600160a01b038381166001600160a01b0319831681179093556040519116919082907f8be0079c531659141344cd1fd0a4f28419497f9722a3daafe3b4186f6b6457e090600090a35050565b6001600160a01b038216610b3b57604051633250574960e11b8152600060048201526024016104c9565b6000610b4983836000610999565b90506001600160a01b0381161561054e576040516339e3563760e11b8152600060048201526024016104c9565b6000828152600660205260409020610b8e8282611559565b506040518281527ff8e1a15aba9398e019f0b49df1a4fde98ee17ae345cb5f6b5e2c27f5033e8ce79060200160405180910390a15050565b6001600160a01b038216610bf857604051630b61174360e31b81526001600160a01b03831660048201526024016104c9565b6001600160a01b03838116600081815260056020908152604080832094871680845294825291829020805460ff191686151590811790915591519182527f17307eab39ab6107e8899845ad3d59bd9653f200f220920489ca2b5937696c31910160405180910390a3505050565b6001600160a01b0383163b15610d8957604051630a85bd0160e11b81526001600160a01b0384169063150b7a0290610ca7908890889087908790600401611672565b6020604051808303816000875af1925050508015610ce2575060408051601f3d908101601f19168201909252610cdf918101906116af565b60015b610d4b573d808015610d10576040519150601f19603f3d011682016040523d82523d6000602084013e610d15565b606091505b508051600003610d4357604051633250574960e11b81526001600160a01b03851660048201526024016104c9565b805181602001fd5b6001600160e01b03198116630a85bd0160e11b14610d8757604051633250574960e11b81526001600160a01b03851660048201526024016104c9565b505b5050505050565b6060610d9b82610953565b506000610db360408051602081019091526000815290565b90506000815111610dd35760405180602001604052806000815250610dfe565b80610ddd84610f6f565b604051602001610dee929190611643565b6040516020818303038152906040525b9392505050565b8080610e1957506001600160a01b03821615155b15610edb576000610e2984610953565b90506001600160a01b03831615801590610e555750826001600160a01b0316816001600160a01b031614155b8015610e685750610e668184610897565b155b15610e915760405163a9fbf51f60e01b81526001600160a01b03841660048201526024016104c9565b8115610ed95783856001600160a01b0316826001600160a01b03167f8c5be1e5ebec7d5bd14f71427d1e84f3dd0314c0f7b2291e5b200ac8c7c3b92560405160405180910390a45b505b5050600090815260046020526040902080546001600160a01b0319166001600160a01b0392909216919091179055565b610f16838383611002565b61054e576001600160a01b038316610f4457604051637e27328960e01b8152600481018290526024016104c9565b60405163177e802f60e01b81526001600160a01b0383166004820152602481018290526044016104c9565b60606000610f7c83611065565b600101905060008167ffffffffffffffff811115610f9c57610f9c6112c9565b6040519080825280601f01601f191660200182016040528015610fc6576020820181803683370190505b5090508181016020015b600019016f181899199a1a9b1b9c1cb0b131b232b360811b600a86061a8153600a8504945084610fd057509392505050565b60006001600160a01b0383161580159061088f5750826001600160a01b0316846001600160a01b0316148061103c575061103c8484610897565b8061088f5750506000908152600460205260409020546001600160a01b03908116911614919050565b60008072184f03e93ff9f4daa797ed6e38ed64bf6a1f0160401b83106110a45772184f03e93ff9f4daa797ed6e38ed64bf6a1f0160401b830492506040015b6d04ee2d6d415b85acef810000000083106110d0576d04ee2d6d415b85acef8100000000830492506020015b662386f26fc1000083106110ee57662386f26fc10000830492506010015b6305f5e1008310611106576305f5e100830492506008015b612710831061111a57612710830492506004015b6064831061112c576064830492506002015b600a831061030f5760010192915050565b6001600160e01b03198116811461090057600080fd5b60006020828403121561116557600080fd5b8135610dfe8161113d565b60005b8381101561118b578181015183820152602001611173565b50506000910152565b600081518084526111ac816020860160208601611170565b601f01601f19169290920160200192915050565b602081526000610dfe6020830184611194565b6000602082840312156111e557600080fd5b5035919050565b6001600160a01b038116811461090057600080fd5b6000806040838503121561121457600080fd5b823561121f816111ec565b946020939093013593505050565b60a08152600061124060a0830188611194565b6020830196909652506001600160a01b03938416604082015291909216606082015260800152919050565b60008060006060848603121561128057600080fd5b833561128b816111ec565b9250602084013561129b816111ec565b929592945050506040919091013590565b6000602082840312156112be57600080fd5b8135610dfe816111ec565b634e487b7160e01b600052604160045260246000fd5b600067ffffffffffffffff808411156112fa576112fa6112c9565b604051601f8501601f19908116603f01168101908282118183101715611322576113226112c9565b8160405280935085815286868601111561133b57600080fd5b858560208301376000602087830101525050509392505050565b60006020828403121561136757600080fd5b813567ffffffffffffffff81111561137e57600080fd5b8201601f8101841361138f57600080fd5b61088f848235602084016112df565b600080604083850312156113b157600080fd5b82356113bc816111ec565b9150602083013580151581146113d157600080fd5b809150509250929050565b600080600080608085870312156113f257600080fd5b84356113fd816111ec565b9350602085013561140d816111ec565b925060408501359150606085013567ffffffffffffffff81111561143057600080fd5b8501601f8101871361144157600080fd5b611450878235602084016112df565b91505092959194509250565b6000806040838503121561146f57600080fd5b823561147a816111ec565b915060208301356113d1816111ec565b600181811c9082168061149e57607f821691505b6020821081036114be57634e487b7160e01b600052602260045260246000fd5b50919050565b8082018082111561030f57634e487b7160e01b600052601160045260246000fd5b600080604083850312156114f857600080fd5b8251611503816111ec565b6020939093015192949293505050565b601f82111561054e57600081815260208120601f850160051c8101602086101561153a5750805b601f850160051c820191505b81811015610d8757828155600101611546565b815167ffffffffffffffff811115611573576115736112c9565b61158781611581845461148a565b84611513565b602080601f8311600181146115bc57600084156115a45750858301515b600019600386901b1c1916600185901b178555610d87565b600085815260208120601f198616915b828110156115eb578886015182559484019460019091019084016115cc565b50858210156116095787850151600019600388901b60f8161c191681555b5050505050600190811b01905550565b60408152600061162c6040830185611194565b905060018060a01b03831660208301529392505050565b60008351611655818460208801611170565b835190830190611669818360208801611170565b01949350505050565b6001600160a01b03858116825284166020820152604081018390526080606082018190526000906116a590830184611194565b9695505050505050565b6000602082840312156116c157600080fd5b8151610dfe8161113d56fea2646970667358221220dccc9c2804de581e68bdc766da11d602ca6ea3d1e63f8be920a14d9beae70dec64736f6c63430008140033",
  "linkReferences": {},
  "deployedLinkReferences": {}
}