{
  "_format": "hh-sol-artifact-1",
  "contractName": "DataMarket",
  "sourceName": "contracts/DataMarket.sol",
  "abi": [
    {
      "inputs": [
        {
          "internalType": "address",
          "name": "_ethStorage",
          "type": "address"
        }
      ],
      "stateMutability": "nonpayable",
      "type": "constructor"
    },
    {
      "inputs": [
        {
          "internalType": "address",
          "name": "owner",
          "type": "address"
        }
      ],
      "name": "OwnableInvalidOwner",
      "type": "error"
    },
    {
      "inputs": [
        {
          "internalType": "address",
          "name": "account",
          "type": "address"
        }
      ],
      "name": "OwnableUnauthorizedAccount",
      "type": "error"
    },
    {
      "anonymous": false,
      "inputs": [
        {
          "indexed": true,
          "internalType": "uint256",
          "name": "dataId",
          "type": "uint256"
        },
        {
          "indexed": false,
          "internalType": "string",
          "name": "ethStorageHash",
          "type": "string"
        },
        {
          "indexed": false,
          "internalType": "string",
          "name": "metadata",
          "type": "string"
        },
        {
          "indexed": true,
          "internalType": "address",
          "name": "uploader",
          "type": "address"
        }
      ],
      "name": "DataUploaded",
      "type": "event"
    },
    {
      "anonymous": false,
      "inputs": [
        {
          "indexed": true,
          "internalType": "address",
          "name": "previousOwner",
          "type": "address"
        },
        {
          "indexed": true,
          "internalType": "address",
          "name": "newOwner",
          "type": "address"
        }
      ],
      "name": "OwnershipTransferred",
      "type": "event"
    },
    {
      "inputs": [
        {
          "internalType": "uint256",
          "name": "",
          "type": "uint256"
        }
      ],
      "name": "dataEntries",
      "outputs": [
        {
          "internalType": "string",
          "name": "metadata",
          "type": "string"
        },
        {
          "internalType": "string",
          "name": "ethStorageHash",
          "type": "string"
        },
        {
          "internalType": "address",
          "name": "uploader",
          "type": "address"
        }
      ],
      "stateMutability": "view",
      "type": "function"
    },
    {
      "inputs": [],
      "name": "ethStorage",
      "outputs": [
        {
          "internalType": "contract IEthStorage",
          "name": "",
          "type": "address"
        }
      ],
      "stateMutability": "view",
      "type": "function"
    },
    {
      "inputs": [
        {
          "internalType": "uint256",
          "name": "dataId",
          "type": "uint256"
        }
      ],
      "name": "getData",
      "outputs": [
        {
          "internalType": "string",
          "name": "metadata",
          "type": "string"
        },
        {
          "internalType": "string",
          "name": "ethStorageHash",
          "type": "string"
        }
      ],
      "stateMutability": "view",
      "type": "function"
    },
    {
      "inputs": [],
      "name": "owner",
      "outputs": [
        {
          "internalType": "address",
          "name": "",
          "type": "address"
        }
      ],
      "stateMutability": "view",
      "type": "function"
    },
    {
      "inputs": [],
      "name": "renounceOwnership",
      "outputs": [],
      "stateMutability": "nonpayable",
      "type": "function"
    },
    {
      "inputs": [
        {
          "internalType": "address",
          "name": "newOwner",
          "type": "address"
        }
      ],
      "name": "transferOwnership",
      "outputs": [],
      "stateMutability": "nonpayable",
      "type": "function"
    },
    {
      "inputs": [
        {
          "internalType": "bytes",
          "name": "data",
          "type": "bytes"
        },
        {
          "internalType": "string",
          "name": "metadata",
          "type": "string"
        }
      ],
      "name": "uploadData",
      "outputs": [],
      "stateMutability": "nonpayable",
      "type": "function"
    }
  ],
  "bytecode": "0x608060405234801561001057600080fd5b5060405161161c38038061161c83398181016040528101906100329190610292565b33600073ffffffffffffffffffffffffffffffffffffffff168173ffffffffffffffffffffffffffffffffffffffff16036100a55760006040517f1e4fbdf700000000000000000000000000000000000000000000000000000000815260040161009c91906102ce565b60405180910390fd5b6100b48161016b60201b60201c565b50600073ffffffffffffffffffffffffffffffffffffffff168173ffffffffffffffffffffffffffffffffffffffff1603610124576040517f08c379a000000000000000000000000000000000000000000000000000000000815260040161011b90610346565b60405180910390fd5b80600260006101000a81548173ffffffffffffffffffffffffffffffffffffffff021916908373ffffffffffffffffffffffffffffffffffffffff16021790555050610366565b60008060009054906101000a900473ffffffffffffffffffffffffffffffffffffffff169050816000806101000a81548173ffffffffffffffffffffffffffffffffffffffff021916908373ffffffffffffffffffffffffffffffffffffffff1602179055508173ffffffffffffffffffffffffffffffffffffffff168173ffffffffffffffffffffffffffffffffffffffff167f8be0079c531659141344cd1fd0a4f28419497f9722a3daafe3b4186f6b6457e060405160405180910390a35050565b600080fd5b600073ffffffffffffffffffffffffffffffffffffffff82169050919050565b600061025f82610234565b9050919050565b61026f81610254565b811461027a57600080fd5b50565b60008151905061028c81610266565b92915050565b6000602082840312156102a8576102a761022f565b5b60006102b68482850161027d565b91505092915050565b6102c881610254565b82525050565b60006020820190506102e360008301846102bf565b92915050565b600082825260208201905092915050565b7f496e76616c69642045746853746f726167652061646472657373000000000000600082015250565b6000610330601a836102e9565b915061033b826102fa565b602082019050919050565b6000602082019050818103600083015261035f81610323565b9050919050565b6112a7806103756000396000f3fe608060405234801561001057600080fd5b506004361061007d5760003560e01c80637c2660581161005b5780637c266058146100ef5780638da5cb5b1461010b578063d861111614610129578063f2fde38b146101475761007d565b80630178fe3f14610082578063325f4658146100b3578063715018a6146100e5575b600080fd5b61009c6004803603810190610097919061093a565b610163565b6040516100aa9291906109f7565b60405180910390f35b6100cd60048036038101906100c8919061093a565b610316565b6040516100dc93929190610a6f565b60405180910390f35b6100ed610470565b005b61010960048036038101906101049190610c49565b610484565b005b61011361069b565b6040516101209190610cc5565b60405180910390f35b6101316106c4565b60405161013e9190610d3f565b60405180910390f35b610161600480360381019061015c9190610d86565b6106ea565b005b60608060006003600085815260200190815260200160002060405180606001604052908160008201805461019690610de2565b80601f01602080910402602001604051908101604052809291908181526020018280546101c290610de2565b801561020f5780601f106101e45761010080835404028352916020019161020f565b820191906000526020600020905b8154815290600101906020018083116101f257829003601f168201915b5050505050815260200160018201805461022890610de2565b80601f016020809104026020016040519081016040528092919081815260200182805461025490610de2565b80156102a15780601f10610276576101008083540402835291602001916102a1565b820191906000526020600020905b81548152906001019060200180831161028457829003601f168201915b505050505081526020016002820160009054906101000a900473ffffffffffffffffffffffffffffffffffffffff1673ffffffffffffffffffffffffffffffffffffffff1673ffffffffffffffffffffffffffffffffffffffff16815250509050806000015181602001519250925050915091565b600360205280600052604060002060009150905080600001805461033990610de2565b80601f016020809104026020016040519081016040528092919081815260200182805461036590610de2565b80156103b25780601f10610387576101008083540402835291602001916103b2565b820191906000526020600020905b81548152906001019060200180831161039557829003601f168201915b5050505050908060010180546103c790610de2565b80601f01602080910402602001604051908101604052809291908181526020018280546103f390610de2565b80156104405780601f1061041557610100808354040283529160200191610440565b820191906000526020600020905b81548152906001019060200180831161042357829003601f168201915b5050505050908060020160009054906101000a900473ffffffffffffffffffffffffffffffffffffffff16905083565b610478610770565b61048260006107f7565b565b60008151116104c8576040517f08c379a00000000000000000000000000000000000000000000000000000000081526004016104bf90610e5f565b60405180910390fd5b6000600260009054906101000a900473ffffffffffffffffffffffffffffffffffffffff1673ffffffffffffffffffffffffffffffffffffffff1663ac5c853585856040518363ffffffff1660e01b8152600401610527929190610ebd565b6000604051808303816000875af1158015610546573d6000803e3d6000fd5b505050506040513d6000823e3d601f19601f8201168201806040525081019061056f9190610f51565b9050600061057d60016108bb565b905061058960016108c9565b60405180606001604052808481526020018381526020013373ffffffffffffffffffffffffffffffffffffffff168152506003600083815260200190815260200160002060008201518160000190816105e2919061113c565b5060208201518160010190816105f8919061113c565b5060408201518160020160006101000a81548173ffffffffffffffffffffffffffffffffffffffff021916908373ffffffffffffffffffffffffffffffffffffffff1602179055509050503373ffffffffffffffffffffffffffffffffffffffff16817f4b3391d2f27032805b412fc24457aaf53abc5a8642f72e7735e2c80bca050c69848660405161068c9291906109f7565b60405180910390a35050505050565b60008060009054906101000a900473ffffffffffffffffffffffffffffffffffffffff16905090565b600260009054906101000a900473ffffffffffffffffffffffffffffffffffffffff1681565b6106f2610770565b600073ffffffffffffffffffffffffffffffffffffffff168173ffffffffffffffffffffffffffffffffffffffff16036107645760006040517f1e4fbdf700000000000000000000000000000000000000000000000000000000815260040161075b9190610cc5565b60405180910390fd5b61076d816107f7565b50565b6107786108e8565b73ffffffffffffffffffffffffffffffffffffffff1661079661069b565b73ffffffffffffffffffffffffffffffffffffffff16146107f5576107b96108e8565b6040517f118cdaa70000000000000000000000000000000000000000000000000000000081526004016107ec9190610cc5565b60405180910390fd5b565b60008060009054906101000a900473ffffffffffffffffffffffffffffffffffffffff169050816000806101000a81548173ffffffffffffffffffffffffffffffffffffffff021916908373ffffffffffffffffffffffffffffffffffffffff1602179055508173ffffffffffffffffffffffffffffffffffffffff168173ffffffffffffffffffffffffffffffffffffffff167f8be0079c531659141344cd1fd0a4f28419497f9722a3daafe3b4186f6b6457e060405160405180910390a35050565b600081600001549050919050565b60018160000160008282546108de919061123d565b9250508190555050565b600033905090565b6000604051905090565b600080fd5b600080fd5b6000819050919050565b61091781610904565b811461092257600080fd5b50565b6000813590506109348161090e565b92915050565b6000602082840312156109505761094f6108fa565b5b600061095e84828501610925565b91505092915050565b600081519050919050565b600082825260208201905092915050565b60005b838110156109a1578082015181840152602081019050610986565b60008484015250505050565b6000601f19601f8301169050919050565b60006109c982610967565b6109d38185610972565b93506109e3818560208601610983565b6109ec816109ad565b840191505092915050565b60006040820190508181036000830152610a1181856109be565b90508181036020830152610a2581846109be565b90509392505050565b600073ffffffffffffffffffffffffffffffffffffffff82169050919050565b6000610a5982610a2e565b9050919050565b610a6981610a4e565b82525050565b60006060820190508181036000830152610a8981866109be565b90508181036020830152610a9d81856109be565b9050610aac6040830184610a60565b949350505050565b600080fd5b600080fd5b600080fd5b60008083601f840112610ad957610ad8610ab4565b5b8235905067ffffffffffffffff811115610af657610af5610ab9565b5b602083019150836001820283011115610b1257610b11610abe565b5b9250929050565b600080fd5b7f4e487b7100000000000000000000000000000000000000000000000000000000600052604160045260246000fd5b610b56826109ad565b810181811067ffffffffffffffff82111715610b7557610b74610b1e565b5b80604052505050565b6000610b886108f0565b9050610b948282610b4d565b919050565b600067ffffffffffffffff821115610bb457610bb3610b1e565b5b610bbd826109ad565b9050602081019050919050565b82818337600083830152505050565b6000610bec610be784610b99565b610b7e565b905082815260208101848484011115610c0857610c07610b19565b5b610c13848285610bca565b509392505050565b600082601f830112610c3057610c2f610ab4565b5b8135610c40848260208601610bd9565b91505092915050565b600080600060408486031215610c6257610c616108fa565b5b600084013567ffffffffffffffff811115610c8057610c7f6108ff565b5b610c8c86828701610ac3565b9350935050602084013567ffffffffffffffff811115610caf57610cae6108ff565b5b610cbb86828701610c1b565b9150509250925092565b6000602082019050610cda6000830184610a60565b92915050565b6000819050919050565b6000610d05610d00610cfb84610a2e565b610ce0565b610a2e565b9050919050565b6000610d1782610cea565b9050919050565b6000610d2982610d0c565b9050919050565b610d3981610d1e565b82525050565b6000602082019050610d546000830184610d30565b92915050565b610d6381610a4e565b8114610d6e57600080fd5b50565b600081359050610d8081610d5a565b92915050565b600060208284031215610d9c57610d9b6108fa565b5b6000610daa84828501610d71565b91505092915050565b7f4e487b7100000000000000000000000000000000000000000000000000000000600052602260045260246000fd5b60006002820490506001821680610dfa57607f821691505b602082108103610e0d57610e0c610db3565b5b50919050565b7f4d657461646174612063616e6e6f7420626520656d7074790000000000000000600082015250565b6000610e49601883610972565b9150610e5482610e13565b602082019050919050565b60006020820190508181036000830152610e7881610e3c565b9050919050565b600082825260208201905092915050565b6000610e9c8385610e7f565b9350610ea9838584610bca565b610eb2836109ad565b840190509392505050565b60006020820190508181036000830152610ed8818486610e90565b90509392505050565b6000610ef4610eef84610b99565b610b7e565b905082815260208101848484011115610f1057610f0f610b19565b5b610f1b848285610983565b509392505050565b600082601f830112610f3857610f37610ab4565b5b8151610f48848260208601610ee1565b91505092915050565b600060208284031215610f6757610f666108fa565b5b600082015167ffffffffffffffff811115610f8557610f846108ff565b5b610f9184828501610f23565b91505092915050565b60008190508160005260206000209050919050565b60006020601f8301049050919050565b600082821b905092915050565b600060088302610ffc7fffffffffffffffffffffffffffffffffffffffffffffffffffffffffffffffff82610fbf565b6110068683610fbf565b95508019841693508086168417925050509392505050565b600061103961103461102f84610904565b610ce0565b610904565b9050919050565b6000819050919050565b6110538361101e565b61106761105f82611040565b848454610fcc565b825550505050565b600090565b61107c61106f565b61108781848461104a565b505050565b5b818110156110ab576110a0600082611074565b60018101905061108d565b5050565b601f8211156110f0576110c181610f9a565b6110ca84610faf565b810160208510156110d9578190505b6110ed6110e585610faf565b83018261108c565b50505b505050565b600082821c905092915050565b6000611113600019846008026110f5565b1980831691505092915050565b600061112c8383611102565b9150826002028217905092915050565b61114582610967565b67ffffffffffffffff81111561115e5761115d610b1e565b5b6111688254610de2565b6111738282856110af565b600060209050601f8311600181146111a65760008415611194578287015190505b61119e8582611120565b865550611206565b601f1984166111b486610f9a565b60005b828110156111dc578489015182556001820191506020850194506020810190506111b7565b868310156111f957848901516111f5601f891682611102565b8355505b6001600288020188555050505b505050505050565b7f4e487b7100000000000000000000000000000000000000000000000000000000600052601160045260246000fd5b600061124882610904565b915061125383610904565b925082820190508082111561126b5761126a61120e565b5b9291505056fea26469706673582212206ac88101dc9f7663ba7eef3679d7e1aa00aa7d4f92d5317c897c3ee82fa1c3b664736f6c634300081c0033",
  "linkReferences": {},
  "deployedLinkReferences": {}
}