{"abi":[{"type":"constructor","inputs":[{"name":"_ccip","type":"address","internalType":"address"},{"name":"_dataMarket","type":"address","internalType":"address"}],"stateMutability":"nonpayable"},{"type":"function","name":"chainlinkCCIP","inputs":[],"outputs":[{"name":"","type":"address","internalType":"contract IChainlinkCCIP"}],"stateMutability":"view"},{"type":"function","name":"dataMarket","inputs":[],"outputs":[{"name":"","type":"address","internalType":"address"}],"stateMutability":"view"},{"type":"function","name":"fetchData","inputs":[{"name":"requestParams","type":"bytes","internalType":"bytes"}],"outputs":[],"stateMutability":"nonpayable"},{"type":"event","name":"DataReceived","inputs":[{"name":"data","type":"bytes","indexed":false,"internalType":"bytes"}],"anonymous":false}],"bytecode":{"object":"0x608060405234801561000f575f80fd5b506040516104c03803806104c083398101604081905261002e91610079565b5f80546001600160a01b039384166001600160a01b031991821617909155600180549290931691161790556100aa565b80516001600160a01b0381168114610074575f80fd5b919050565b5f806040838503121561008a575f80fd5b6100938361005e565b91506100a16020840161005e565b90509250929050565b610409806100b75f395ff3fe608060405234801561000f575f80fd5b506004361061003f575f3560e01c8063730b2f6a146100435780638a343f0b14610058578063f894f57c146100a0575b5f80fd5b6100566100513660046101b6565b6100c0565b005b5f546100779073ffffffffffffffffffffffffffffffffffffffff1681565b60405173ffffffffffffffffffffffffffffffffffffffff909116815260200160405180910390f35b6001546100779073ffffffffffffffffffffffffffffffffffffffff1681565b5f80546040517f44dc8e4000000000000000000000000000000000000000000000000000000000815273ffffffffffffffffffffffffffffffffffffffff909116906344dc8e40906101189086908690600401610222565b5f604051808303815f875af1158015610133573d5f803e3d5ffd5b505050506040513d5f823e601f3d9081017fffffffffffffffffffffffffffffffffffffffffffffffffffffffffffffffe016820160405261017891908101906102bd565b90507fc0629c5930c116f6e8c1eed6df81fc90be33cc9a751b2188394105dea097b024816040516101a99190610383565b60405180910390a1505050565b5f80602083850312156101c7575f80fd5b823567ffffffffffffffff808211156101de575f80fd5b818501915085601f8301126101f1575f80fd5b8135818111156101ff575f80fd5b866020828501011115610210575f80fd5b60209290920196919550909350505050565b60208152816020820152818360408301375f818301604090810191909152601f9092017fffffffffffffffffffffffffffffffffffffffffffffffffffffffffffffffe0160101919050565b7f4e487b71000000000000000000000000000000000000000000000000000000005f52604160045260245ffd5b5f5b838110156102b557818101518382015260200161029d565b50505f910152565b5f602082840312156102cd575f80fd5b815167ffffffffffffffff808211156102e4575f80fd5b818401915084601f8301126102f7575f80fd5b8151818111156103095761030961026e565b604051601f82017fffffffffffffffffffffffffffffffffffffffffffffffffffffffffffffffe0908116603f0116810190838211818310171561034f5761034f61026e565b81604052828152876020848701011115610367575f80fd5b61037883602083016020880161029b565b979650505050505050565b602081525f82518060208401526103a181604085016020870161029b565b601f017fffffffffffffffffffffffffffffffffffffffffffffffffffffffffffffffe016919091016040019291505056fea2646970667358221220bc96b1ecde6de48dea45d1a7d961f024631e80645b51a0e52698ea27d70b277164736f6c63430008140033","linkReferences":{}},"methodIdentifiers":{"chainlinkCCIP()":"8a343f0b","dataMarket()":"f894f57c","fetchData(bytes)":"730b2f6a"},"id":2}