{
  "_format": "hh-sol-artifact-1",
  "contractName": "MockSilo",
  "sourceName": "contracts/mocks/MockSilo.sol",
  "abi": [
    {
      "inputs": [
        {
          "internalType": "address",
          "name": "user",
          "type": "address"
        }
      ],
      "name": "getStakingBoost",
      "outputs": [
        {
          "internalType": "uint256",
          "name": "",
          "type": "uint256"
        }
      ],
      "stateMutability": "view",
      "type": "function"
    },
    {
      "inputs": [
        {
          "internalType": "address",
          "name": "user",
          "type": "address"
        }
      ],
      "name": "getStakingInfo",
      "outputs": [
        {
          "internalType": "uint256",
          "name": "",
          "type": "uint256"
        },
        {
          "internalType": "uint256",
          "name": "",
          "type": "uint256"
        }
      ],
      "stateMutability": "view",
      "type": "function"
    },
    {
      "inputs": [
        {
          "internalType": "address",
          "name": "user",
          "type": "address"
        },
        {
          "internalType": "uint256",
          "name": "boost",
          "type": "uint256"
        }
      ],
      "name": "setStakingBoost",
      "outputs": [],
      "stateMutability": "nonpayable",
      "type": "function"
    },
    {
      "inputs": [
        {
          "internalType": "address",
          "name": "",
          "type": "address"
        }
      ],
      "name": "stakedAmount",
      "outputs": [
        {
          "internalType": "uint256",
          "name": "",
          "type": "uint256"
        }
      ],
      "stateMutability": "view",
      "type": "function"
    },
    {
      "inputs": [
        {
          "internalType": "address",
          "name": "",
          "type": "address"
        }
      ],
      "name": "stakingBoost",
      "outputs": [
        {
          "internalType": "uint256",
          "name": "",
          "type": "uint256"
        }
      ],
      "stateMutability": "view",
      "type": "function"
    },
    {
      "inputs": [
        {
          "internalType": "address",
          "name": "user",
          "type": "address"
        },
        {
          "internalType": "uint256",
          "name": "amount",
          "type": "uint256"
        },
        {
          "internalType": "uint256",
          "name": "boost",
          "type": "uint256"
        }
      ],
      "name": "updateStakingInfo",
      "outputs": [],
      "stateMutability": "nonpayable",
      "type": "function"
    }
  ],
  "bytecode": "0x608060405234801561001057600080fd5b5061028b806100206000396000f3fe608060405234801561001057600080fd5b50600436106100625760003560e01c8063115b45d2146100675780634edaba6b1461008d578063866f604d146100c3578063aa4704f3146100ed578063f93b4d4514610136578063f993185514610156575b600080fd5b61007a6100753660046101d6565b610176565b6040519081526020015b60405180910390f35b6100c161009b3660046101f8565b6001600160a01b0390921660009081526020818152604080832093909355600190522055565b005b6100c16100d136600461022b565b6001600160a01b03909116600090815260016020526040902055565b6101216100fb3660046101d6565b6001600160a01b0316600090815260208181526040808320546001909252909120549091565b60408051928352602083019190915201610084565b61007a6101443660046101d6565b60016020526000908152604090205481565b61007a6101643660046101d6565b60006020819052908152604090205481565b6001600160a01b03811660009081526001602052604081205461019a5760646101b4565b6001600160a01b0382166000908152600160205260409020545b92915050565b80356001600160a01b03811681146101d157600080fd5b919050565b6000602082840312156101e857600080fd5b6101f1826101ba565b9392505050565b60008060006060848603121561020d57600080fd5b610216846101ba565b95602085013595506040909401359392505050565b6000806040838503121561023e57600080fd5b610247836101ba565b94602093909301359350505056fea2646970667358221220c3dd8adb2baac5f0637856827eb00f58ef7603ea58e1020fa0cf2d5da522c16d64736f6c63430008140033",
  "linkReferences": {},
  "deployedLinkReferences": {}
}