{"abi":[{"type":"function","name":"distributeRewards","inputs":[{"name":"developer","type":"address","internalType":"address"},{"name":"dataProvider","type":"address","internalType":"address"},{"name":"baseReward","type":"uint256","internalType":"uint256"}],"outputs":[],"stateMutability":"nonpayable"},{"type":"event","name":"RewardsDistributed","inputs":[{"name":"developer","type":"address","indexed":false,"internalType":"address"},{"name":"dataProvider","type":"address","indexed":false,"internalType":"address"},{"name":"baseReward","type":"uint256","indexed":false,"internalType":"uint256"}],"anonymous":false}],"bytecode":{"object":"0x608060405234801561000f575f80fd5b506101298061001d5f395ff3fe6080604052348015600e575f80fd5b50600436106026575f3560e01c8063a70631a014602a575b5f80fd5b6039603536600460bf565b603b565b005b6040805173ffffffffffffffffffffffffffffffffffffffff8086168252841660208201529081018290527f92d8e67e11e35152e7b525077fc4cf66393423d128ce3b803453b22533c576419060600160405180910390a1505050565b803573ffffffffffffffffffffffffffffffffffffffff8116811460ba575f80fd5b919050565b5f805f6060848603121560d0575f80fd5b60d7846098565b925060e3602085016098565b915060408401359050925092509256fea2646970667358221220b0d81fba44b70b2ef6e74299e3a287257793e7e68d2f80577d29c4a2ad3d26c064736f6c63430008140033","linkReferences":{}},"methodIdentifiers":{"distributeRewards(address,address,uint256)":"a70631a0"},"id":12}