{
  "_format": "hh-sol-artifact-1",
  "contractName": "DummyZKVerifier",
  "sourceName": "contracts/DummyZKVerifier.sol",
  "abi": [
    {
      "inputs": [
        {
          "internalType": "bytes",
          "name": "",
          "type": "bytes"
        },
        {
          "internalType": "uint256",
          "name": "roi",
          "type": "uint256"
        }
      ],
      "name": "verifyProof",
      "outputs": [
        {
          "internalType": "bool",
          "name": "",
          "type": "bool"
        }
      ],
      "stateMutability": "pure",
      "type": "function"
    }
  ],
  "bytecode": "0x6080604052348015600f57600080fd5b506101df8061001f6000396000f3fe608060405234801561001057600080fd5b506004361061002b5760003560e01c806361c6ceef14610030575b600080fd5b61004a60048036038101906100459190610113565b610060565b604051610057919061018e565b60405180910390f35b600080821190509392505050565b600080fd5b600080fd5b600080fd5b600080fd5b600080fd5b60008083601f84011261009d5761009c610078565b5b8235905067ffffffffffffffff8111156100ba576100b961007d565b5b6020830191508360018202830111156100d6576100d5610082565b5b9250929050565b6000819050919050565b6100f0816100dd565b81146100fb57600080fd5b50565b60008135905061010d816100e7565b92915050565b60008060006040848603121561012c5761012b61006e565b5b600084013567ffffffffffffffff81111561014a57610149610073565b5b61015686828701610087565b93509350506020610169868287016100fe565b9150509250925092565b60008115159050919050565b61018881610173565b82525050565b60006020820190506101a3600083018461017f565b9291505056fea2646970667358221220a419488ea4a42978631103f3dd63c30cbc521c4bf4367997a2e05dabb645237464736f6c634300081c0033",
  "linkReferences": {},
  "deployedLinkReferences": {}
}