{"abi":[{"type":"function","name":"getAIModelPerformance","inputs":[{"name":"tokenId","type":"uint256","internalType":"uint256"}],"outputs":[{"name":"","type":"uint256","internalType":"uint256"}],"stateMutability":"view"},{"type":"function","name":"setPerformance","inputs":[{"name":"tokenId","type":"uint256","internalType":"uint256"},{"name":"score","type":"uint256","internalType":"uint256"}],"outputs":[],"stateMutability":"nonpayable"}],"bytecode":{"object":"0x608060405234801561000f575f80fd5b5060eb8061001c5f395ff3fe6080604052348015600e575f80fd5b50600436106030575f3560e01c80633a1b45791460345780637fba3d0a146052575b5f80fd5b6050603f3660046080565b5f9182526020829052604090912055565b005b606e605d366004609f565b5f9081526020819052604090205490565b60405190815260200160405180910390f35b5f80604083850312156090575f80fd5b50508035926020909101359150565b5f6020828403121560ae575f80fd5b503591905056fea264697066735822122072b6d25073875906864c8926ee024488417730cfacc7664b0aa3fd317df3b21c64736f6c63430008140033","linkReferences":{}},"methodIdentifiers":{"getAIModelPerformance(uint256)":"7fba3d0a","setPerformance(uint256,uint256)":"3a1b4579"},"id":13}