{
  "_format": "hh-sol-artifact-1",
  "contractName": "MockZKVerifier",
  "sourceName": "contracts/mocks/MockZKVerifier.sol",
  "abi": [
    {
      "inputs": [
        {
          "internalType": "bool",
          "name": "_willVerify",
          "type": "bool"
        }
      ],
      "name": "setWillVerify",
      "outputs": [],
      "stateMutability": "nonpayable",
      "type": "function"
    },
    {
      "inputs": [
        {
          "internalType": "bytes32",
          "name": "proof",
          "type": "bytes32"
        }
      ],
      "name": "verify",
      "outputs": [
        {
          "internalType": "bool",
          "name": "",
          "type": "bool"
        }
      ],
      "stateMutability": "view",
      "type": "function"
    }
  ],
  "bytecode": "0x608060405234801561001057600080fd5b5060f58061001f6000396000f3fe6080604052348015600f57600080fd5b506004361060325760003560e01c806310cb32ee14603757806375e36616146057575b600080fd5b605560423660046080565b6000805460ff1916911515919091179055565b005b606c606236600460a7565b5060005460ff1690565b604051901515815260200160405180910390f35b600060208284031215609157600080fd5b8135801515811460a057600080fd5b9392505050565b60006020828403121560b857600080fd5b503591905056fea264697066735822122090de6c2ee4475a830a11f90371b5e32197c5df209bd7d36f67332623029bf7a664736f6c63430008140033",
  "linkReferences": {},
  "deployedLinkReferences": {}
}