{
  "_format": "hh-sol-artifact-1",
  "contractName": "CrossChainData",
  "sourceName": "contracts/CrossChainData.sol",
  "abi": [
    {
      "inputs": [
        {
          "internalType": "address",
          "name": "_ccip",
          "type": "address"
        },
        {
          "internalType": "address",
          "name": "_dataMarket",
          "type": "address"
        }
      ],
      "stateMutability": "nonpayable",
      "type": "constructor"
    },
    {
      "anonymous": false,
      "inputs": [
        {
          "indexed": false,
          "internalType": "bytes",
          "name": "data",
          "type": "bytes"
        }
      ],
      "name": "DataReceived",
      "type": "event"
    },
    {
      "inputs": [],
      "name": "chainlinkCCIP",
      "outputs": [
        {
          "internalType": "contract IChainlinkCCIP",
          "name": "",
          "type": "address"
        }
      ],
      "stateMutability": "view",
      "type": "function"
    },
    {
      "inputs": [],
      "name": "dataMarket",
      "outputs": [
        {
          "internalType": "address",
          "name": "",
          "type": "address"
        }
      ],
      "stateMutability": "view",
      "type": "function"
    },
    {
      "inputs": [
        {
          "internalType": "bytes",
          "name": "requestParams",
          "type": "bytes"
        }
      ],
      "name": "fetchData",
      "outputs": [],
      "stateMutability": "nonpayable",
      "type": "function"
    }
  ],
  "bytecode": "0x608060405234801561001057600080fd5b506040516107863803806107868339818101604052810190610032919061011d565b816000806101000a81548173ffffffffffffffffffffffffffffffffffffffff021916908373ffffffffffffffffffffffffffffffffffffffff16021790555080600160006101000a81548173ffffffffffffffffffffffffffffffffffffffff021916908373ffffffffffffffffffffffffffffffffffffffff160217905550505061015d565b600080fd5b600073ffffffffffffffffffffffffffffffffffffffff82169050919050565b60006100ea826100bf565b9050919050565b6100fa816100df565b811461010557600080fd5b50565b600081519050610117816100f1565b92915050565b60008060408385031215610134576101336100ba565b5b600061014285828601610108565b925050602061015385828601610108565b9150509250929050565b61061a8061016c6000396000f3fe608060405234801561001057600080fd5b50600436106100415760003560e01c8063730b2f6a146100465780638a343f0b14610062578063f894f57c14610080575b600080fd5b610060600480360381019061005b9190610245565b61009e565b005b61006a610182565b6040516100779190610311565b60405180910390f35b6100886101a6565b604051610095919061034d565b60405180910390f35b60008060009054906101000a900473ffffffffffffffffffffffffffffffffffffffff1673ffffffffffffffffffffffffffffffffffffffff166344dc8e4084846040518363ffffffff1660e01b81526004016100fc9291906103c6565b6000604051808303816000875af115801561011b573d6000803e3d6000fd5b505050506040513d6000823e3d601f19601f820116820180604052508101906101449190610535565b90507fc0629c5930c116f6e8c1eed6df81fc90be33cc9a751b2188394105dea097b0248160405161017591906105c2565b60405180910390a1505050565b60008054906101000a900473ffffffffffffffffffffffffffffffffffffffff1681565b600160009054906101000a900473ffffffffffffffffffffffffffffffffffffffff1681565b6000604051905090565b600080fd5b600080fd5b600080fd5b600080fd5b600080fd5b60008083601f840112610205576102046101e0565b5b8235905067ffffffffffffffff811115610222576102216101e5565b5b60208301915083600182028301111561023e5761023d6101ea565b5b9250929050565b6000806020838503121561025c5761025b6101d6565b5b600083013567ffffffffffffffff81111561027a576102796101db565b5b610286858286016101ef565b92509250509250929050565b600073ffffffffffffffffffffffffffffffffffffffff82169050919050565b6000819050919050565b60006102d76102d26102cd84610292565b6102b2565b610292565b9050919050565b60006102e9826102bc565b9050919050565b60006102fb826102de565b9050919050565b61030b816102f0565b82525050565b60006020820190506103266000830184610302565b92915050565b600061033782610292565b9050919050565b6103478161032c565b82525050565b6000602082019050610362600083018461033e565b92915050565b600082825260208201905092915050565b82818337600083830152505050565b6000601f19601f8301169050919050565b60006103a58385610368565b93506103b2838584610379565b6103bb83610388565b840190509392505050565b600060208201905081810360008301526103e1818486610399565b90509392505050565b600080fd5b7f4e487b7100000000000000000000000000000000000000000000000000000000600052604160045260246000fd5b61042782610388565b810181811067ffffffffffffffff82111715610446576104456103ef565b5b80604052505050565b60006104596101cc565b9050610465828261041e565b919050565b600067ffffffffffffffff821115610485576104846103ef565b5b61048e82610388565b9050602081019050919050565b60005b838110156104b957808201518184015260208101905061049e565b60008484015250505050565b60006104d86104d38461046a565b61044f565b9050828152602081018484840111156104f4576104f36103ea565b5b6104ff84828561049b565b509392505050565b600082601f83011261051c5761051b6101e0565b5b815161052c8482602086016104c5565b91505092915050565b60006020828403121561054b5761054a6101d6565b5b600082015167ffffffffffffffff811115610569576105686101db565b5b61057584828501610507565b91505092915050565b600081519050919050565b60006105948261057e565b61059e8185610368565b93506105ae81856020860161049b565b6105b781610388565b840191505092915050565b600060208201905081810360008301526105dc8184610589565b90509291505056fea2646970667358221220904ea91c76c8f24517adb5a09c4000ad5edba1051845ca5c70820579ec1599ef64736f6c634300081c0033",
  "linkReferences": {},
  "deployedLinkReferences": {}
}