{
  "_format": "hh-sol-artifact-1",
  "contractName": "Rewards",
  "sourceName": "contracts/Rewards.sol",
  "abi": [
    {
      "inputs": [
        {
          "internalType": "address",
          "name": "_silo",
          "type": "address"
        },
        {
          "internalType": "address",
          "name": "_owner",
          "type": "address"
        }
      ],
      "stateMutability": "nonpayable",
      "type": "constructor"
    },
    {
      "inputs": [
        {
          "internalType": "address",
          "name": "spender",
          "type": "address"
        },
        {
          "internalType": "uint256",
          "name": "allowance",
          "type": "uint256"
        },
        {
          "internalType": "uint256",
          "name": "needed",
          "type": "uint256"
        }
      ],
      "name": "ERC20InsufficientAllowance",
      "type": "error"
    },
    {
      "inputs": [
        {
          "internalType": "address",
          "name": "sender",
          "type": "address"
        },
        {
          "internalType": "uint256",
          "name": "balance",
          "type": "uint256"
        },
        {
          "internalType": "uint256",
          "name": "needed",
          "type": "uint256"
        }
      ],
      "name": "ERC20InsufficientBalance",
      "type": "error"
    },
    {
      "inputs": [
        {
          "internalType": "address",
          "name": "approver",
          "type": "address"
        }
      ],
      "name": "ERC20InvalidApprover",
      "type": "error"
    },
    {
      "inputs": [
        {
          "internalType": "address",
          "name": "receiver",
          "type": "address"
        }
      ],
      "name": "ERC20InvalidReceiver",
      "type": "error"
    },
    {
      "inputs": [
        {
          "internalType": "address",
          "name": "sender",
          "type": "address"
        }
      ],
      "name": "ERC20InvalidSender",
      "type": "error"
    },
    {
      "inputs": [
        {
          "internalType": "address",
          "name": "spender",
          "type": "address"
        }
      ],
      "name": "ERC20InvalidSpender",
      "type": "error"
    },
    {
      "inputs": [
        {
          "internalType": "address",
          "name": "owner",
          "type": "address"
        }
      ],
      "name": "OwnableInvalidOwner",
      "type": "error"
    },
    {
      "inputs": [
        {
          "internalType": "address",
          "name": "account",
          "type": "address"
        }
      ],
      "name": "OwnableUnauthorizedAccount",
      "type": "error"
    },
    {
      "anonymous": false,
      "inputs": [
        {
          "indexed": true,
          "internalType": "address",
          "name": "owner",
          "type": "address"
        },
        {
          "indexed": true,
          "internalType": "address",
          "name": "spender",
          "type": "address"
        },
        {
          "indexed": false,
          "internalType": "uint256",
          "name": "value",
          "type": "uint256"
        }
      ],
      "name": "Approval",
      "type": "event"
    },
    {
      "anonymous": false,
      "inputs": [
        {
          "indexed": true,
          "internalType": "address",
          "name": "previousOwner",
          "type": "address"
        },
        {
          "indexed": true,
          "internalType": "address",
          "name": "newOwner",
          "type": "address"
        }
      ],
      "name": "OwnershipTransferred",
      "type": "event"
    },
    {
      "anonymous": false,
      "inputs": [
        {
          "indexed": true,
          "internalType": "address",
          "name": "developer",
          "type": "address"
        },
        {
          "indexed": true,
          "internalType": "address",
          "name": "dataProvider",
          "type": "address"
        },
        {
          "indexed": false,
          "internalType": "uint256",
          "name": "devReward",
          "type": "uint256"
        },
        {
          "indexed": false,
          "internalType": "uint256",
          "name": "providerReward",
          "type": "uint256"
        }
      ],
      "name": "RewardsDistributed",
      "type": "event"
    },
    {
      "anonymous": false,
      "inputs": [
        {
          "indexed": true,
          "internalType": "address",
          "name": "from",
          "type": "address"
        },
        {
          "indexed": true,
          "internalType": "address",
          "name": "to",
          "type": "address"
        },
        {
          "indexed": false,
          "internalType": "uint256",
          "name": "value",
          "type": "uint256"
        }
      ],
      "name": "Transfer",
      "type": "event"
    },
    {
      "inputs": [],
      "name": "agentContract",
      "outputs": [
        {
          "internalType": "address",
          "name": "",
          "type": "address"
        }
      ],
      "stateMutability": "view",
      "type": "function"
    },
    {
      "inputs": [
        {
          "internalType": "address",
          "name": "owner",
          "type": "address"
        },
        {
          "internalType": "address",
          "name": "spender",
          "type": "address"
        }
      ],
      "name": "allowance",
      "outputs": [
        {
          "internalType": "uint256",
          "name": "",
          "type": "uint256"
        }
      ],
      "stateMutability": "view",
      "type": "function"
    },
    {
      "inputs": [
        {
          "internalType": "address",
          "name": "spender",
          "type": "address"
        },
        {
          "internalType": "uint256",
          "name": "value",
          "type": "uint256"
        }
      ],
      "name": "approve",
      "outputs": [
        {
          "internalType": "bool",
          "name": "",
          "type": "bool"
        }
      ],
      "stateMutability": "nonpayable",
      "type": "function"
    },
    {
      "inputs": [
        {
          "internalType": "address",
          "name": "account",
          "type": "address"
        }
      ],
      "name": "balanceOf",
      "outputs": [
        {
          "internalType": "uint256",
          "name": "",
          "type": "uint256"
        }
      ],
      "stateMutability": "view",
      "type": "function"
    },
    {
      "inputs": [],
      "name": "decimals",
      "outputs": [
        {
          "internalType": "uint8",
          "name": "",
          "type": "uint8"
        }
      ],
      "stateMutability": "view",
      "type": "function"
    },
    {
      "inputs": [
        {
          "internalType": "address",
          "name": "developer",
          "type": "address"
        },
        {
          "internalType": "address",
          "name": "dataProvider",
          "type": "address"
        },
        {
          "internalType": "uint256",
          "name": "baseReward",
          "type": "uint256"
        }
      ],
      "name": "distributeRewards",
      "outputs": [],
      "stateMutability": "nonpayable",
      "type": "function"
    },
    {
      "inputs": [],
      "name": "name",
      "outputs": [
        {
          "internalType": "string",
          "name": "",
          "type": "string"
        }
      ],
      "stateMutability": "view",
      "type": "function"
    },
    {
      "inputs": [],
      "name": "owner",
      "outputs": [
        {
          "internalType": "address",
          "name": "",
          "type": "address"
        }
      ],
      "stateMutability": "view",
      "type": "function"
    },
    {
      "inputs": [],
      "name": "renounceOwnership",
      "outputs": [],
      "stateMutability": "nonpayable",
      "type": "function"
    },
    {
      "inputs": [
        {
          "internalType": "address",
          "name": "_agentContract",
          "type": "address"
        }
      ],
      "name": "setAgentContract",
      "outputs": [],
      "stateMutability": "nonpayable",
      "type": "function"
    },
    {
      "inputs": [],
      "name": "silo",
      "outputs": [
        {
          "internalType": "contract ISilo",
          "name": "",
          "type": "address"
        }
      ],
      "stateMutability": "view",
      "type": "function"
    },
    {
      "inputs": [],
      "name": "symbol",
      "outputs": [
        {
          "internalType": "string",
          "name": "",
          "type": "string"
        }
      ],
      "stateMutability": "view",
      "type": "function"
    },
    {
      "inputs": [],
      "name": "totalSupply",
      "outputs": [
        {
          "internalType": "uint256",
          "name": "",
          "type": "uint256"
        }
      ],
      "stateMutability": "view",
      "type": "function"
    },
    {
      "inputs": [
        {
          "internalType": "address",
          "name": "to",
          "type": "address"
        },
        {
          "internalType": "uint256",
          "name": "value",
          "type": "uint256"
        }
      ],
      "name": "transfer",
      "outputs": [
        {
          "internalType": "bool",
          "name": "",
          "type": "bool"
        }
      ],
      "stateMutability": "nonpayable",
      "type": "function"
    },
    {
      "inputs": [
        {
          "internalType": "address",
          "name": "from",
          "type": "address"
        },
        {
          "internalType": "address",
          "name": "to",
          "type": "address"
        },
        {
          "internalType": "uint256",
          "name": "value",
          "type": "uint256"
        }
      ],
      "name": "transferFrom",
      "outputs": [
        {
          "internalType": "bool",
          "name": "",
          "type": "bool"
        }
      ],
      "stateMutability": "nonpayable",
      "type": "function"
    },
    {
      "inputs": [
        {
          "internalType": "address",
          "name": "newOwner",
          "type": "address"
        }
      ],
      "name": "transferOwnership",
      "outputs": [],
      "stateMutability": "nonpayable",
      "type": "function"
    }
  ],
  "bytecode": "0x608060405234801561001057600080fd5b5060405161251e38038061251e8339818101604052810190610032919061067f565b806040518060400160405280600f81526020017f44617461537761726d20546f6b656e00000000000000000000000000000000008152506040518060400160405280600681526020017f44535741524d000000000000000000000000000000000000000000000000000081525081600390816100ae919061090f565b5080600490816100be919061090f565b505050600073ffffffffffffffffffffffffffffffffffffffff168173ffffffffffffffffffffffffffffffffffffffff16036101335760006040517f1e4fbdf700000000000000000000000000000000000000000000000000000000815260040161012a91906109f0565b60405180910390fd5b610142816102a060201b60201c565b50600073ffffffffffffffffffffffffffffffffffffffff168273ffffffffffffffffffffffffffffffffffffffff16036101b2576040517f08c379a00000000000000000000000000000000000000000000000000000000081526004016101a990610a68565b60405180910390fd5b600073ffffffffffffffffffffffffffffffffffffffff168173ffffffffffffffffffffffffffffffffffffffff1603610221576040517f08c379a000000000000000000000000000000000000000000000000000000000815260040161021890610ad4565b60405180910390fd5b6102588161023361036660201b60201c565b600a61023f9190610c63565b620f424061024d9190610cae565b61036f60201b60201c565b81600660006101000a81548173ffffffffffffffffffffffffffffffffffffffff021916908373ffffffffffffffffffffffffffffffffffffffff1602179055505050610d85565b6000600560009054906101000a900473ffffffffffffffffffffffffffffffffffffffff16905081600560006101000a81548173ffffffffffffffffffffffffffffffffffffffff021916908373ffffffffffffffffffffffffffffffffffffffff1602179055508173ffffffffffffffffffffffffffffffffffffffff168173ffffffffffffffffffffffffffffffffffffffff167f8be0079c531659141344cd1fd0a4f28419497f9722a3daafe3b4186f6b6457e060405160405180910390a35050565b60006012905090565b600073ffffffffffffffffffffffffffffffffffffffff168273ffffffffffffffffffffffffffffffffffffffff16036103e15760006040517fec442f050000000000000000000000000000000000000000000000000000000081526004016103d891906109f0565b60405180910390fd5b6103f3600083836103f760201b60201c565b5050565b600073ffffffffffffffffffffffffffffffffffffffff168373ffffffffffffffffffffffffffffffffffffffff160361044957806002600082825461043d9190610cf0565b9250508190555061051c565b60008060008573ffffffffffffffffffffffffffffffffffffffff1673ffffffffffffffffffffffffffffffffffffffff168152602001908152602001600020549050818110156104d5578381836040517fe450d38c0000000000000000000000000000000000000000000000000000000081526004016104cc93929190610d33565b60405180910390fd5b8181036000808673ffffffffffffffffffffffffffffffffffffffff1673ffffffffffffffffffffffffffffffffffffffff16815260200190815260200160002081905550505b600073ffffffffffffffffffffffffffffffffffffffff168273ffffffffffffffffffffffffffffffffffffffff160361056557806002600082825403925050819055506105b2565b806000808473ffffffffffffffffffffffffffffffffffffffff1673ffffffffffffffffffffffffffffffffffffffff168152602001908152602001600020600082825401925050819055505b8173ffffffffffffffffffffffffffffffffffffffff168373ffffffffffffffffffffffffffffffffffffffff167fddf252ad1be2c89b69c2b068fc378daa952ba7f163c4a11628f55a4df523b3ef8360405161060f9190610d6a565b60405180910390a3505050565b600080fd5b600073ffffffffffffffffffffffffffffffffffffffff82169050919050565b600061064c82610621565b9050919050565b61065c81610641565b811461066757600080fd5b50565b60008151905061067981610653565b92915050565b600080604083850312156106965761069561061c565b5b60006106a48582860161066a565b92505060206106b58582860161066a565b9150509250929050565b600081519050919050565b7f4e487b7100000000000000000000000000000000000000000000000000000000600052604160045260246000fd5b7f4e487b7100000000000000000000000000000000000000000000000000000000600052602260045260246000fd5b6000600282049050600182168061074057607f821691505b602082108103610753576107526106f9565b5b50919050565b60008190508160005260206000209050919050565b60006020601f8301049050919050565b600082821b905092915050565b6000600883026107bb7fffffffffffffffffffffffffffffffffffffffffffffffffffffffffffffffff8261077e565b6107c5868361077e565b95508019841693508086168417925050509392505050565b6000819050919050565b6000819050919050565b600061080c610807610802846107dd565b6107e7565b6107dd565b9050919050565b6000819050919050565b610826836107f1565b61083a61083282610813565b84845461078b565b825550505050565b600090565b61084f610842565b61085a81848461081d565b505050565b5b8181101561087e57610873600082610847565b600181019050610860565b5050565b601f8211156108c35761089481610759565b61089d8461076e565b810160208510156108ac578190505b6108c06108b88561076e565b83018261085f565b50505b505050565b600082821c905092915050565b60006108e6600019846008026108c8565b1980831691505092915050565b60006108ff83836108d5565b9150826002028217905092915050565b610918826106bf565b67ffffffffffffffff811115610931576109306106ca565b5b61093b8254610728565b610946828285610882565b600060209050601f8311600181146109795760008415610967578287015190505b61097185826108f3565b8655506109d9565b601f19841661098786610759565b60005b828110156109af5784890151825560018201915060208501945060208101905061098a565b868310156109cc57848901516109c8601f8916826108d5565b8355505b6001600288020188555050505b505050505050565b6109ea81610641565b82525050565b6000602082019050610a0560008301846109e1565b92915050565b600082825260208201905092915050565b7f496e76616c69642053696c6f2061646472657373000000000000000000000000600082015250565b6000610a52601483610a0b565b9150610a5d82610a1c565b602082019050919050565b60006020820190508181036000830152610a8181610a45565b9050919050565b7f496e76616c6964206f776e657220616464726573730000000000000000000000600082015250565b6000610abe601583610a0b565b9150610ac982610a88565b602082019050919050565b60006020820190508181036000830152610aed81610ab1565b9050919050565b7f4e487b7100000000000000000000000000000000000000000000000000000000600052601160045260246000fd5b60008160011c9050919050565b6000808291508390505b6001851115610b7a57808604811115610b5657610b55610af4565b5b6001851615610b655780820291505b8081029050610b7385610b23565b9450610b3a565b94509492505050565b600082610b935760019050610c4f565b81610ba15760009050610c4f565b8160018114610bb75760028114610bc157610bf0565b6001915050610c4f565b60ff841115610bd357610bd2610af4565b5b8360020a915084821115610bea57610be9610af4565b5b50610c4f565b5060208310610133831016604e8410600b8410161715610c255782820a905083811115610c2057610c1f610af4565b5b610c4f565b610c328484846001610b30565b92509050818404811115610c4957610c48610af4565b5b81810290505b9392505050565b600060ff82169050919050565b6000610c6e826107dd565b9150610c7983610c56565b9250610ca67fffffffffffffffffffffffffffffffffffffffffffffffffffffffffffffffff8484610b83565b905092915050565b6000610cb9826107dd565b9150610cc4836107dd565b9250828202610cd2816107dd565b91508282048414831517610ce957610ce8610af4565b5b5092915050565b6000610cfb826107dd565b9150610d06836107dd565b9250828201905080821115610d1e57610d1d610af4565b5b92915050565b610d2d816107dd565b82525050565b6000606082019050610d4860008301866109e1565b610d556020830185610d24565b610d626040830184610d24565b949350505050565b6000602082019050610d7f6000830184610d24565b92915050565b61178a80610d946000396000f3fe608060405234801561001057600080fd5b50600436106101005760003560e01c80638da5cb5b11610097578063a9059cbb11610066578063a9059cbb1461028b578063dd62ed3e146102bb578063eb3beb29146102eb578063f2fde38b1461030957610100565b80638da5cb5b1461021557806395d89b41146102335780639e5182ab14610251578063a70631a01461026f57610100565b806323b872dd116100d357806323b872dd1461018d578063313ce567146101bd57806370a08231146101db578063715018a61461020b57610100565b806306fdde0314610105578063095ea7b3146101235780630ce6b2c01461015357806318160ddd1461016f575b600080fd5b61010d610325565b60405161011a919061114b565b60405180910390f35b61013d60048036038101906101389190611206565b6103b7565b60405161014a9190611261565b60405180910390f35b61016d6004803603810190610168919061127c565b6103da565b005b610177610495565b60405161018491906112b8565b60405180910390f35b6101a760048036038101906101a291906112d3565b61049f565b6040516101b49190611261565b60405180910390f35b6101c56104ce565b6040516101d29190611342565b60405180910390f35b6101f560048036038101906101f0919061127c565b6104d7565b60405161020291906112b8565b60405180910390f35b61021361051f565b005b61021d610533565b60405161022a919061136c565b60405180910390f35b61023b61055d565b604051610248919061114b565b60405180910390f35b6102596105ef565b604051610266919061136c565b60405180910390f35b610289600480360381019061028491906112d3565b610615565b005b6102a560048036038101906102a09190611206565b6107f7565b6040516102b29190611261565b60405180910390f35b6102d560048036038101906102d09190611387565b61081a565b6040516102e291906112b8565b60405180910390f35b6102f36108a1565b6040516103009190611426565b60405180910390f35b610323600480360381019061031e919061127c565b6108c7565b005b60606003805461033490611470565b80601f016020809104026020016040519081016040528092919081815260200182805461036090611470565b80156103ad5780601f10610382576101008083540402835291602001916103ad565b820191906000526020600020905b81548152906001019060200180831161039057829003601f168201915b5050505050905090565b6000806103c261094d565b90506103cf818585610955565b600191505092915050565b6103e2610967565b600073ffffffffffffffffffffffffffffffffffffffff168173ffffffffffffffffffffffffffffffffffffffff1603610451576040517f08c379a0000000000000000000000000000000000000000000000000000000008152600401610448906114ed565b60405180910390fd5b80600760006101000a81548173ffffffffffffffffffffffffffffffffffffffff021916908373ffffffffffffffffffffffffffffffffffffffff16021790555050565b6000600254905090565b6000806104aa61094d565b90506104b78582856109ee565b6104c2858585610a83565b60019150509392505050565b60006012905090565b60008060008373ffffffffffffffffffffffffffffffffffffffff1673ffffffffffffffffffffffffffffffffffffffff168152602001908152602001600020549050919050565b610527610967565b6105316000610b77565b565b6000600560009054906101000a900473ffffffffffffffffffffffffffffffffffffffff16905090565b60606004805461056c90611470565b80601f016020809104026020016040519081016040528092919081815260200182805461059890611470565b80156105e55780601f106105ba576101008083540402835291602001916105e5565b820191906000526020600020905b8154815290600101906020018083116105c857829003601f168201915b5050505050905090565b600760009054906101000a900473ffffffffffffffffffffffffffffffffffffffff1681565b600760009054906101000a900473ffffffffffffffffffffffffffffffffffffffff1673ffffffffffffffffffffffffffffffffffffffff163373ffffffffffffffffffffffffffffffffffffffff16146106a5576040517f08c379a000000000000000000000000000000000000000000000000000000000815260040161069c90611559565b60405180910390fd5b6000600660009054906101000a900473ffffffffffffffffffffffffffffffffffffffff1673ffffffffffffffffffffffffffffffffffffffff16634195fbf3836040518263ffffffff1660e01b815260040161070291906112b8565b6020604051808303816000875af1158015610721573d6000803e3d6000fd5b505050506040513d601f19601f82011682018060405250810190610745919061158e565b90506000606460468361075891906115ea565b610762919061165b565b905060008183610772919061168c565b905061077e8683610c3d565b6107888582610c3d565b8473ffffffffffffffffffffffffffffffffffffffff168673ffffffffffffffffffffffffffffffffffffffff167f1a4dfb075362880d700ede1cc31d284b1c3b2811e9f0b2ddde7bdb270042c13f84846040516107e79291906116c0565b60405180910390a3505050505050565b60008061080261094d565b905061080f818585610a83565b600191505092915050565b6000600160008473ffffffffffffffffffffffffffffffffffffffff1673ffffffffffffffffffffffffffffffffffffffff16815260200190815260200160002060008373ffffffffffffffffffffffffffffffffffffffff1673ffffffffffffffffffffffffffffffffffffffff16815260200190815260200160002054905092915050565b600660009054906101000a900473ffffffffffffffffffffffffffffffffffffffff1681565b6108cf610967565b600073ffffffffffffffffffffffffffffffffffffffff168173ffffffffffffffffffffffffffffffffffffffff16036109415760006040517f1e4fbdf7000000000000000000000000000000000000000000000000000000008152600401610938919061136c565b60405180910390fd5b61094a81610b77565b50565b600033905090565b6109628383836001610cbf565b505050565b61096f61094d565b73ffffffffffffffffffffffffffffffffffffffff1661098d610533565b73ffffffffffffffffffffffffffffffffffffffff16146109ec576109b061094d565b6040517f118cdaa70000000000000000000000000000000000000000000000000000000081526004016109e3919061136c565b60405180910390fd5b565b60006109fa848461081a565b90507fffffffffffffffffffffffffffffffffffffffffffffffffffffffffffffffff811015610a7d5781811015610a6d578281836040517ffb8f41b2000000000000000000000000000000000000000000000000000000008152600401610a64939291906116e9565b60405180910390fd5b610a7c84848484036000610cbf565b5b50505050565b600073ffffffffffffffffffffffffffffffffffffffff168373ffffffffffffffffffffffffffffffffffffffff1603610af55760006040517f96c6fd1e000000000000000000000000000000000000000000000000000000008152600401610aec919061136c565b60405180910390fd5b600073ffffffffffffffffffffffffffffffffffffffff168273ffffffffffffffffffffffffffffffffffffffff1603610b675760006040517fec442f05000000000000000000000000000000000000000000000000000000008152600401610b5e919061136c565b60405180910390fd5b610b72838383610e96565b505050565b6000600560009054906101000a900473ffffffffffffffffffffffffffffffffffffffff16905081600560006101000a81548173ffffffffffffffffffffffffffffffffffffffff021916908373ffffffffffffffffffffffffffffffffffffffff1602179055508173ffffffffffffffffffffffffffffffffffffffff168173ffffffffffffffffffffffffffffffffffffffff167f8be0079c531659141344cd1fd0a4f28419497f9722a3daafe3b4186f6b6457e060405160405180910390a35050565b600073ffffffffffffffffffffffffffffffffffffffff168273ffffffffffffffffffffffffffffffffffffffff1603610caf5760006040517fec442f05000000000000000000000000000000000000000000000000000000008152600401610ca6919061136c565b60405180910390fd5b610cbb60008383610e96565b5050565b600073ffffffffffffffffffffffffffffffffffffffff168473ffffffffffffffffffffffffffffffffffffffff1603610d315760006040517fe602df05000000000000000000000000000000000000000000000000000000008152600401610d28919061136c565b60405180910390fd5b600073ffffffffffffffffffffffffffffffffffffffff168373ffffffffffffffffffffffffffffffffffffffff1603610da35760006040517f94280d62000000000000000000000000000000000000000000000000000000008152600401610d9a919061136c565b60405180910390fd5b81600160008673ffffffffffffffffffffffffffffffffffffffff1673ffffffffffffffffffffffffffffffffffffffff16815260200190815260200160002060008573ffffffffffffffffffffffffffffffffffffffff1673ffffffffffffffffffffffffffffffffffffffff168152602001908152602001600020819055508015610e90578273ffffffffffffffffffffffffffffffffffffffff168473ffffffffffffffffffffffffffffffffffffffff167f8c5be1e5ebec7d5bd14f71427d1e84f3dd0314c0f7b2291e5b200ac8c7c3b92584604051610e8791906112b8565b60405180910390a35b50505050565b600073ffffffffffffffffffffffffffffffffffffffff168373ffffffffffffffffffffffffffffffffffffffff1603610ee8578060026000828254610edc9190611720565b92505081905550610fbb565b60008060008573ffffffffffffffffffffffffffffffffffffffff1673ffffffffffffffffffffffffffffffffffffffff16815260200190815260200160002054905081811015610f74578381836040517fe450d38c000000000000000000000000000000000000000000000000000000008152600401610f6b939291906116e9565b60405180910390fd5b8181036000808673ffffffffffffffffffffffffffffffffffffffff1673ffffffffffffffffffffffffffffffffffffffff16815260200190815260200160002081905550505b600073ffffffffffffffffffffffffffffffffffffffff168273ffffffffffffffffffffffffffffffffffffffff16036110045780600260008282540392505081905550611051565b806000808473ffffffffffffffffffffffffffffffffffffffff1673ffffffffffffffffffffffffffffffffffffffff168152602001908152602001600020600082825401925050819055505b8173ffffffffffffffffffffffffffffffffffffffff168373ffffffffffffffffffffffffffffffffffffffff167fddf252ad1be2c89b69c2b068fc378daa952ba7f163c4a11628f55a4df523b3ef836040516110ae91906112b8565b60405180910390a3505050565b600081519050919050565b600082825260208201905092915050565b60005b838110156110f55780820151818401526020810190506110da565b60008484015250505050565b6000601f19601f8301169050919050565b600061111d826110bb565b61112781856110c6565b93506111378185602086016110d7565b61114081611101565b840191505092915050565b600060208201905081810360008301526111658184611112565b905092915050565b600080fd5b600073ffffffffffffffffffffffffffffffffffffffff82169050919050565b600061119d82611172565b9050919050565b6111ad81611192565b81146111b857600080fd5b50565b6000813590506111ca816111a4565b92915050565b6000819050919050565b6111e3816111d0565b81146111ee57600080fd5b50565b600081359050611200816111da565b92915050565b6000806040838503121561121d5761121c61116d565b5b600061122b858286016111bb565b925050602061123c858286016111f1565b9150509250929050565b60008115159050919050565b61125b81611246565b82525050565b60006020820190506112766000830184611252565b92915050565b6000602082840312156112925761129161116d565b5b60006112a0848285016111bb565b91505092915050565b6112b2816111d0565b82525050565b60006020820190506112cd60008301846112a9565b92915050565b6000806000606084860312156112ec576112eb61116d565b5b60006112fa868287016111bb565b935050602061130b868287016111bb565b925050604061131c868287016111f1565b9150509250925092565b600060ff82169050919050565b61133c81611326565b82525050565b60006020820190506113576000830184611333565b92915050565b61136681611192565b82525050565b6000602082019050611381600083018461135d565b92915050565b6000806040838503121561139e5761139d61116d565b5b60006113ac858286016111bb565b92505060206113bd858286016111bb565b9150509250929050565b6000819050919050565b60006113ec6113e76113e284611172565b6113c7565b611172565b9050919050565b60006113fe826113d1565b9050919050565b6000611410826113f3565b9050919050565b61142081611405565b82525050565b600060208201905061143b6000830184611417565b92915050565b7f4e487b7100000000000000000000000000000000000000000000000000000000600052602260045260246000fd5b6000600282049050600182168061148857607f821691505b60208210810361149b5761149a611441565b5b50919050565b7f496e76616c696420616464726573730000000000000000000000000000000000600082015250565b60006114d7600f836110c6565b91506114e2826114a1565b602082019050919050565b60006020820190508181036000830152611506816114ca565b9050919050565b7f556e617574686f72697a65640000000000000000000000000000000000000000600082015250565b6000611543600c836110c6565b915061154e8261150d565b602082019050919050565b6000602082019050818103600083015261157281611536565b9050919050565b600081519050611588816111da565b92915050565b6000602082840312156115a4576115a361116d565b5b60006115b284828501611579565b91505092915050565b7f4e487b7100000000000000000000000000000000000000000000000000000000600052601160045260246000fd5b60006115f5826111d0565b9150611600836111d0565b925082820261160e816111d0565b91508282048414831517611625576116246115bb565b5b5092915050565b7f4e487b7100000000000000000000000000000000000000000000000000000000600052601260045260246000fd5b6000611666826111d0565b9150611671836111d0565b9250826116815761168061162c565b5b828204905092915050565b6000611697826111d0565b91506116a2836111d0565b92508282039050818111156116ba576116b96115bb565b5b92915050565b60006040820190506116d560008301856112a9565b6116e260208301846112a9565b9392505050565b60006060820190506116fe600083018661135d565b61170b60208301856112a9565b61171860408301846112a9565b949350505050565b600061172b826111d0565b9150611736836111d0565b925082820190508082111561174e5761174d6115bb565b5b9291505056fea2646970667358221220fbd84ac20e668377d0bfd435078e4431e272b10d048fa88ca83abc41726fc4e464736f6c634300081c0033",
  "linkReferences": {},
  "deployedLinkReferences": {}
}