{
  "_format": "hh-sol-artifact-1",
  "contractName": "Rewards",
  "sourceName": "contracts/Rewards.sol",
  "abi": [
    {
      "inputs": [
        {
          "internalType": "address",
          "name": "_silo",
          "type": "address"
        },
        {
          "internalType": "address",
          "name": "_owner",
          "type": "address"
        }
      ],
      "stateMutability": "nonpayable",
      "type": "constructor"
    },
    {
      "inputs": [
        {
          "internalType": "address",
          "name": "spender",
          "type": "address"
        },
        {
          "internalType": "uint256",
          "name": "allowance",
          "type": "uint256"
        },
        {
          "internalType": "uint256",
          "name": "needed",
          "type": "uint256"
        }
      ],
      "name": "ERC20InsufficientAllowance",
      "type": "error"
    },
    {
      "inputs": [
        {
          "internalType": "address",
          "name": "sender",
          "type": "address"
        },
        {
          "internalType": "uint256",
          "name": "balance",
          "type": "uint256"
        },
        {
          "internalType": "uint256",
          "name": "needed",
          "type": "uint256"
        }
      ],
      "name": "ERC20InsufficientBalance",
      "type": "error"
    },
    {
      "inputs": [
        {
          "internalType": "address",
          "name": "approver",
          "type": "address"
        }
      ],
      "name": "ERC20InvalidApprover",
      "type": "error"
    },
    {
      "inputs": [
        {
          "internalType": "address",
          "name": "receiver",
          "type": "address"
        }
      ],
      "name": "ERC20InvalidReceiver",
      "type": "error"
    },
    {
      "inputs": [
        {
          "internalType": "address",
          "name": "sender",
          "type": "address"
        }
      ],
      "name": "ERC20InvalidSender",
      "type": "error"
    },
    {
      "inputs": [
        {
          "internalType": "address",
          "name": "spender",
          "type": "address"
        }
      ],
      "name": "ERC20InvalidSpender",
      "type": "error"
    },
    {
      "inputs": [
        {
          "internalType": "address",
          "name": "owner",
          "type": "address"
        }
      ],
      "name": "OwnableInvalidOwner",
      "type": "error"
    },
    {
      "inputs": [
        {
          "internalType": "address",
          "name": "account",
          "type": "address"
        }
      ],
      "name": "OwnableUnauthorizedAccount",
      "type": "error"
    },
    {
      "anonymous": false,
      "inputs": [
        {
          "indexed": true,
          "internalType": "address",
          "name": "owner",
          "type": "address"
        },
        {
          "indexed": true,
          "internalType": "address",
          "name": "spender",
          "type": "address"
        },
        {
          "indexed": false,
          "internalType": "uint256",
          "name": "value",
          "type": "uint256"
        }
      ],
      "name": "Approval",
      "type": "event"
    },
    {
      "anonymous": false,
      "inputs": [
        {
          "indexed": true,
          "internalType": "address",
          "name": "previousOwner",
          "type": "address"
        },
        {
          "indexed": true,
          "internalType": "address",
          "name": "newOwner",
          "type": "address"
        }
      ],
      "name": "OwnershipTransferred",
      "type": "event"
    },
    {
      "anonymous": false,
      "inputs": [
        {
          "indexed": true,
          "internalType": "address",
          "name": "developer",
          "type": "address"
        },
        {
          "indexed": true,
          "internalType": "address",
          "name": "dataProvider",
          "type": "address"
        },
        {
          "indexed": false,
          "internalType": "uint256",
          "name": "devReward",
          "type": "uint256"
        },
        {
          "indexed": false,
          "internalType": "uint256",
          "name": "providerReward",
          "type": "uint256"
        }
      ],
      "name": "RewardsDistributed",
      "type": "event"
    },
    {
      "anonymous": false,
      "inputs": [
        {
          "indexed": true,
          "internalType": "address",
          "name": "from",
          "type": "address"
        },
        {
          "indexed": true,
          "internalType": "address",
          "name": "to",
          "type": "address"
        },
        {
          "indexed": false,
          "internalType": "uint256",
          "name": "value",
          "type": "uint256"
        }
      ],
      "name": "Transfer",
      "type": "event"
    },
    {
      "inputs": [],
      "name": "agentContract",
      "outputs": [
        {
          "internalType": "address",
          "name": "",
          "type": "address"
        }
      ],
      "stateMutability": "view",
      "type": "function"
    },
    {
      "inputs": [
        {
          "internalType": "address",
          "name": "owner",
          "type": "address"
        },
        {
          "internalType": "address",
          "name": "spender",
          "type": "address"
        }
      ],
      "name": "allowance",
      "outputs": [
        {
          "internalType": "uint256",
          "name": "",
          "type": "uint256"
        }
      ],
      "stateMutability": "view",
      "type": "function"
    },
    {
      "inputs": [
        {
          "internalType": "address",
          "name": "spender",
          "type": "address"
        },
        {
          "internalType": "uint256",
          "name": "value",
          "type": "uint256"
        }
      ],
      "name": "approve",
      "outputs": [
        {
          "internalType": "bool",
          "name": "",
          "type": "bool"
        }
      ],
      "stateMutability": "nonpayable",
      "type": "function"
    },
    {
      "inputs": [
        {
          "internalType": "address",
          "name": "account",
          "type": "address"
        }
      ],
      "name": "balanceOf",
      "outputs": [
        {
          "internalType": "uint256",
          "name": "",
          "type": "uint256"
        }
      ],
      "stateMutability": "view",
      "type": "function"
    },
    {
      "inputs": [],
      "name": "decimals",
      "outputs": [
        {
          "internalType": "uint8",
          "name": "",
          "type": "uint8"
        }
      ],
      "stateMutability": "view",
      "type": "function"
    },
    {
      "inputs": [
        {
          "internalType": "address",
          "name": "developer",
          "type": "address"
        },
        {
          "internalType": "address",
          "name": "dataProvider",
          "type": "address"
        },
        {
          "internalType": "uint256",
          "name": "baseReward",
          "type": "uint256"
        }
      ],
      "name": "distributeRewards",
      "outputs": [],
      "stateMutability": "nonpayable",
      "type": "function"
    },
    {
      "inputs": [],
      "name": "name",
      "outputs": [
        {
          "internalType": "string",
          "name": "",
          "type": "string"
        }
      ],
      "stateMutability": "view",
      "type": "function"
    },
    {
      "inputs": [],
      "name": "owner",
      "outputs": [
        {
          "internalType": "address",
          "name": "",
          "type": "address"
        }
      ],
      "stateMutability": "view",
      "type": "function"
    },
    {
      "inputs": [],
      "name": "renounceOwnership",
      "outputs": [],
      "stateMutability": "nonpayable",
      "type": "function"
    },
    {
      "inputs": [
        {
          "internalType": "address",
          "name": "_agentContract",
          "type": "address"
        }
      ],
      "name": "setAgentContract",
      "outputs": [],
      "stateMutability": "nonpayable",
      "type": "function"
    },
    {
      "inputs": [],
      "name": "silo",
      "outputs": [
        {
          "internalType": "contract ISilo",
          "name": "",
          "type": "address"
        }
      ],
      "stateMutability": "view",
      "type": "function"
    },
    {
      "inputs": [],
      "name": "symbol",
      "outputs": [
        {
          "internalType": "string",
          "name": "",
          "type": "string"
        }
      ],
      "stateMutability": "view",
      "type": "function"
    },
    {
      "inputs": [],
      "name": "totalSupply",
      "outputs": [
        {
          "internalType": "uint256",
          "name": "",
          "type": "uint256"
        }
      ],
      "stateMutability": "view",
      "type": "function"
    },
    {
      "inputs": [
        {
          "internalType": "address",
          "name": "to",
          "type": "address"
        },
        {
          "internalType": "uint256",
          "name": "value",
          "type": "uint256"
        }
      ],
      "name": "transfer",
      "outputs": [
        {
          "internalType": "bool",
          "name": "",
          "type": "bool"
        }
      ],
      "stateMutability": "nonpayable",
      "type": "function"
    },
    {
      "inputs": [
        {
          "internalType": "address",
          "name": "from",
          "type": "address"
        },
        {
          "internalType": "address",
          "name": "to",
          "type": "address"
        },
        {
          "internalType": "uint256",
          "name": "value",
          "type": "uint256"
        }
      ],
      "name": "transferFrom",
      "outputs": [
        {
          "internalType": "bool",
          "name": "",
          "type": "bool"
        }
      ],
      "stateMutability": "nonpayable",
      "type": "function"
    },
    {
      "inputs": [
        {
          "internalType": "address",
          "name": "newOwner",
          "type": "address"
        }
      ],
      "name": "transferOwnership",
      "outputs": [],
      "stateMutability": "nonpayable",
      "type": "function"
    }
  ],
  "bytecode": "0x60806040523480156200001157600080fd5b506040516200122c3803806200122c8339810160408190526200003491620003ba565b806040518060400160405280600f81526020016e2230ba30a9bbb0b936902a37b5b2b760891b8152506040518060400160405280600681526020016544535741524d60d01b81525081600390816200008d919062000497565b5060046200009c828262000497565b5050506001600160a01b038116620000cf57604051631e4fbdf760e01b8152600060048201526024015b60405180910390fd5b620000da81620001da565b506001600160a01b038216620001335760405162461bcd60e51b815260206004820152601460248201527f496e76616c69642053696c6f20616464726573730000000000000000000000006044820152606401620000c6565b6001600160a01b0381166200018b5760405162461bcd60e51b815260206004820152601560248201527f496e76616c6964206f776e6572206164647265737300000000000000000000006044820152606401620000c6565b620001b3816200019e6012600a62000678565b620001ad90620f424062000690565b6200022c565b50600680546001600160a01b0319166001600160a01b0392909216919091179055620006c0565b600580546001600160a01b038381166001600160a01b0319831681179093556040519116919082907f8be0079c531659141344cd1fd0a4f28419497f9722a3daafe3b4186f6b6457e090600090a35050565b6001600160a01b038216620002585760405163ec442f0560e01b815260006004820152602401620000c6565b62000266600083836200026a565b5050565b6001600160a01b038316620002995780600260008282546200028d9190620006aa565b909155506200030d9050565b6001600160a01b03831660009081526020819052604090205481811015620002ee5760405163391434e360e21b81526001600160a01b03851660048201526024810182905260448101839052606401620000c6565b6001600160a01b03841660009081526020819052604090209082900390555b6001600160a01b0382166200032b576002805482900390556200034a565b6001600160a01b03821660009081526020819052604090208054820190555b816001600160a01b0316836001600160a01b03167fddf252ad1be2c89b69c2b068fc378daa952ba7f163c4a11628f55a4df523b3ef836040516200039091815260200190565b60405180910390a3505050565b80516001600160a01b0381168114620003b557600080fd5b919050565b60008060408385031215620003ce57600080fd5b620003d9836200039d565b9150620003e9602084016200039d565b90509250929050565b634e487b7160e01b600052604160045260246000fd5b600181811c908216806200041d57607f821691505b6020821081036200043e57634e487b7160e01b600052602260045260246000fd5b50919050565b601f8211156200049257600081815260208120601f850160051c810160208610156200046d5750805b601f850160051c820191505b818110156200048e5782815560010162000479565b5050505b505050565b81516001600160401b03811115620004b357620004b3620003f2565b620004cb81620004c4845462000408565b8462000444565b602080601f831160018114620005035760008415620004ea5750858301515b600019600386901b1c1916600185901b1785556200048e565b600085815260208120601f198616915b82811015620005345788860151825594840194600190910190840162000513565b5085821015620005535787850151600019600388901b60f8161c191681555b5050505050600190811b01905550565b634e487b7160e01b600052601160045260246000fd5b600181815b80851115620005ba5781600019048211156200059e576200059e62000563565b80851615620005ac57918102915b93841c93908002906200057e565b509250929050565b600082620005d35750600162000672565b81620005e25750600062000672565b8160018114620005fb5760028114620006065762000626565b600191505062000672565b60ff8411156200061a576200061a62000563565b50506001821b62000672565b5060208310610133831016604e8410600b84101617156200064b575081810a62000672565b62000657838362000579565b80600019048211156200066e576200066e62000563565b0290505b92915050565b60006200068960ff841683620005c2565b9392505050565b808202811582820484141762000672576200067262000563565b8082018082111562000672576200067262000563565b610b5c80620006d06000396000f3fe608060405234801561001057600080fd5b50600436106101005760003560e01c80638da5cb5b11610097578063a9059cbb11610066578063a9059cbb14610213578063dd62ed3e14610226578063eb3beb291461025f578063f2fde38b1461027257600080fd5b80638da5cb5b146101c057806395d89b41146101e55780639e5182ab146101ed578063a70631a01461020057600080fd5b806323b872dd116100d357806323b872dd1461016d578063313ce5671461018057806370a082311461018f578063715018a6146101b857600080fd5b806306fdde0314610105578063095ea7b3146101235780630ce6b2c01461014657806318160ddd1461015b575b600080fd5b61010d610285565b60405161011a9190610939565b60405180910390f35b6101366101313660046109a3565b610317565b604051901515815260200161011a565b6101596101543660046109cd565b610331565b005b6002545b60405190815260200161011a565b61013661017b3660046109ef565b6103a8565b6040516012815260200161011a565b61015f61019d3660046109cd565b6001600160a01b031660009081526020819052604090205490565b6101596103cc565b6005546001600160a01b03165b6040516001600160a01b03909116815260200161011a565b61010d6103e0565b6007546101cd906001600160a01b031681565b61015961020e3660046109ef565b6103ef565b6101366102213660046109a3565b610545565b61015f610234366004610a2b565b6001600160a01b03918216600090815260016020908152604080832093909416825291909152205490565b6006546101cd906001600160a01b031681565b6101596102803660046109cd565b610553565b60606003805461029490610a5e565b80601f01602080910402602001604051908101604052809291908181526020018280546102c090610a5e565b801561030d5780601f106102e25761010080835404028352916020019161030d565b820191906000526020600020905b8154815290600101906020018083116102f057829003601f168201915b5050505050905090565b600033610325818585610591565b60019150505b92915050565b6103396105a3565b6001600160a01b0381166103865760405162461bcd60e51b815260206004820152600f60248201526e496e76616c6964206164647265737360881b60448201526064015b60405180910390fd5b600780546001600160a01b0319166001600160a01b0392909216919091179055565b6000336103b68582856105d0565b6103c185858561064f565b506001949350505050565b6103d46105a3565b6103de60006106ae565b565b60606004805461029490610a5e565b6007546001600160a01b031633146104385760405162461bcd60e51b815260206004820152600c60248201526b155b985d5d1a1bdc9a5e995960a21b604482015260640161037d565b600654604051634195fbf360e01b8152600481018390526000916001600160a01b031690634195fbf3906024016020604051808303816000875af1158015610484573d6000803e3d6000fd5b505050506040513d601f19601f820116820180604052508101906104a89190610a98565b9050600060646104b9836046610ac7565b6104c39190610ade565b905060006104d18284610b00565b90506104dd8683610700565b6104e78582610700565b846001600160a01b0316866001600160a01b03167f1a4dfb075362880d700ede1cc31d284b1c3b2811e9f0b2ddde7bdb270042c13f8484604051610535929190918252602082015260400190565b60405180910390a3505050505050565b60003361032581858561064f565b61055b6105a3565b6001600160a01b03811661058557604051631e4fbdf760e01b81526000600482015260240161037d565b61058e816106ae565b50565b61059e838383600161073a565b505050565b6005546001600160a01b031633146103de5760405163118cdaa760e01b815233600482015260240161037d565b6001600160a01b03838116600090815260016020908152604080832093861683529290522054600019811015610649578181101561063a57604051637dc7a0d960e11b81526001600160a01b0384166004820152602481018290526044810183905260640161037d565b6106498484848403600061073a565b50505050565b6001600160a01b03831661067957604051634b637e8f60e11b81526000600482015260240161037d565b6001600160a01b0382166106a35760405163ec442f0560e01b81526000600482015260240161037d565b61059e83838361080f565b600580546001600160a01b038381166001600160a01b0319831681179093556040519116919082907f8be0079c531659141344cd1fd0a4f28419497f9722a3daafe3b4186f6b6457e090600090a35050565b6001600160a01b03821661072a5760405163ec442f0560e01b81526000600482015260240161037d565b6107366000838361080f565b5050565b6001600160a01b0384166107645760405163e602df0560e01b81526000600482015260240161037d565b6001600160a01b03831661078e57604051634a1406b160e11b81526000600482015260240161037d565b6001600160a01b038085166000908152600160209081526040808320938716835292905220829055801561064957826001600160a01b0316846001600160a01b03167f8c5be1e5ebec7d5bd14f71427d1e84f3dd0314c0f7b2291e5b200ac8c7c3b9258460405161080191815260200190565b60405180910390a350505050565b6001600160a01b03831661083a57806002600082825461082f9190610b13565b909155506108ac9050565b6001600160a01b0383166000908152602081905260409020548181101561088d5760405163391434e360e21b81526001600160a01b0385166004820152602481018290526044810183905260640161037d565b6001600160a01b03841660009081526020819052604090209082900390555b6001600160a01b0382166108c8576002805482900390556108e7565b6001600160a01b03821660009081526020819052604090208054820190555b816001600160a01b0316836001600160a01b03167fddf252ad1be2c89b69c2b068fc378daa952ba7f163c4a11628f55a4df523b3ef8360405161092c91815260200190565b60405180910390a3505050565b600060208083528351808285015260005b818110156109665785810183015185820160400152820161094a565b506000604082860101526040601f19601f8301168501019250505092915050565b80356001600160a01b038116811461099e57600080fd5b919050565b600080604083850312156109b657600080fd5b6109bf83610987565b946020939093013593505050565b6000602082840312156109df57600080fd5b6109e882610987565b9392505050565b600080600060608486031215610a0457600080fd5b610a0d84610987565b9250610a1b60208501610987565b9150604084013590509250925092565b60008060408385031215610a3e57600080fd5b610a4783610987565b9150610a5560208401610987565b90509250929050565b600181811c90821680610a7257607f821691505b602082108103610a9257634e487b7160e01b600052602260045260246000fd5b50919050565b600060208284031215610aaa57600080fd5b5051919050565b634e487b7160e01b600052601160045260246000fd5b808202811582820484141761032b5761032b610ab1565b600082610afb57634e487b7160e01b600052601260045260246000fd5b500490565b8181038181111561032b5761032b610ab1565b8082018082111561032b5761032b610ab156fea26469706673582212209e6e3f2f80fa887a3a51b24a2515c410952ebdcb79a61ed8387aa9ba9d69df7564736f6c63430008140033",
  "linkReferences": {},
  "deployedLinkReferences": {}
}