{
  "_format": "hh-sol-artifact-1",
  "contractName": "MockSiloConfig",
  "sourceName": "contracts/mocks/MockSiloConfig.sol",
  "abi": [
    {
      "inputs": [
        {
          "internalType": "address",
          "name": "user",
          "type": "address"
        }
      ],
      "name": "getYieldRate",
      "outputs": [
        {
          "internalType": "uint256",
          "name": "",
          "type": "uint256"
        }
      ],
      "stateMutability": "view",
      "type": "function"
    },
    {
      "inputs": [
        {
          "internalType": "address",
          "name": "user",
          "type": "address"
        },
        {
          "internalType": "uint256",
          "name": "newYield",
          "type": "uint256"
        }
      ],
      "name": "updateYieldRate",
      "outputs": [],
      "stateMutability": "nonpayable",
      "type": "function"
    }
  ],
  "bytecode": "0x608060405234801561001057600080fd5b5061012f806100206000396000f3fe6080604052348015600f57600080fd5b506004361060325760003560e01c806333900766146037578063f37a55e414606f575b600080fd5b605d604236600460b3565b6001600160a01b031660009081526020819052604090205490565b60405190815260200160405180910390f35b6096607a36600460d2565b6001600160a01b03909116600090815260208190526040902055565b005b80356001600160a01b038116811460ae57600080fd5b919050565b60006020828403121560c457600080fd5b60cb826098565b9392505050565b6000806040838503121560e457600080fd5b60eb836098565b94602093909301359350505056fea264697066735822122059f732fcbb0d6a4e0c874d973a9fae32a1fb98b26b09b68935a0043f36932c0064736f6c63430008140033",
  "linkReferences": {},
  "deployedLinkReferences": {}
}