{
  "_format": "hh-sol-artifact-1",
  "contractName": "MockRoiProof",
  "sourceName": "contracts/mocks/MockRoiProof.sol",
  "abi": [
    {
      "inputs": [
        {
          "internalType": "uint256",
          "name": "tokenId",
          "type": "uint256"
        }
      ],
      "name": "getAIModelPerformance",
      "outputs": [
        {
          "internalType": "uint256",
          "name": "",
          "type": "uint256"
        }
      ],
      "stateMutability": "view",
      "type": "function"
    },
    {
      "inputs": [
        {
          "internalType": "uint256",
          "name": "tokenId",
          "type": "uint256"
        },
        {
          "internalType": "uint256",
          "name": "score",
          "type": "uint256"
        }
      ],
      "name": "setPerformance",
      "outputs": [],
      "stateMutability": "nonpayable",
      "type": "function"
    }
  ],
  "bytecode": "0x608060405234801561001057600080fd5b5060f48061001f6000396000f3fe6080604052348015600f57600080fd5b506004361060325760003560e01c80633a1b45791460375780637fba3d0a146056575b600080fd5b605460423660046085565b60009182526020829052604090912055565b005b6073606136600460a6565b60009081526020819052604090205490565b60405190815260200160405180910390f35b60008060408385031215609757600080fd5b50508035926020909101359150565b60006020828403121560b757600080fd5b503591905056fea264697066735822122095436f390a726a83cbad790e7d413110d6b8ad7723dd46e98b53e3e70b602d3e64736f6c63430008140033",
  "linkReferences": {},
  "deployedLinkReferences": {}
}