{
  "_format": "hh-sol-artifact-1",
  "contractName": "CredentialIssuer",
  "sourceName": "contracts/CredentialIssuer.sol",
  "abi": [
    {
      "inputs": [],
      "stateMutability": "nonpayable",
      "type": "constructor"
    },
    {
      "inputs": [
        {
          "internalType": "address",
          "name": "sender",
          "type": "address"
        },
        {
          "internalType": "uint256",
          "name": "tokenId",
          "type": "uint256"
        },
        {
          "internalType": "address",
          "name": "owner",
          "type": "address"
        }
      ],
      "name": "ERC721IncorrectOwner",
      "type": "error"
    },
    {
      "inputs": [
        {
          "internalType": "address",
          "name": "operator",
          "type": "address"
        },
        {
          "internalType": "uint256",
          "name": "tokenId",
          "type": "uint256"
        }
      ],
      "name": "ERC721InsufficientApproval",
      "type": "error"
    },
    {
      "inputs": [
        {
          "internalType": "address",
          "name": "approver",
          "type": "address"
        }
      ],
      "name": "ERC721InvalidApprover",
      "type": "error"
    },
    {
      "inputs": [
        {
          "internalType": "address",
          "name": "operator",
          "type": "address"
        }
      ],
      "name": "ERC721InvalidOperator",
      "type": "error"
    },
    {
      "inputs": [
        {
          "internalType": "address",
          "name": "owner",
          "type": "address"
        }
      ],
      "name": "ERC721InvalidOwner",
      "type": "error"
    },
    {
      "inputs": [
        {
          "internalType": "address",
          "name": "receiver",
          "type": "address"
        }
      ],
      "name": "ERC721InvalidReceiver",
      "type": "error"
    },
    {
      "inputs": [
        {
          "internalType": "address",
          "name": "sender",
          "type": "address"
        }
      ],
      "name": "ERC721InvalidSender",
      "type": "error"
    },
    {
      "inputs": [
        {
          "internalType": "uint256",
          "name": "tokenId",
          "type": "uint256"
        }
      ],
      "name": "ERC721NonexistentToken",
      "type": "error"
    },
    {
      "inputs": [
        {
          "internalType": "address",
          "name": "owner",
          "type": "address"
        }
      ],
      "name": "OwnableInvalidOwner",
      "type": "error"
    },
    {
      "inputs": [
        {
          "internalType": "address",
          "name": "account",
          "type": "address"
        }
      ],
      "name": "OwnableUnauthorizedAccount",
      "type": "error"
    },
    {
      "anonymous": false,
      "inputs": [
        {
          "indexed": true,
          "internalType": "address",
          "name": "owner",
          "type": "address"
        },
        {
          "indexed": true,
          "internalType": "address",
          "name": "approved",
          "type": "address"
        },
        {
          "indexed": true,
          "internalType": "uint256",
          "name": "tokenId",
          "type": "uint256"
        }
      ],
      "name": "Approval",
      "type": "event"
    },
    {
      "anonymous": false,
      "inputs": [
        {
          "indexed": true,
          "internalType": "address",
          "name": "owner",
          "type": "address"
        },
        {
          "indexed": true,
          "internalType": "address",
          "name": "operator",
          "type": "address"
        },
        {
          "indexed": false,
          "internalType": "bool",
          "name": "approved",
          "type": "bool"
        }
      ],
      "name": "ApprovalForAll",
      "type": "event"
    },
    {
      "anonymous": false,
      "inputs": [
        {
          "indexed": false,
          "internalType": "uint256",
          "name": "_fromTokenId",
          "type": "uint256"
        },
        {
          "indexed": false,
          "internalType": "uint256",
          "name": "_toTokenId",
          "type": "uint256"
        }
      ],
      "name": "BatchMetadataUpdate",
      "type": "event"
    },
    {
      "anonymous": false,
      "inputs": [
        {
          "indexed": true,
          "internalType": "address",
          "name": "provider",
          "type": "address"
        },
        {
          "indexed": true,
          "internalType": "uint256",
          "name": "tokenId",
          "type": "uint256"
        }
      ],
      "name": "CredentialIssued",
      "type": "event"
    },
    {
      "anonymous": false,
      "inputs": [
        {
          "indexed": false,
          "internalType": "uint256",
          "name": "_tokenId",
          "type": "uint256"
        }
      ],
      "name": "MetadataUpdate",
      "type": "event"
    },
    {
      "anonymous": false,
      "inputs": [
        {
          "indexed": true,
          "internalType": "address",
          "name": "previousOwner",
          "type": "address"
        },
        {
          "indexed": true,
          "internalType": "address",
          "name": "newOwner",
          "type": "address"
        }
      ],
      "name": "OwnershipTransferred",
      "type": "event"
    },
    {
      "anonymous": false,
      "inputs": [
        {
          "indexed": true,
          "internalType": "address",
          "name": "from",
          "type": "address"
        },
        {
          "indexed": true,
          "internalType": "address",
          "name": "to",
          "type": "address"
        },
        {
          "indexed": true,
          "internalType": "uint256",
          "name": "tokenId",
          "type": "uint256"
        }
      ],
      "name": "Transfer",
      "type": "event"
    },
    {
      "inputs": [
        {
          "internalType": "address",
          "name": "to",
          "type": "address"
        },
        {
          "internalType": "uint256",
          "name": "tokenId",
          "type": "uint256"
        }
      ],
      "name": "approve",
      "outputs": [],
      "stateMutability": "nonpayable",
      "type": "function"
    },
    {
      "inputs": [
        {
          "internalType": "address",
          "name": "owner",
          "type": "address"
        }
      ],
      "name": "balanceOf",
      "outputs": [
        {
          "internalType": "uint256",
          "name": "",
          "type": "uint256"
        }
      ],
      "stateMutability": "view",
      "type": "function"
    },
    {
      "inputs": [
        {
          "internalType": "uint256",
          "name": "tokenId",
          "type": "uint256"
        }
      ],
      "name": "getApproved",
      "outputs": [
        {
          "internalType": "address",
          "name": "",
          "type": "address"
        }
      ],
      "stateMutability": "view",
      "type": "function"
    },
    {
      "inputs": [
        {
          "internalType": "address",
          "name": "owner",
          "type": "address"
        },
        {
          "internalType": "address",
          "name": "operator",
          "type": "address"
        }
      ],
      "name": "isApprovedForAll",
      "outputs": [
        {
          "internalType": "bool",
          "name": "",
          "type": "bool"
        }
      ],
      "stateMutability": "view",
      "type": "function"
    },
    {
      "inputs": [
        {
          "internalType": "address",
          "name": "provider",
          "type": "address"
        },
        {
          "internalType": "string",
          "name": "dataHash",
          "type": "string"
        }
      ],
      "name": "issueCredential",
      "outputs": [],
      "stateMutability": "nonpayable",
      "type": "function"
    },
    {
      "inputs": [],
      "name": "name",
      "outputs": [
        {
          "internalType": "string",
          "name": "",
          "type": "string"
        }
      ],
      "stateMutability": "view",
      "type": "function"
    },
    {
      "inputs": [],
      "name": "owner",
      "outputs": [
        {
          "internalType": "address",
          "name": "",
          "type": "address"
        }
      ],
      "stateMutability": "view",
      "type": "function"
    },
    {
      "inputs": [
        {
          "internalType": "uint256",
          "name": "tokenId",
          "type": "uint256"
        }
      ],
      "name": "ownerOf",
      "outputs": [
        {
          "internalType": "address",
          "name": "",
          "type": "address"
        }
      ],
      "stateMutability": "view",
      "type": "function"
    },
    {
      "inputs": [],
      "name": "renounceOwnership",
      "outputs": [],
      "stateMutability": "nonpayable",
      "type": "function"
    },
    {
      "inputs": [
        {
          "internalType": "address",
          "name": "from",
          "type": "address"
        },
        {
          "internalType": "address",
          "name": "to",
          "type": "address"
        },
        {
          "internalType": "uint256",
          "name": "tokenId",
          "type": "uint256"
        }
      ],
      "name": "safeTransferFrom",
      "outputs": [],
      "stateMutability": "nonpayable",
      "type": "function"
    },
    {
      "inputs": [
        {
          "internalType": "address",
          "name": "from",
          "type": "address"
        },
        {
          "internalType": "address",
          "name": "to",
          "type": "address"
        },
        {
          "internalType": "uint256",
          "name": "tokenId",
          "type": "uint256"
        },
        {
          "internalType": "bytes",
          "name": "data",
          "type": "bytes"
        }
      ],
      "name": "safeTransferFrom",
      "outputs": [],
      "stateMutability": "nonpayable",
      "type": "function"
    },
    {
      "inputs": [
        {
          "internalType": "address",
          "name": "operator",
          "type": "address"
        },
        {
          "internalType": "bool",
          "name": "approved",
          "type": "bool"
        }
      ],
      "name": "setApprovalForAll",
      "outputs": [],
      "stateMutability": "nonpayable",
      "type": "function"
    },
    {
      "inputs": [
        {
          "internalType": "bytes4",
          "name": "interfaceId",
          "type": "bytes4"
        }
      ],
      "name": "supportsInterface",
      "outputs": [
        {
          "internalType": "bool",
          "name": "",
          "type": "bool"
        }
      ],
      "stateMutability": "view",
      "type": "function"
    },
    {
      "inputs": [],
      "name": "symbol",
      "outputs": [
        {
          "internalType": "string",
          "name": "",
          "type": "string"
        }
      ],
      "stateMutability": "view",
      "type": "function"
    },
    {
      "inputs": [
        {
          "internalType": "uint256",
          "name": "tokenId",
          "type": "uint256"
        }
      ],
      "name": "tokenURI",
      "outputs": [
        {
          "internalType": "string",
          "name": "",
          "type": "string"
        }
      ],
      "stateMutability": "view",
      "type": "function"
    },
    {
      "inputs": [
        {
          "internalType": "address",
          "name": "from",
          "type": "address"
        },
        {
          "internalType": "address",
          "name": "to",
          "type": "address"
        },
        {
          "internalType": "uint256",
          "name": "tokenId",
          "type": "uint256"
        }
      ],
      "name": "transferFrom",
      "outputs": [],
      "stateMutability": "nonpayable",
      "type": "function"
    },
    {
      "inputs": [
        {
          "internalType": "address",
          "name": "newOwner",
          "type": "address"
        }
      ],
      "name": "transferOwnership",
      "outputs": [],
      "stateMutability": "nonpayable",
      "type": "function"
    }
  ],
  "bytecode": "0x608060405234801561001057600080fd5b5061001f61013c60201b60201c565b6040518060400160405280601581526020017f44617461537761726d2043726564656e7469616c7300000000000000000000008152506040518060400160405280600681526020017f4453435245440000000000000000000000000000000000000000000000000000815250816000908161009a919061045a565b5080600190816100aa919061045a565b505050600073ffffffffffffffffffffffffffffffffffffffff168173ffffffffffffffffffffffffffffffffffffffff160361011f5760006040517f1e4fbdf7000000000000000000000000000000000000000000000000000000008152600401610116919061056d565b60405180910390fd5b61012e8161014460201b60201c565b506001600881905550610588565b600033905090565b6000600760009054906101000a900473ffffffffffffffffffffffffffffffffffffffff16905081600760006101000a81548173ffffffffffffffffffffffffffffffffffffffff021916908373ffffffffffffffffffffffffffffffffffffffff1602179055508173ffffffffffffffffffffffffffffffffffffffff168173ffffffffffffffffffffffffffffffffffffffff167f8be0079c531659141344cd1fd0a4f28419497f9722a3daafe3b4186f6b6457e060405160405180910390a35050565b600081519050919050565b7f4e487b7100000000000000000000000000000000000000000000000000000000600052604160045260246000fd5b7f4e487b7100000000000000000000000000000000000000000000000000000000600052602260045260246000fd5b6000600282049050600182168061028b57607f821691505b60208210810361029e5761029d610244565b5b50919050565b60008190508160005260206000209050919050565b60006020601f8301049050919050565b600082821b905092915050565b6000600883026103067fffffffffffffffffffffffffffffffffffffffffffffffffffffffffffffffff826102c9565b61031086836102c9565b95508019841693508086168417925050509392505050565b6000819050919050565b6000819050919050565b600061035761035261034d84610328565b610332565b610328565b9050919050565b6000819050919050565b6103718361033c565b61038561037d8261035e565b8484546102d6565b825550505050565b600090565b61039a61038d565b6103a5818484610368565b505050565b5b818110156103c9576103be600082610392565b6001810190506103ab565b5050565b601f82111561040e576103df816102a4565b6103e8846102b9565b810160208510156103f7578190505b61040b610403856102b9565b8301826103aa565b50505b505050565b600082821c905092915050565b600061043160001984600802610413565b1980831691505092915050565b600061044a8383610420565b9150826002028217905092915050565b6104638261020a565b67ffffffffffffffff81111561047c5761047b610215565b5b6104868254610273565b6104918282856103cd565b600060209050601f8311600181146104c457600084156104b2578287015190505b6104bc858261043e565b865550610524565b601f1984166104d2866102a4565b60005b828110156104fa578489015182556001820191506020850194506020810190506104d5565b868310156105175784890151610513601f891682610420565b8355505b6001600288020188555050505b505050505050565b600073ffffffffffffffffffffffffffffffffffffffff82169050919050565b60006105578261052c565b9050919050565b6105678161054c565b82525050565b6000602082019050610582600083018461055e565b92915050565b61266a806105976000396000f3fe608060405234801561001057600080fd5b506004361061010b5760003560e01c8063715018a6116100a2578063a22cb46511610071578063a22cb465146102a4578063b88d4fde146102c0578063c87b56dd146102dc578063e985e9c51461030c578063f2fde38b1461033c5761010b565b8063715018a6146102425780638da5cb5b1461024c57806390c7c49c1461026a57806395d89b41146102865761010b565b806323b872dd116100de57806323b872dd146101aa57806342842e0e146101c65780636352211e146101e257806370a08231146102125761010b565b806301ffc9a71461011057806306fdde0314610140578063081812fc1461015e578063095ea7b31461018e575b600080fd5b61012a60048036038101906101259190611ac2565b610358565b6040516101379190611b0a565b60405180910390f35b6101486103b9565b6040516101559190611bb5565b60405180910390f35b61017860048036038101906101739190611c0d565b61044b565b6040516101859190611c7b565b60405180910390f35b6101a860048036038101906101a39190611cc2565b610467565b005b6101c460048036038101906101bf9190611d02565b61047d565b005b6101e060048036038101906101db9190611d02565b61057f565b005b6101fc60048036038101906101f79190611c0d565b61059f565b6040516102099190611c7b565b60405180910390f35b61022c60048036038101906102279190611d55565b6105b1565b6040516102399190611d91565b60405180910390f35b61024a61066b565b005b61025461067f565b6040516102619190611c7b565b60405180910390f35b610284600480360381019061027f9190611ee1565b6106a9565b005b61028e61072d565b60405161029b9190611bb5565b60405180910390f35b6102be60048036038101906102b99190611f69565b6107bf565b005b6102da60048036038101906102d5919061204a565b6107d5565b005b6102f660048036038101906102f19190611c0d565b6107fa565b6040516103039190611bb5565b60405180910390f35b610326600480360381019061032191906120cd565b61090d565b6040516103339190611b0a565b60405180910390f35b61035660048036038101906103519190611d55565b6109a1565b005b6000634906490660e01b7bffffffffffffffffffffffffffffffffffffffffffffffffffffffff1916827bffffffffffffffffffffffffffffffffffffffffffffffffffffffff191614806103b257506103b182610a27565b5b9050919050565b6060600080546103c89061213c565b80601f01602080910402602001604051908101604052809291908181526020018280546103f49061213c565b80156104415780601f1061041657610100808354040283529160200191610441565b820191906000526020600020905b81548152906001019060200180831161042457829003601f168201915b5050505050905090565b600061045682610b09565b5061046082610b91565b9050919050565b6104798282610474610bce565b610bd6565b5050565b600073ffffffffffffffffffffffffffffffffffffffff168273ffffffffffffffffffffffffffffffffffffffff16036104ef5760006040517f64a0ae920000000000000000000000000000000000000000000000000000000081526004016104e69190611c7b565b60405180910390fd5b600061050383836104fe610bce565b610be8565b90508373ffffffffffffffffffffffffffffffffffffffff168173ffffffffffffffffffffffffffffffffffffffff1614610579578382826040517f64283d7b0000000000000000000000000000000000000000000000000000000081526004016105709392919061216d565b60405180910390fd5b50505050565b61059a838383604051806020016040528060008152506107d5565b505050565b60006105aa82610b09565b9050919050565b60008073ffffffffffffffffffffffffffffffffffffffff168273ffffffffffffffffffffffffffffffffffffffff16036106245760006040517f89c62b6400000000000000000000000000000000000000000000000000000000815260040161061b9190611c7b565b60405180910390fd5b600360008373ffffffffffffffffffffffffffffffffffffffff1673ffffffffffffffffffffffffffffffffffffffff168152602001908152602001600020549050919050565b610673610e02565b61067d6000610e89565b565b6000600760009054906101000a900473ffffffffffffffffffffffffffffffffffffffff16905090565b6106b1610e02565b60006008549050600860008154809291906106cb906121d3565b91905055506106da8382610f4f565b6106e48183611048565b808373ffffffffffffffffffffffffffffffffffffffff167f8a327f325a39d61d07dfd7326f422a96771beb439f36a3d8a3cd3adea50476db60405160405180910390a3505050565b60606001805461073c9061213c565b80601f01602080910402602001604051908101604052809291908181526020018280546107689061213c565b80156107b55780601f1061078a576101008083540402835291602001916107b5565b820191906000526020600020905b81548152906001019060200180831161079857829003601f168201915b5050505050905090565b6107d16107ca610bce565b83836110a4565b5050565b6107e084848461047d565b6107f46107eb610bce565b85858585611213565b50505050565b606061080582610b09565b5060006006600084815260200190815260200160002080546108269061213c565b80601f01602080910402602001604051908101604052809291908181526020018280546108529061213c565b801561089f5780601f106108745761010080835404028352916020019161089f565b820191906000526020600020905b81548152906001019060200180831161088257829003601f168201915b5050505050905060006108b06113c4565b905060008151036108c5578192505050610908565b6000825111156108fa5780826040516020016108e2929190612257565b60405160208183030381529060405292505050610908565b610903846113db565b925050505b919050565b6000600560008473ffffffffffffffffffffffffffffffffffffffff1673ffffffffffffffffffffffffffffffffffffffff16815260200190815260200160002060008373ffffffffffffffffffffffffffffffffffffffff1673ffffffffffffffffffffffffffffffffffffffff16815260200190815260200160002060009054906101000a900460ff16905092915050565b6109a9610e02565b600073ffffffffffffffffffffffffffffffffffffffff168173ffffffffffffffffffffffffffffffffffffffff1603610a1b5760006040517f1e4fbdf7000000000000000000000000000000000000000000000000000000008152600401610a129190611c7b565b60405180910390fd5b610a2481610e89565b50565b60007f80ac58cd000000000000000000000000000000000000000000000000000000007bffffffffffffffffffffffffffffffffffffffffffffffffffffffff1916827bffffffffffffffffffffffffffffffffffffffffffffffffffffffff19161480610af257507f5b5e139f000000000000000000000000000000000000000000000000000000007bffffffffffffffffffffffffffffffffffffffffffffffffffffffff1916827bffffffffffffffffffffffffffffffffffffffffffffffffffffffff1916145b80610b025750610b0182611444565b5b9050919050565b600080610b15836114ae565b9050600073ffffffffffffffffffffffffffffffffffffffff168173ffffffffffffffffffffffffffffffffffffffff1603610b8857826040517f7e273289000000000000000000000000000000000000000000000000000000008152600401610b7f9190611d91565b60405180910390fd5b80915050919050565b60006004600083815260200190815260200160002060009054906101000a900473ffffffffffffffffffffffffffffffffffffffff169050919050565b600033905090565b610be383838360016114eb565b505050565b600080610bf4846114ae565b9050600073ffffffffffffffffffffffffffffffffffffffff168373ffffffffffffffffffffffffffffffffffffffff1614610c3657610c358184866116b0565b5b600073ffffffffffffffffffffffffffffffffffffffff168173ffffffffffffffffffffffffffffffffffffffff1614610cc757610c786000856000806114eb565b6001600360008373ffffffffffffffffffffffffffffffffffffffff1673ffffffffffffffffffffffffffffffffffffffff168152602001908152602001600020600082825403925050819055505b600073ffffffffffffffffffffffffffffffffffffffff168573ffffffffffffffffffffffffffffffffffffffff1614610d4a576001600360008773ffffffffffffffffffffffffffffffffffffffff1673ffffffffffffffffffffffffffffffffffffffff168152602001908152602001600020600082825401925050819055505b846002600086815260200190815260200160002060006101000a81548173ffffffffffffffffffffffffffffffffffffffff021916908373ffffffffffffffffffffffffffffffffffffffff160217905550838573ffffffffffffffffffffffffffffffffffffffff168273ffffffffffffffffffffffffffffffffffffffff167fddf252ad1be2c89b69c2b068fc378daa952ba7f163c4a11628f55a4df523b3ef60405160405180910390a4809150509392505050565b610e0a610bce565b73ffffffffffffffffffffffffffffffffffffffff16610e2861067f565b73ffffffffffffffffffffffffffffffffffffffff1614610e8757610e4b610bce565b6040517f118cdaa7000000000000000000000000000000000000000000000000000000008152600401610e7e9190611c7b565b60405180910390fd5b565b6000600760009054906101000a900473ffffffffffffffffffffffffffffffffffffffff16905081600760006101000a81548173ffffffffffffffffffffffffffffffffffffffff021916908373ffffffffffffffffffffffffffffffffffffffff1602179055508173ffffffffffffffffffffffffffffffffffffffff168173ffffffffffffffffffffffffffffffffffffffff167f8be0079c531659141344cd1fd0a4f28419497f9722a3daafe3b4186f6b6457e060405160405180910390a35050565b600073ffffffffffffffffffffffffffffffffffffffff168273ffffffffffffffffffffffffffffffffffffffff1603610fc15760006040517f64a0ae92000000000000000000000000000000000000000000000000000000008152600401610fb89190611c7b565b60405180910390fd5b6000610fcf83836000610be8565b9050600073ffffffffffffffffffffffffffffffffffffffff168173ffffffffffffffffffffffffffffffffffffffff16146110435760006040517f73c6ac6e00000000000000000000000000000000000000000000000000000000815260040161103a9190611c7b565b60405180910390fd5b505050565b806006600084815260200190815260200160002090816110689190612427565b507ff8e1a15aba9398e019f0b49df1a4fde98ee17ae345cb5f6b5e2c27f5033e8ce7826040516110989190611d91565b60405180910390a15050565b600073ffffffffffffffffffffffffffffffffffffffff168273ffffffffffffffffffffffffffffffffffffffff160361111557816040517f5b08ba1800000000000000000000000000000000000000000000000000000000815260040161110c9190611c7b565b60405180910390fd5b80600560008573ffffffffffffffffffffffffffffffffffffffff1673ffffffffffffffffffffffffffffffffffffffff16815260200190815260200160002060008473ffffffffffffffffffffffffffffffffffffffff1673ffffffffffffffffffffffffffffffffffffffff16815260200190815260200160002060006101000a81548160ff0219169083151502179055508173ffffffffffffffffffffffffffffffffffffffff168373ffffffffffffffffffffffffffffffffffffffff167f17307eab39ab6107e8899845ad3d59bd9653f200f220920489ca2b5937696c31836040516112069190611b0a565b60405180910390a3505050565b60008373ffffffffffffffffffffffffffffffffffffffff163b11156113bd578273ffffffffffffffffffffffffffffffffffffffff1663150b7a02868685856040518563ffffffff1660e01b8152600401611272949392919061254e565b6020604051808303816000875af19250505080156112ae57506040513d601f19601f820116820180604052508101906112ab91906125af565b60015b611332573d80600081146112de576040519150601f19603f3d011682016040523d82523d6000602084013e6112e3565b606091505b50600081510361132a57836040517f64a0ae920000000000000000000000000000000000000000000000000000000081526004016113219190611c7b565b60405180910390fd5b805181602001fd5b63150b7a0260e01b7bffffffffffffffffffffffffffffffffffffffffffffffffffffffff1916817bffffffffffffffffffffffffffffffffffffffffffffffffffffffff1916146113bb57836040517f64a0ae920000000000000000000000000000000000000000000000000000000081526004016113b29190611c7b565b60405180910390fd5b505b5050505050565b606060405180602001604052806000815250905090565b60606113e682610b09565b5060006113f16113c4565b90506000815111611411576040518060200160405280600081525061143c565b8061141b84611774565b60405160200161142c929190612257565b6040516020818303038152906040525b915050919050565b60007f01ffc9a7000000000000000000000000000000000000000000000000000000007bffffffffffffffffffffffffffffffffffffffffffffffffffffffff1916827bffffffffffffffffffffffffffffffffffffffffffffffffffffffff1916149050919050565b60006002600083815260200190815260200160002060009054906101000a900473ffffffffffffffffffffffffffffffffffffffff169050919050565b80806115245750600073ffffffffffffffffffffffffffffffffffffffff168273ffffffffffffffffffffffffffffffffffffffff1614155b1561165857600061153484610b09565b9050600073ffffffffffffffffffffffffffffffffffffffff168373ffffffffffffffffffffffffffffffffffffffff161415801561159f57508273ffffffffffffffffffffffffffffffffffffffff168173ffffffffffffffffffffffffffffffffffffffff1614155b80156115b257506115b0818461090d565b155b156115f457826040517fa9fbf51f0000000000000000000000000000000000000000000000000000000081526004016115eb9190611c7b565b60405180910390fd5b811561165657838573ffffffffffffffffffffffffffffffffffffffff168273ffffffffffffffffffffffffffffffffffffffff167f8c5be1e5ebec7d5bd14f71427d1e84f3dd0314c0f7b2291e5b200ac8c7c3b92560405160405180910390a45b505b836004600085815260200190815260200160002060006101000a81548173ffffffffffffffffffffffffffffffffffffffff021916908373ffffffffffffffffffffffffffffffffffffffff16021790555050505050565b6116bb838383611842565b61176f57600073ffffffffffffffffffffffffffffffffffffffff168373ffffffffffffffffffffffffffffffffffffffff160361173057806040517f7e2732890000000000000000000000000000000000000000000000000000000081526004016117279190611d91565b60405180910390fd5b81816040517f177e802f0000000000000000000000000000000000000000000000000000000081526004016117669291906125dc565b60405180910390fd5b505050565b60606000600161178384611903565b01905060008167ffffffffffffffff8111156117a2576117a1611db6565b5b6040519080825280601f01601f1916602001820160405280156117d45781602001600182028036833780820191505090505b509050600082602001820190505b600115611837578080600190039150507f3031323334353637383961626364656600000000000000000000000000000000600a86061a8153600a858161182b5761182a612605565b5b049450600085036117e2575b819350505050919050565b60008073ffffffffffffffffffffffffffffffffffffffff168373ffffffffffffffffffffffffffffffffffffffff16141580156118fa57508273ffffffffffffffffffffffffffffffffffffffff168473ffffffffffffffffffffffffffffffffffffffff1614806118bb57506118ba848461090d565b5b806118f957508273ffffffffffffffffffffffffffffffffffffffff166118e183610b91565b73ffffffffffffffffffffffffffffffffffffffff16145b5b90509392505050565b600080600090507a184f03e93ff9f4daa797ed6e38ed64bf6a1f0100000000000000008310611961577a184f03e93ff9f4daa797ed6e38ed64bf6a1f010000000000000000838161195757611956612605565b5b0492506040810190505b6d04ee2d6d415b85acef8100000000831061199e576d04ee2d6d415b85acef8100000000838161199457611993612605565b5b0492506020810190505b662386f26fc1000083106119cd57662386f26fc1000083816119c3576119c2612605565b5b0492506010810190505b6305f5e10083106119f6576305f5e10083816119ec576119eb612605565b5b0492506008810190505b6127108310611a1b576127108381611a1157611a10612605565b5b0492506004810190505b60648310611a3e5760648381611a3457611a33612605565b5b0492506002810190505b600a8310611a4d576001810190505b80915050919050565b6000604051905090565b600080fd5b600080fd5b60007fffffffff0000000000000000000000000000000000000000000000000000000082169050919050565b611a9f81611a6a565b8114611aaa57600080fd5b50565b600081359050611abc81611a96565b92915050565b600060208284031215611ad857611ad7611a60565b5b6000611ae684828501611aad565b91505092915050565b60008115159050919050565b611b0481611aef565b82525050565b6000602082019050611b1f6000830184611afb565b92915050565b600081519050919050565b600082825260208201905092915050565b60005b83811015611b5f578082015181840152602081019050611b44565b60008484015250505050565b6000601f19601f8301169050919050565b6000611b8782611b25565b611b918185611b30565b9350611ba1818560208601611b41565b611baa81611b6b565b840191505092915050565b60006020820190508181036000830152611bcf8184611b7c565b905092915050565b6000819050919050565b611bea81611bd7565b8114611bf557600080fd5b50565b600081359050611c0781611be1565b92915050565b600060208284031215611c2357611c22611a60565b5b6000611c3184828501611bf8565b91505092915050565b600073ffffffffffffffffffffffffffffffffffffffff82169050919050565b6000611c6582611c3a565b9050919050565b611c7581611c5a565b82525050565b6000602082019050611c906000830184611c6c565b92915050565b611c9f81611c5a565b8114611caa57600080fd5b50565b600081359050611cbc81611c96565b92915050565b60008060408385031215611cd957611cd8611a60565b5b6000611ce785828601611cad565b9250506020611cf885828601611bf8565b9150509250929050565b600080600060608486031215611d1b57611d1a611a60565b5b6000611d2986828701611cad565b9350506020611d3a86828701611cad565b9250506040611d4b86828701611bf8565b9150509250925092565b600060208284031215611d6b57611d6a611a60565b5b6000611d7984828501611cad565b91505092915050565b611d8b81611bd7565b82525050565b6000602082019050611da66000830184611d82565b92915050565b600080fd5b600080fd5b7f4e487b7100000000000000000000000000000000000000000000000000000000600052604160045260246000fd5b611dee82611b6b565b810181811067ffffffffffffffff82111715611e0d57611e0c611db6565b5b80604052505050565b6000611e20611a56565b9050611e2c8282611de5565b919050565b600067ffffffffffffffff821115611e4c57611e4b611db6565b5b611e5582611b6b565b9050602081019050919050565b82818337600083830152505050565b6000611e84611e7f84611e31565b611e16565b905082815260208101848484011115611ea057611e9f611db1565b5b611eab848285611e62565b509392505050565b600082601f830112611ec857611ec7611dac565b5b8135611ed8848260208601611e71565b91505092915050565b60008060408385031215611ef857611ef7611a60565b5b6000611f0685828601611cad565b925050602083013567ffffffffffffffff811115611f2757611f26611a65565b5b611f3385828601611eb3565b9150509250929050565b611f4681611aef565b8114611f5157600080fd5b50565b600081359050611f6381611f3d565b92915050565b60008060408385031215611f8057611f7f611a60565b5b6000611f8e85828601611cad565b9250506020611f9f85828601611f54565b9150509250929050565b600067ffffffffffffffff821115611fc457611fc3611db6565b5b611fcd82611b6b565b9050602081019050919050565b6000611fed611fe884611fa9565b611e16565b90508281526020810184848401111561200957612008611db1565b5b612014848285611e62565b509392505050565b600082601f83011261203157612030611dac565b5b8135612041848260208601611fda565b91505092915050565b6000806000806080858703121561206457612063611a60565b5b600061207287828801611cad565b945050602061208387828801611cad565b935050604061209487828801611bf8565b925050606085013567ffffffffffffffff8111156120b5576120b4611a65565b5b6120c18782880161201c565b91505092959194509250565b600080604083850312156120e4576120e3611a60565b5b60006120f285828601611cad565b925050602061210385828601611cad565b9150509250929050565b7f4e487b7100000000000000000000000000000000000000000000000000000000600052602260045260246000fd5b6000600282049050600182168061215457607f821691505b6020821081036121675761216661210d565b5b50919050565b60006060820190506121826000830186611c6c565b61218f6020830185611d82565b61219c6040830184611c6c565b949350505050565b7f4e487b7100000000000000000000000000000000000000000000000000000000600052601160045260246000fd5b60006121de82611bd7565b91507fffffffffffffffffffffffffffffffffffffffffffffffffffffffffffffffff82036122105761220f6121a4565b5b600182019050919050565b600081905092915050565b600061223182611b25565b61223b818561221b565b935061224b818560208601611b41565b80840191505092915050565b60006122638285612226565b915061226f8284612226565b91508190509392505050565b60008190508160005260206000209050919050565b60006020601f8301049050919050565b600082821b905092915050565b6000600883026122dd7fffffffffffffffffffffffffffffffffffffffffffffffffffffffffffffffff826122a0565b6122e786836122a0565b95508019841693508086168417925050509392505050565b6000819050919050565b600061232461231f61231a84611bd7565b6122ff565b611bd7565b9050919050565b6000819050919050565b61233e83612309565b61235261234a8261232b565b8484546122ad565b825550505050565b600090565b61236761235a565b612372818484612335565b505050565b5b818110156123965761238b60008261235f565b600181019050612378565b5050565b601f8211156123db576123ac8161227b565b6123b584612290565b810160208510156123c4578190505b6123d86123d085612290565b830182612377565b50505b505050565b600082821c905092915050565b60006123fe600019846008026123e0565b1980831691505092915050565b600061241783836123ed565b9150826002028217905092915050565b61243082611b25565b67ffffffffffffffff81111561244957612448611db6565b5b612453825461213c565b61245e82828561239a565b600060209050601f831160018114612491576000841561247f578287015190505b612489858261240b565b8655506124f1565b601f19841661249f8661227b565b60005b828110156124c7578489015182556001820191506020850194506020810190506124a2565b868310156124e457848901516124e0601f8916826123ed565b8355505b6001600288020188555050505b505050505050565b600081519050919050565b600082825260208201905092915050565b6000612520826124f9565b61252a8185612504565b935061253a818560208601611b41565b61254381611b6b565b840191505092915050565b60006080820190506125636000830187611c6c565b6125706020830186611c6c565b61257d6040830185611d82565b818103606083015261258f8184612515565b905095945050505050565b6000815190506125a981611a96565b92915050565b6000602082840312156125c5576125c4611a60565b5b60006125d38482850161259a565b91505092915050565b60006040820190506125f16000830185611c6c565b6125fe6020830184611d82565b9392505050565b7f4e487b7100000000000000000000000000000000000000000000000000000000600052601260045260246000fdfea264697066735822122004e55d49f1b532fac07c8427be7764b53e37a3ff6a831d3930872ab090ef1e9664736f6c634300081c0033",
  "linkReferences": {},
  "deployedLinkReferences": {}
}