{"abi":[{"type":"constructor","inputs":[{"name":"_storyIntegration","type":"address","internalType":"address"}],"stateMutability":"nonpayable"},{"type":"function","name":"approve","inputs":[{"name":"to","type":"address","internalType":"address"},{"name":"tokenId","type":"uint256","internalType":"uint256"}],"outputs":[],"stateMutability":"nonpayable"},{"type":"function","name":"balanceOf","inputs":[{"name":"owner","type":"address","internalType":"address"}],"outputs":[{"name":"","type":"uint256","internalType":"uint256"}],"stateMutability":"view"},{"type":"function","name":"datasets","inputs":[{"name":"","type":"uint256","internalType":"uint256"}],"outputs":[{"name":"metadata","type":"string","internalType":"string"},{"name":"tokenId","type":"uint256","internalType":"uint256"},{"name":"uploader","type":"address","internalType":"address"},{"name":"ipId","type":"address","internalType":"address"},{"name":"licenseTermsId","type":"uint256","internalType":"uint256"}],"stateMutability":"view"},{"type":"function","name":"getApproved","inputs":[{"name":"tokenId","type":"uint256","internalType":"uint256"}],"outputs":[{"name":"","type":"address","internalType":"address"}],"stateMutability":"view"},{"type":"function","name":"isApprovedForAll","inputs":[{"name":"owner","type":"address","internalType":"address"},{"name":"operator","type":"address","internalType":"address"}],"outputs":[{"name":"","type":"bool","internalType":"bool"}],"stateMutability":"view"},{"type":"function","name":"name","inputs":[],"outputs":[{"name":"","type":"string","internalType":"string"}],"stateMutability":"view"},{"type":"function","name":"owner","inputs":[],"outputs":[{"name":"","type":"address","internalType":"address"}],"stateMutability":"view"},{"type":"function","name":"ownerOf","inputs":[{"name":"tokenId","type":"uint256","internalType":"uint256"}],"outputs":[{"name":"","type":"address","internalType":"address"}],"stateMutability":"view"},{"type":"function","name":"renounceOwnership","inputs":[],"outputs":[],"stateMutability":"nonpayable"},{"type":"function","name":"safeTransferFrom","inputs":[{"name":"from","type":"address","internalType":"address"},{"name":"to","type":"address","internalType":"address"},{"name":"tokenId","type":"uint256","internalType":"uint256"}],"outputs":[],"stateMutability":"nonpayable"},{"type":"function","name":"safeTransferFrom","inputs":[{"name":"from","type":"address","internalType":"address"},{"name":"to","type":"address","internalType":"address"},{"name":"tokenId","type":"uint256","internalType":"uint256"},{"name":"data","type":"bytes","internalType":"bytes"}],"outputs":[],"stateMutability":"nonpayable"},{"type":"function","name":"setApprovalForAll","inputs":[{"name":"operator","type":"address","internalType":"address"},{"name":"approved","type":"bool","internalType":"bool"}],"outputs":[],"stateMutability":"nonpayable"},{"type":"function","name":"storyIntegration","inputs":[],"outputs":[{"name":"","type":"address","internalType":"contract StoryIntegration"}],"stateMutability":"view"},{"type":"function","name":"supportsInterface","inputs":[{"name":"interfaceId","type":"bytes4","internalType":"bytes4"}],"outputs":[{"name":"","type":"bool","internalType":"bool"}],"stateMutability":"view"},{"type":"function","name":"symbol","inputs":[],"outputs":[{"name":"","type":"string","internalType":"string"}],"stateMutability":"view"},{"type":"function","name":"tokenURI","inputs":[{"name":"tokenId","type":"uint256","internalType":"uint256"}],"outputs":[{"name":"","type":"string","internalType":"string"}],"stateMutability":"view"},{"type":"function","name":"transferFrom","inputs":[{"name":"from","type":"address","internalType":"address"},{"name":"to","type":"address","internalType":"address"},{"name":"tokenId","type":"uint256","internalType":"uint256"}],"outputs":[],"stateMutability":"nonpayable"},{"type":"function","name":"transferOwnership","inputs":[{"name":"newOwner","type":"address","internalType":"address"}],"outputs":[],"stateMutability":"nonpayable"},{"type":"function","name":"uploadDataset","inputs":[{"name":"metadata","type":"string","internalType":"string"}],"outputs":[{"name":"","type":"uint256","internalType":"uint256"},{"name":"","type":"address","internalType":"address"},{"name":"","type":"uint256","internalType":"uint256"}],"stateMutability":"nonpayable"},{"type":"event","name":"Approval","inputs":[{"name":"owner","type":"address","indexed":true,"internalType":"address"},{"name":"approved","type":"address","indexed":true,"internalType":"address"},{"name":"tokenId","type":"uint256","indexed":true,"internalType":"uint256"}],"anonymous":false},{"type":"event","name":"ApprovalForAll","inputs":[{"name":"owner","type":"address","indexed":true,"internalType":"address"},{"name":"operator","type":"address","indexed":true,"internalType":"address"},{"name":"approved","type":"bool","indexed":false,"internalType":"bool"}],"anonymous":false},{"type":"event","name":"BatchMetadataUpdate","inputs":[{"name":"_fromTokenId","type":"uint256","indexed":false,"internalType":"uint256"},{"name":"_toTokenId","type":"uint256","indexed":false,"internalType":"uint256"}],"anonymous":false},{"type":"event","name":"DatasetUploaded","inputs":[{"name":"tokenId","type":"uint256","indexed":true,"internalType":"uint256"},{"name":"uploader","type":"address","indexed":true,"internalType":"address"},{"name":"metadata","type":"string","indexed":false,"internalType":"string"},{"name":"ipId","type":"address","indexed":false,"internalType":"address"}],"anonymous":false},{"type":"event","name":"MetadataUpdate","inputs":[{"name":"_tokenId","type":"uint256","indexed":false,"internalType":"uint256"}],"anonymous":false},{"type":"event","name":"OwnershipTransferred","inputs":[{"name":"previousOwner","type":"address","indexed":true,"internalType":"address"},{"name":"newOwner","type":"address","indexed":true,"internalType":"address"}],"anonymous":false},{"type":"event","name":"Transfer","inputs":[{"name":"from","type":"address","indexed":true,"internalType":"address"},{"name":"to","type":"address","indexed":true,"internalType":"address"},{"name":"tokenId","type":"uint256","indexed":true,"internalType":"uint256"}],"anonymous":false},{"type":"error","name":"ERC721IncorrectOwner","inputs":[{"name":"sender","type":"address","internalType":"address"},{"name":"tokenId","type":"uint256","internalType":"uint256"},{"name":"owner","type":"address","internalType":"address"}]},{"type":"error","name":"ERC721InsufficientApproval","inputs":[{"name":"operator","type":"address","internalType":"address"},{"name":"tokenId","type":"uint256","internalType":"uint256"}]},{"type":"error","name":"ERC721InvalidApprover","inputs":[{"name":"approver","type":"address","internalType":"address"}]},{"type":"error","name":"ERC721InvalidOperator","inputs":[{"name":"operator","type":"address","internalType":"address"}]},{"type":"error","name":"ERC721InvalidOwner","inputs":[{"name":"owner","type":"address","internalType":"address"}]},{"type":"error","name":"ERC721InvalidReceiver","inputs":[{"name":"receiver","type":"address","internalType":"address"}]},{"type":"error","name":"ERC721InvalidSender","inputs":[{"name":"sender","type":"address","internalType":"address"}]},{"type":"error","name":"ERC721NonexistentToken","inputs":[{"name":"tokenId","type":"uint256","internalType":"uint256"}]},{"type":"error","name":"OwnableInvalidOwner","inputs":[{"name":"owner","type":"address","internalType":"address"}]},{"type":"error","name":"OwnableUnauthorizedAccount","inputs":[{"name":"account","type":"address","internalType":"address"}]}],"bytecode":{"object":"0x608060405234801562000010575f80fd5b506040516200211f3803806200211f833981016040819052620000339162000150565b336040518060400160405280601181526020017011185d1854ddd85c9b4811185d185cd95d607a1b8152506040518060400160405280600681526020016544534441544160d01b815250815f90816200008d91906200021f565b5060016200009c82826200021f565b5050506001600160a01b038116620000cd57604051631e4fbdf760e01b81525f600482015260240160405180910390fd5b620000d881620000ff565b50600980546001600160a01b0319166001600160a01b0392909216919091179055620002e7565b600780546001600160a01b038381166001600160a01b0319831681179093556040519116919082907f8be0079c531659141344cd1fd0a4f28419497f9722a3daafe3b4186f6b6457e0905f90a35050565b5f6020828403121562000161575f80fd5b81516001600160a01b038116811462000178575f80fd5b9392505050565b634e487b7160e01b5f52604160045260245ffd5b600181811c90821680620001a857607f821691505b602082108103620001c757634e487b7160e01b5f52602260045260245ffd5b50919050565b601f8211156200021a575f81815260208120601f850160051c81016020861015620001f55750805b601f850160051c820191505b81811015620002165782815560010162000201565b5050505b505050565b81516001600160401b038111156200023b576200023b6200017f565b62000253816200024c845462000193565b84620001cd565b602080601f83116001811462000289575f8415620002715750858301515b5f19600386901b1c1916600185901b17855562000216565b5f85815260208120601f198616915b82811015620002b95788860151825594840194600190910190840162000298565b5085821015620002d757878501515f19600388901b60f8161c191681555b5050505050600190811b01905550565b611e2a80620002f55f395ff3fe608060405234801561000f575f80fd5b5060043610610149575f3560e01c806370a08231116100c7578063a22cb4651161007d578063c87b56dd11610063578063c87b56dd1461030c578063e985e9c51461031f578063f2fde38b14610367575f80fd5b8063a22cb465146102e6578063b88d4fde146102f9575f80fd5b80637499d6f6116100ad5780637499d6f61461027d5780638da5cb5b146102c057806395d89b41146102de575f80fd5b806370a0823114610254578063715018a614610275575f80fd5b80631cff85e11161011c57806342842e0e1161010257806342842e0e1461020e5780636352211e14610221578063676c702a14610234575f80fd5b80631cff85e1146101d757806323b872dd146101fb575f80fd5b806301ffc9a71461014d57806306fdde0314610175578063081812fc1461018a578063095ea7b3146101c2575b5f80fd5b61016061015b366004611798565b61037a565b60405190151581526020015b60405180910390f35b61017d6103d5565b60405161016c919061181e565b61019d610198366004611830565b610464565b60405173ffffffffffffffffffffffffffffffffffffffff909116815260200161016c565b6101d56101d0366004611868565b610498565b005b6101ea6101e5366004611830565b6104a7565b60405161016c959493929190611892565b6101d56102093660046118dc565b610575565b6101d561021c3660046118dc565b610669565b61019d61022f366004611830565b610688565b60095461019d9073ffffffffffffffffffffffffffffffffffffffff1681565b61026761026236600461191a565b610692565b60405190815260200161016c565b6101d561070a565b61029061028b3660046119f3565b61071d565b6040805193845273ffffffffffffffffffffffffffffffffffffffff90921660208401529082015260600161016c565b60075473ffffffffffffffffffffffffffffffffffffffff1661019d565b61017d610909565b6101d56102f4366004611a38565b610918565b6101d5610307366004611a73565b610923565b61017d61031a366004611830565b61093b565b61016061032d366004611aee565b73ffffffffffffffffffffffffffffffffffffffff9182165f90815260056020908152604080832093909416825291909152205460ff1690565b6101d561037536600461191a565b610a46565b5f7fffffffff0000000000000000000000000000000000000000000000000000000082167f490649060000000000000000000000000000000000000000000000000000000014806103cf57506103cf82610aa9565b92915050565b60605f80546103e390611b1a565b80601f016020809104026020016040519081016040528092919081815260200182805461040f90611b1a565b801561045a5780601f106104315761010080835404028352916020019161045a565b820191905f5260205f20905b81548152906001019060200180831161043d57829003601f168201915b5050505050905090565b5f61046e82610b8b565b505f8281526004602052604090205473ffffffffffffffffffffffffffffffffffffffff166103cf565b6104a3828233610be9565b5050565b600a6020525f90815260409020805481906104c190611b1a565b80601f01602080910402602001604051908101604052809291908181526020018280546104ed90611b1a565b80156105385780601f1061050f57610100808354040283529160200191610538565b820191905f5260205f20905b81548152906001019060200180831161051b57829003601f168201915b5050506001840154600285015460038601546004909601549495919473ffffffffffffffffffffffffffffffffffffffff91821694509116915085565b73ffffffffffffffffffffffffffffffffffffffff82166105c9576040517f64a0ae920000000000000000000000000000000000000000000000000000000081525f60048201526024015b60405180910390fd5b5f6105d5838333610bf6565b90508373ffffffffffffffffffffffffffffffffffffffff168173ffffffffffffffffffffffffffffffffffffffff1614610663576040517f64283d7b00000000000000000000000000000000000000000000000000000000815273ffffffffffffffffffffffffffffffffffffffff808616600483015260248201849052821660448201526064016105c0565b50505050565b61068383838360405180602001604052805f815250610923565b505050565b5f6103cf82610b8b565b5f73ffffffffffffffffffffffffffffffffffffffff82166106e2576040517f89c62b640000000000000000000000000000000000000000000000000000000081525f60048201526024016105c0565b5073ffffffffffffffffffffffffffffffffffffffff165f9081526003602052604090205490565b610712610d6d565b61071b5f610dc0565b565b600880545f9182918291600190836107358385611b6b565b9091555061074590503382610e36565b61074f8186610ee3565b6009546040517f260e7948000000000000000000000000000000000000000000000000000000008152306004820152602481018390525f91829173ffffffffffffffffffffffffffffffffffffffff9091169063260e79489060440160408051808303815f875af11580156107c6573d5f803e3d5ffd5b505050506040513d601f19601f820116820180604052508101906107ea9190611ba3565b6040805160a0810182528a81526020808201889052338284015273ffffffffffffffffffffffffffffffffffffffff85166060830152608082018490525f888152600a9091529190912081519395509193509181906108499082611c14565b506020820151600182015560408083015160028301805473ffffffffffffffffffffffffffffffffffffffff9283167fffffffffffffffffffffffff000000000000000000000000000000000000000091821617909155606085015160038501805491909316911617905560809092015160049091015551339084907f6088dcb45b62163dc087d158a0be2ff52ff4e6eb30591feefc85ae789003956c906108f4908b908790611d2c565b60405180910390a39196909550909350915050565b6060600180546103e390611b1a565b6104a3338383610f32565b61092e848484610575565b610663338585858561102e565b606061094682610b8b565b505f828152600660205260408120805461095f90611b1a565b80601f016020809104026020016040519081016040528092919081815260200182805461098b90611b1a565b80156109d65780601f106109ad576101008083540402835291602001916109d6565b820191905f5260205f20905b8154815290600101906020018083116109b957829003601f168201915b505050505090505f6109f260408051602081019091525f815290565b905080515f03610a03575092915050565b815115610a35578082604051602001610a1d929190611d63565b60405160208183030381529060405292505050919050565b610a3e84611224565b949350505050565b610a4e610d6d565b73ffffffffffffffffffffffffffffffffffffffff8116610a9d576040517f1e4fbdf70000000000000000000000000000000000000000000000000000000081525f60048201526024016105c0565b610aa681610dc0565b50565b5f7fffffffff0000000000000000000000000000000000000000000000000000000082167f80ac58cd000000000000000000000000000000000000000000000000000000001480610b3b57507fffffffff0000000000000000000000000000000000000000000000000000000082167f5b5e139f00000000000000000000000000000000000000000000000000000000145b806103cf57507f01ffc9a7000000000000000000000000000000000000000000000000000000007fffffffff000000000000000000000000000000000000000000000000000000008316146103cf565b5f8181526002602052604081205473ffffffffffffffffffffffffffffffffffffffff16806103cf576040517f7e273289000000000000000000000000000000000000000000000000000000008152600481018490526024016105c0565b6106838383836001611295565b5f8281526002602052604081205473ffffffffffffffffffffffffffffffffffffffff90811690831615610c2f57610c2f81848661145d565b73ffffffffffffffffffffffffffffffffffffffff811615610ca257610c575f855f80611295565b73ffffffffffffffffffffffffffffffffffffffff81165f90815260036020526040902080547fffffffffffffffffffffffffffffffffffffffffffffffffffffffffffffffff0190555b73ffffffffffffffffffffffffffffffffffffffff851615610cea5773ffffffffffffffffffffffffffffffffffffffff85165f908152600360205260409020805460010190555b5f8481526002602052604080822080547fffffffffffffffffffffffff00000000000000000000000000000000000000001673ffffffffffffffffffffffffffffffffffffffff89811691821790925591518793918516917fddf252ad1be2c89b69c2b068fc378daa952ba7f163c4a11628f55a4df523b3ef91a4949350505050565b60075473ffffffffffffffffffffffffffffffffffffffff16331461071b576040517f118cdaa70000000000000000000000000000000000000000000000000000000081523360048201526024016105c0565b6007805473ffffffffffffffffffffffffffffffffffffffff8381167fffffffffffffffffffffffff0000000000000000000000000000000000000000831681179093556040519116919082907f8be0079c531659141344cd1fd0a4f28419497f9722a3daafe3b4186f6b6457e0905f90a35050565b73ffffffffffffffffffffffffffffffffffffffff8216610e85576040517f64a0ae920000000000000000000000000000000000000000000000000000000081525f60048201526024016105c0565b5f610e9183835f610bf6565b905073ffffffffffffffffffffffffffffffffffffffff811615610683576040517f73c6ac6e0000000000000000000000000000000000000000000000000000000081525f60048201526024016105c0565b5f828152600660205260409020610efa8282611c14565b506040518281527ff8e1a15aba9398e019f0b49df1a4fde98ee17ae345cb5f6b5e2c27f5033e8ce79060200160405180910390a15050565b73ffffffffffffffffffffffffffffffffffffffff8216610f97576040517f5b08ba1800000000000000000000000000000000000000000000000000000000815273ffffffffffffffffffffffffffffffffffffffff831660048201526024016105c0565b73ffffffffffffffffffffffffffffffffffffffff8381165f8181526005602090815260408083209487168084529482529182902080547fffffffffffffffffffffffffffffffffffffffffffffffffffffffffffffff001686151590811790915591519182527f17307eab39ab6107e8899845ad3d59bd9653f200f220920489ca2b5937696c31910160405180910390a3505050565b73ffffffffffffffffffffffffffffffffffffffff83163b1561121d576040517f150b7a0200000000000000000000000000000000000000000000000000000000815273ffffffffffffffffffffffffffffffffffffffff84169063150b7a02906110a3908890889087908790600401611d91565b6020604051808303815f875af19250505080156110fb575060408051601f3d9081017fffffffffffffffffffffffffffffffffffffffffffffffffffffffffffffffe01682019092526110f891810190611dd9565b60015b611188573d808015611128576040519150601f19603f3d011682016040523d82523d5f602084013e61112d565b606091505b5080515f03611180576040517f64a0ae9200000000000000000000000000000000000000000000000000000000815273ffffffffffffffffffffffffffffffffffffffff851660048201526024016105c0565b805181602001fd5b7fffffffff0000000000000000000000000000000000000000000000000000000081167f150b7a02000000000000000000000000000000000000000000000000000000001461121b576040517f64a0ae9200000000000000000000000000000000000000000000000000000000815273ffffffffffffffffffffffffffffffffffffffff851660048201526024016105c0565b505b5050505050565b606061122f82610b8b565b505f61124560408051602081019091525f815290565b90505f8151116112635760405180602001604052805f81525061128e565b8061126d8461150d565b60405160200161127e929190611d63565b6040516020818303038152906040525b9392505050565b80806112b6575073ffffffffffffffffffffffffffffffffffffffff821615155b15611409575f6112c584610b8b565b905073ffffffffffffffffffffffffffffffffffffffff83161580159061131857508273ffffffffffffffffffffffffffffffffffffffff168173ffffffffffffffffffffffffffffffffffffffff1614155b8015611356575073ffffffffffffffffffffffffffffffffffffffff8082165f9081526005602090815260408083209387168352929052205460ff16155b156113a5576040517fa9fbf51f00000000000000000000000000000000000000000000000000000000815273ffffffffffffffffffffffffffffffffffffffff841660048201526024016105c0565b811561140757838573ffffffffffffffffffffffffffffffffffffffff168273ffffffffffffffffffffffffffffffffffffffff167f8c5be1e5ebec7d5bd14f71427d1e84f3dd0314c0f7b2291e5b200ac8c7c3b92560405160405180910390a45b505b50505f90815260046020526040902080547fffffffffffffffffffffffff00000000000000000000000000000000000000001673ffffffffffffffffffffffffffffffffffffffff92909216919091179055565b6114688383836115c9565b6106835773ffffffffffffffffffffffffffffffffffffffff83166114bc576040517f7e273289000000000000000000000000000000000000000000000000000000008152600481018290526024016105c0565b6040517f177e802f00000000000000000000000000000000000000000000000000000000815273ffffffffffffffffffffffffffffffffffffffff83166004820152602481018290526044016105c0565b60605f6115198361168a565b60010190505f8167ffffffffffffffff81111561153857611538611935565b6040519080825280601f01601f191660200182016040528015611562576020820181803683370190505b5090508181016020015b7fffffffffffffffffffffffffffffffffffffffffffffffffffffffffffffffff017f3031323334353637383961626364656600000000000000000000000000000000600a86061a8153600a850494508461156c57509392505050565b5f73ffffffffffffffffffffffffffffffffffffffff831615801590610a3e57508273ffffffffffffffffffffffffffffffffffffffff168473ffffffffffffffffffffffffffffffffffffffff161480611655575073ffffffffffffffffffffffffffffffffffffffff8085165f9081526005602090815260408083209387168352929052205460ff165b80610a3e5750505f9081526004602052604090205473ffffffffffffffffffffffffffffffffffffffff908116911614919050565b5f807a184f03e93ff9f4daa797ed6e38ed64bf6a1f01000000000000000083106116d2577a184f03e93ff9f4daa797ed6e38ed64bf6a1f010000000000000000830492506040015b6d04ee2d6d415b85acef810000000083106116fe576d04ee2d6d415b85acef8100000000830492506020015b662386f26fc10000831061171c57662386f26fc10000830492506010015b6305f5e1008310611734576305f5e100830492506008015b612710831061174857612710830492506004015b6064831061175a576064830492506002015b600a83106103cf5760010192915050565b7fffffffff0000000000000000000000000000000000000000000000000000000081168114610aa6575f80fd5b5f602082840312156117a8575f80fd5b813561128e8161176b565b5f5b838110156117cd5781810151838201526020016117b5565b50505f910152565b5f81518084526117ec8160208601602086016117b3565b601f017fffffffffffffffffffffffffffffffffffffffffffffffffffffffffffffffe0169290920160200192915050565b602081525f61128e60208301846117d5565b5f60208284031215611840575f80fd5b5035919050565b73ffffffffffffffffffffffffffffffffffffffff81168114610aa6575f80fd5b5f8060408385031215611879575f80fd5b823561188481611847565b946020939093013593505050565b60a081525f6118a460a08301886117d5565b60208301969096525073ffffffffffffffffffffffffffffffffffffffff938416604082015291909216606082015260800152919050565b5f805f606084860312156118ee575f80fd5b83356118f981611847565b9250602084013561190981611847565b929592945050506040919091013590565b5f6020828403121561192a575f80fd5b813561128e81611847565b7f4e487b71000000000000000000000000000000000000000000000000000000005f52604160045260245ffd5b5f67ffffffffffffffff8084111561197c5761197c611935565b604051601f85017fffffffffffffffffffffffffffffffffffffffffffffffffffffffffffffffe0908116603f011681019082821181831017156119c2576119c2611935565b816040528093508581528686860111156119da575f80fd5b858560208301375f602087830101525050509392505050565b5f60208284031215611a03575f80fd5b813567ffffffffffffffff811115611a19575f80fd5b8201601f81018413611a29575f80fd5b610a3e84823560208401611962565b5f8060408385031215611a49575f80fd5b8235611a5481611847565b915060208301358015158114611a68575f80fd5b809150509250929050565b5f805f8060808587031215611a86575f80fd5b8435611a9181611847565b93506020850135611aa181611847565b925060408501359150606085013567ffffffffffffffff811115611ac3575f80fd5b8501601f81018713611ad3575f80fd5b611ae287823560208401611962565b91505092959194509250565b5f8060408385031215611aff575f80fd5b8235611b0a81611847565b91506020830135611a6881611847565b600181811c90821680611b2e57607f821691505b602082108103611b65577f4e487b71000000000000000000000000000000000000000000000000000000005f52602260045260245ffd5b50919050565b808201808211156103cf577f4e487b71000000000000000000000000000000000000000000000000000000005f52601160045260245ffd5b5f8060408385031215611bb4575f80fd5b8251611bbf81611847565b6020939093015192949293505050565b601f821115610683575f81815260208120601f850160051c81016020861015611bf55750805b601f850160051c820191505b8181101561121b57828155600101611c01565b815167ffffffffffffffff811115611c2e57611c2e611935565b611c4281611c3c8454611b1a565b84611bcf565b602080601f831160018114611c94575f8415611c5e5750858301515b7fffffffffffffffffffffffffffffffffffffffffffffffffffffffffffffffff600386901b1c1916600185901b17855561121b565b5f858152602081207fffffffffffffffffffffffffffffffffffffffffffffffffffffffffffffffe08616915b82811015611ce057888601518255948401946001909101908401611cc1565b5085821015611d1c57878501517fffffffffffffffffffffffffffffffffffffffffffffffffffffffffffffffff600388901b60f8161c191681555b5050505050600190811b01905550565b604081525f611d3e60408301856117d5565b905073ffffffffffffffffffffffffffffffffffffffff831660208301529392505050565b5f8351611d748184602088016117b3565b835190830190611d888183602088016117b3565b01949350505050565b5f73ffffffffffffffffffffffffffffffffffffffff808716835280861660208401525083604083015260806060830152611dcf60808301846117d5565b9695505050505050565b5f60208284031215611de9575f80fd5b815161128e8161176b56fea26469706673582212203452528abd0abcc0a4ab91345de110ea812bc286b9679e06544e6591e101228964736f6c63430008140033","linkReferences":{}},"methodIdentifiers":{"approve(address,uint256)":"095ea7b3","balanceOf(address)":"70a08231","datasets(uint256)":"1cff85e1","getApproved(uint256)":"081812fc","isApprovedForAll(address,address)":"e985e9c5","name()":"06fdde03","owner()":"8da5cb5b","ownerOf(uint256)":"6352211e","renounceOwnership()":"715018a6","safeTransferFrom(address,address,uint256)":"42842e0e","safeTransferFrom(address,address,uint256,bytes)":"b88d4fde","setApprovalForAll(address,bool)":"a22cb465","storyIntegration()":"676c702a","supportsInterface(bytes4)":"01ffc9a7","symbol()":"95d89b41","tokenURI(uint256)":"c87b56dd","transferFrom(address,address,uint256)":"23b872dd","transferOwnership(address)":"f2fde38b","uploadDataset(string)":"7499d6f6"},"id":3}