{"abi":[{"type":"constructor","inputs":[],"stateMutability":"nonpayable"},{"type":"function","name":"approve","inputs":[{"name":"to","type":"address","internalType":"address"},{"name":"tokenId","type":"uint256","internalType":"uint256"}],"outputs":[],"stateMutability":"nonpayable"},{"type":"function","name":"balanceOf","inputs":[{"name":"owner","type":"address","internalType":"address"}],"outputs":[{"name":"","type":"uint256","internalType":"uint256"}],"stateMutability":"view"},{"type":"function","name":"getApproved","inputs":[{"name":"tokenId","type":"uint256","internalType":"uint256"}],"outputs":[{"name":"","type":"address","internalType":"address"}],"stateMutability":"view"},{"type":"function","name":"isApprovedForAll","inputs":[{"name":"owner","type":"address","internalType":"address"},{"name":"operator","type":"address","internalType":"address"}],"outputs":[{"name":"","type":"bool","internalType":"bool"}],"stateMutability":"view"},{"type":"function","name":"issueCredential","inputs":[{"name":"provider","type":"address","internalType":"address"},{"name":"dataHash","type":"string","internalType":"string"}],"outputs":[],"stateMutability":"nonpayable"},{"type":"function","name":"name","inputs":[],"outputs":[{"name":"","type":"string","internalType":"string"}],"stateMutability":"view"},{"type":"function","name":"owner","inputs":[],"outputs":[{"name":"","type":"address","internalType":"address"}],"stateMutability":"view"},{"type":"function","name":"ownerOf","inputs":[{"name":"tokenId","type":"uint256","internalType":"uint256"}],"outputs":[{"name":"","type":"address","internalType":"address"}],"stateMutability":"view"},{"type":"function","name":"renounceOwnership","inputs":[],"outputs":[],"stateMutability":"nonpayable"},{"type":"function","name":"safeTransferFrom","inputs":[{"name":"from","type":"address","internalType":"address"},{"name":"to","type":"address","internalType":"address"},{"name":"tokenId","type":"uint256","internalType":"uint256"}],"outputs":[],"stateMutability":"nonpayable"},{"type":"function","name":"safeTransferFrom","inputs":[{"name":"from","type":"address","internalType":"address"},{"name":"to","type":"address","internalType":"address"},{"name":"tokenId","type":"uint256","internalType":"uint256"},{"name":"data","type":"bytes","internalType":"bytes"}],"outputs":[],"stateMutability":"nonpayable"},{"type":"function","name":"setApprovalForAll","inputs":[{"name":"operator","type":"address","internalType":"address"},{"name":"approved","type":"bool","internalType":"bool"}],"outputs":[],"stateMutability":"nonpayable"},{"type":"function","name":"supportsInterface","inputs":[{"name":"interfaceId","type":"bytes4","internalType":"bytes4"}],"outputs":[{"name":"","type":"bool","internalType":"bool"}],"stateMutability":"view"},{"type":"function","name":"symbol","inputs":[],"outputs":[{"name":"","type":"string","internalType":"string"}],"stateMutability":"view"},{"type":"function","name":"tokenURI","inputs":[{"name":"tokenId","type":"uint256","internalType":"uint256"}],"outputs":[{"name":"","type":"string","internalType":"string"}],"stateMutability":"view"},{"type":"function","name":"transferFrom","inputs":[{"name":"from","type":"address","internalType":"address"},{"name":"to","type":"address","internalType":"address"},{"name":"tokenId","type":"uint256","internalType":"uint256"}],"outputs":[],"stateMutability":"nonpayable"},{"type":"function","name":"transferOwnership","inputs":[{"name":"newOwner","type":"address","internalType":"address"}],"outputs":[],"stateMutability":"nonpayable"},{"type":"event","name":"Approval","inputs":[{"name":"owner","type":"address","indexed":true,"internalType":"address"},{"name":"approved","type":"address","indexed":true,"internalType":"address"},{"name":"tokenId","type":"uint256","indexed":true,"internalType":"uint256"}],"anonymous":false},{"type":"event","name":"ApprovalForAll","inputs":[{"name":"owner","type":"address","indexed":true,"internalType":"address"},{"name":"operator","type":"address","indexed":true,"internalType":"address"},{"name":"approved","type":"bool","indexed":false,"internalType":"bool"}],"anonymous":false},{"type":"event","name":"BatchMetadataUpdate","inputs":[{"name":"_fromTokenId","type":"uint256","indexed":false,"internalType":"uint256"},{"name":"_toTokenId","type":"uint256","indexed":false,"internalType":"uint256"}],"anonymous":false},{"type":"event","name":"CredentialIssued","inputs":[{"name":"provider","type":"address","indexed":true,"internalType":"address"},{"name":"tokenId","type":"uint256","indexed":true,"internalType":"uint256"}],"anonymous":false},{"type":"event","name":"MetadataUpdate","inputs":[{"name":"_tokenId","type":"uint256","indexed":false,"internalType":"uint256"}],"anonymous":false},{"type":"event","name":"OwnershipTransferred","inputs":[{"name":"previousOwner","type":"address","indexed":true,"internalType":"address"},{"name":"newOwner","type":"address","indexed":true,"internalType":"address"}],"anonymous":false},{"type":"event","name":"Transfer","inputs":[{"name":"from","type":"address","indexed":true,"internalType":"address"},{"name":"to","type":"address","indexed":true,"internalType":"address"},{"name":"tokenId","type":"uint256","indexed":true,"internalType":"uint256"}],"anonymous":false},{"type":"error","name":"ERC721IncorrectOwner","inputs":[{"name":"sender","type":"address","internalType":"address"},{"name":"tokenId","type":"uint256","internalType":"uint256"},{"name":"owner","type":"address","internalType":"address"}]},{"type":"error","name":"ERC721InsufficientApproval","inputs":[{"name":"operator","type":"address","internalType":"address"},{"name":"tokenId","type":"uint256","internalType":"uint256"}]},{"type":"error","name":"ERC721InvalidApprover","inputs":[{"name":"approver","type":"address","internalType":"address"}]},{"type":"error","name":"ERC721InvalidOperator","inputs":[{"name":"operator","type":"address","internalType":"address"}]},{"type":"error","name":"ERC721InvalidOwner","inputs":[{"name":"owner","type":"address","internalType":"address"}]},{"type":"error","name":"ERC721InvalidReceiver","inputs":[{"name":"receiver","type":"address","internalType":"address"}]},{"type":"error","name":"ERC721InvalidSender","inputs":[{"name":"sender","type":"address","internalType":"address"}]},{"type":"error","name":"ERC721NonexistentToken","inputs":[{"name":"tokenId","type":"uint256","internalType":"uint256"}]},{"type":"error","name":"OwnableInvalidOwner","inputs":[{"name":"owner","type":"address","internalType":"address"}]},{"type":"error","name":"OwnableUnauthorizedAccount","inputs":[{"name":"account","type":"address","internalType":"address"}]}],"bytecode":{"object":"0x608060405234801562000010575f80fd5b50336040518060400160405280601581526020017f44617461537761726d2043726564656e7469616c730000000000000000000000815250604051806040016040528060068152602001651114d0d4915160d21b815250815f9081620000779190620001bf565b506001620000868282620001bf565b5050506001600160a01b038116620000b757604051631e4fbdf760e01b81525f600482015260240160405180910390fd5b620000c281620000ce565b50600160085562000287565b600780546001600160a01b038381166001600160a01b0319831681179093556040519116919082907f8be0079c531659141344cd1fd0a4f28419497f9722a3daafe3b4186f6b6457e0905f90a35050565b634e487b7160e01b5f52604160045260245ffd5b600181811c908216806200014857607f821691505b6020821081036200016757634e487b7160e01b5f52602260045260245ffd5b50919050565b601f821115620001ba575f81815260208120601f850160051c81016020861015620001955750805b601f850160051c820191505b81811015620001b657828155600101620001a1565b5050505b505050565b81516001600160401b03811115620001db57620001db6200011f565b620001f381620001ec845462000133565b846200016d565b602080601f83116001811462000229575f8415620002115750858301515b5f19600386901b1c1916600185901b178555620001b6565b5f85815260208120601f198616915b82811015620002595788860151825594840194600190910190840162000238565b50858210156200027757878501515f19600388901b60f8161c191681555b5050505050600190811b01905550565b611ace80620002955f395ff3fe608060405234801561000f575f80fd5b5060043610610115575f3560e01c8063715018a6116100ad578063a22cb4651161007d578063c87b56dd11610063578063c87b56dd14610264578063e985e9c514610277578063f2fde38b146102bf575f80fd5b8063a22cb4651461023e578063b88d4fde14610251575f80fd5b8063715018a6146101fd5780638da5cb5b1461020557806390c7c49c1461022357806395d89b4114610236575f80fd5b806323b872dd116100e857806323b872dd146101a357806342842e0e146101b65780636352211e146101c957806370a08231146101dc575f80fd5b806301ffc9a71461011957806306fdde0314610141578063081812fc14610156578063095ea7b31461018e575b5f80fd5b61012c6101273660046114af565b6102d2565b60405190151581526020015b60405180910390f35b61014961032d565b6040516101389190611535565b610169610164366004611547565b6103bc565b60405173ffffffffffffffffffffffffffffffffffffffff9091168152602001610138565b6101a161019c366004611586565b6103f0565b005b6101a16101b13660046115ae565b6103ff565b6101a16101c43660046115ae565b6104f3565b6101696101d7366004611547565b610512565b6101ef6101ea3660046115e7565b61051c565b604051908152602001610138565b6101a1610594565b60075473ffffffffffffffffffffffffffffffffffffffff16610169565b6101a16102313660046116be565b6105a7565b610149610620565b6101a161024c36600461171c565b61062f565b6101a161025f366004611755565b61063a565b610149610272366004611547565b610652565b61012c6102853660046117cc565b73ffffffffffffffffffffffffffffffffffffffff9182165f90815260056020908152604080832093909416825291909152205460ff1690565b6101a16102cd3660046115e7565b61075d565b5f7fffffffff0000000000000000000000000000000000000000000000000000000082167f490649060000000000000000000000000000000000000000000000000000000014806103275750610327826107c0565b92915050565b60605f805461033b906117fd565b80601f0160208091040260200160405190810160405280929190818152602001828054610367906117fd565b80156103b25780601f10610389576101008083540402835291602001916103b2565b820191905f5260205f20905b81548152906001019060200180831161039557829003601f168201915b5050505050905090565b5f6103c6826108a2565b505f8281526004602052604090205473ffffffffffffffffffffffffffffffffffffffff16610327565b6103fb828233610900565b5050565b73ffffffffffffffffffffffffffffffffffffffff8216610453576040517f64a0ae920000000000000000000000000000000000000000000000000000000081525f60048201526024015b60405180910390fd5b5f61045f83833361090d565b90508373ffffffffffffffffffffffffffffffffffffffff168173ffffffffffffffffffffffffffffffffffffffff16146104ed576040517f64283d7b00000000000000000000000000000000000000000000000000000000815273ffffffffffffffffffffffffffffffffffffffff8086166004830152602482018490528216604482015260640161044a565b50505050565b61050d83838360405180602001604052805f81525061063a565b505050565b5f610327826108a2565b5f73ffffffffffffffffffffffffffffffffffffffff821661056c576040517f89c62b640000000000000000000000000000000000000000000000000000000081525f600482015260240161044a565b5073ffffffffffffffffffffffffffffffffffffffff165f9081526003602052604090205490565b61059c610a84565b6105a55f610ad7565b565b6105af610a84565b600880549081905f6105c08361184e565b91905055506105cf8382610b4d565b6105d98183610bfa565b604051819073ffffffffffffffffffffffffffffffffffffffff8516907f8a327f325a39d61d07dfd7326f422a96771beb439f36a3d8a3cd3adea50476db905f90a3505050565b60606001805461033b906117fd565b6103fb338383610c49565b6106458484846103ff565b6104ed3385858585610d45565b606061065d826108a2565b505f8281526006602052604081208054610676906117fd565b80601f01602080910402602001604051908101604052809291908181526020018280546106a2906117fd565b80156106ed5780601f106106c4576101008083540402835291602001916106ed565b820191905f5260205f20905b8154815290600101906020018083116106d057829003601f168201915b505050505090505f61070960408051602081019091525f815290565b905080515f0361071a575092915050565b81511561074c5780826040516020016107349291906118aa565b60405160208183030381529060405292505050919050565b61075584610f3b565b949350505050565b610765610a84565b73ffffffffffffffffffffffffffffffffffffffff81166107b4576040517f1e4fbdf70000000000000000000000000000000000000000000000000000000081525f600482015260240161044a565b6107bd81610ad7565b50565b5f7fffffffff0000000000000000000000000000000000000000000000000000000082167f80ac58cd00000000000000000000000000000000000000000000000000000000148061085257507fffffffff0000000000000000000000000000000000000000000000000000000082167f5b5e139f00000000000000000000000000000000000000000000000000000000145b8061032757507f01ffc9a7000000000000000000000000000000000000000000000000000000007fffffffff00000000000000000000000000000000000000000000000000000000831614610327565b5f8181526002602052604081205473ffffffffffffffffffffffffffffffffffffffff1680610327576040517f7e2732890000000000000000000000000000000000000000000000000000000081526004810184905260240161044a565b61050d8383836001610fac565b5f8281526002602052604081205473ffffffffffffffffffffffffffffffffffffffff9081169083161561094657610946818486611174565b73ffffffffffffffffffffffffffffffffffffffff8116156109b95761096e5f855f80610fac565b73ffffffffffffffffffffffffffffffffffffffff81165f90815260036020526040902080547fffffffffffffffffffffffffffffffffffffffffffffffffffffffffffffffff0190555b73ffffffffffffffffffffffffffffffffffffffff851615610a015773ffffffffffffffffffffffffffffffffffffffff85165f908152600360205260409020805460010190555b5f8481526002602052604080822080547fffffffffffffffffffffffff00000000000000000000000000000000000000001673ffffffffffffffffffffffffffffffffffffffff89811691821790925591518793918516917fddf252ad1be2c89b69c2b068fc378daa952ba7f163c4a11628f55a4df523b3ef91a4949350505050565b60075473ffffffffffffffffffffffffffffffffffffffff1633146105a5576040517f118cdaa700000000000000000000000000000000000000000000000000000000815233600482015260240161044a565b6007805473ffffffffffffffffffffffffffffffffffffffff8381167fffffffffffffffffffffffff0000000000000000000000000000000000000000831681179093556040519116919082907f8be0079c531659141344cd1fd0a4f28419497f9722a3daafe3b4186f6b6457e0905f90a35050565b73ffffffffffffffffffffffffffffffffffffffff8216610b9c576040517f64a0ae920000000000000000000000000000000000000000000000000000000081525f600482015260240161044a565b5f610ba883835f61090d565b905073ffffffffffffffffffffffffffffffffffffffff81161561050d576040517f73c6ac6e0000000000000000000000000000000000000000000000000000000081525f600482015260240161044a565b5f828152600660205260409020610c11828261191d565b506040518281527ff8e1a15aba9398e019f0b49df1a4fde98ee17ae345cb5f6b5e2c27f5033e8ce79060200160405180910390a15050565b73ffffffffffffffffffffffffffffffffffffffff8216610cae576040517f5b08ba1800000000000000000000000000000000000000000000000000000000815273ffffffffffffffffffffffffffffffffffffffff8316600482015260240161044a565b73ffffffffffffffffffffffffffffffffffffffff8381165f8181526005602090815260408083209487168084529482529182902080547fffffffffffffffffffffffffffffffffffffffffffffffffffffffffffffff001686151590811790915591519182527f17307eab39ab6107e8899845ad3d59bd9653f200f220920489ca2b5937696c31910160405180910390a3505050565b73ffffffffffffffffffffffffffffffffffffffff83163b15610f34576040517f150b7a0200000000000000000000000000000000000000000000000000000000815273ffffffffffffffffffffffffffffffffffffffff84169063150b7a0290610dba908890889087908790600401611a35565b6020604051808303815f875af1925050508015610e12575060408051601f3d9081017fffffffffffffffffffffffffffffffffffffffffffffffffffffffffffffffe0168201909252610e0f91810190611a7d565b60015b610e9f573d808015610e3f576040519150601f19603f3d011682016040523d82523d5f602084013e610e44565b606091505b5080515f03610e97576040517f64a0ae9200000000000000000000000000000000000000000000000000000000815273ffffffffffffffffffffffffffffffffffffffff8516600482015260240161044a565b805181602001fd5b7fffffffff0000000000000000000000000000000000000000000000000000000081167f150b7a020000000000000000000000000000000000000000000000000000000014610f32576040517f64a0ae9200000000000000000000000000000000000000000000000000000000815273ffffffffffffffffffffffffffffffffffffffff8516600482015260240161044a565b505b5050505050565b6060610f46826108a2565b505f610f5c60408051602081019091525f815290565b90505f815111610f7a5760405180602001604052805f815250610fa5565b80610f8484611224565b604051602001610f959291906118aa565b6040516020818303038152906040525b9392505050565b8080610fcd575073ffffffffffffffffffffffffffffffffffffffff821615155b15611120575f610fdc846108a2565b905073ffffffffffffffffffffffffffffffffffffffff83161580159061102f57508273ffffffffffffffffffffffffffffffffffffffff168173ffffffffffffffffffffffffffffffffffffffff1614155b801561106d575073ffffffffffffffffffffffffffffffffffffffff8082165f9081526005602090815260408083209387168352929052205460ff16155b156110bc576040517fa9fbf51f00000000000000000000000000000000000000000000000000000000815273ffffffffffffffffffffffffffffffffffffffff8416600482015260240161044a565b811561111e57838573ffffffffffffffffffffffffffffffffffffffff168273ffffffffffffffffffffffffffffffffffffffff167f8c5be1e5ebec7d5bd14f71427d1e84f3dd0314c0f7b2291e5b200ac8c7c3b92560405160405180910390a45b505b50505f90815260046020526040902080547fffffffffffffffffffffffff00000000000000000000000000000000000000001673ffffffffffffffffffffffffffffffffffffffff92909216919091179055565b61117f8383836112e0565b61050d5773ffffffffffffffffffffffffffffffffffffffff83166111d3576040517f7e2732890000000000000000000000000000000000000000000000000000000081526004810182905260240161044a565b6040517f177e802f00000000000000000000000000000000000000000000000000000000815273ffffffffffffffffffffffffffffffffffffffff831660048201526024810182905260440161044a565b60605f611230836113a1565b60010190505f8167ffffffffffffffff81111561124f5761124f611600565b6040519080825280601f01601f191660200182016040528015611279576020820181803683370190505b5090508181016020015b7fffffffffffffffffffffffffffffffffffffffffffffffffffffffffffffffff017f3031323334353637383961626364656600000000000000000000000000000000600a86061a8153600a850494508461128357509392505050565b5f73ffffffffffffffffffffffffffffffffffffffff83161580159061075557508273ffffffffffffffffffffffffffffffffffffffff168473ffffffffffffffffffffffffffffffffffffffff16148061136c575073ffffffffffffffffffffffffffffffffffffffff8085165f9081526005602090815260408083209387168352929052205460ff165b806107555750505f9081526004602052604090205473ffffffffffffffffffffffffffffffffffffffff908116911614919050565b5f807a184f03e93ff9f4daa797ed6e38ed64bf6a1f01000000000000000083106113e9577a184f03e93ff9f4daa797ed6e38ed64bf6a1f010000000000000000830492506040015b6d04ee2d6d415b85acef81000000008310611415576d04ee2d6d415b85acef8100000000830492506020015b662386f26fc10000831061143357662386f26fc10000830492506010015b6305f5e100831061144b576305f5e100830492506008015b612710831061145f57612710830492506004015b60648310611471576064830492506002015b600a83106103275760010192915050565b7fffffffff00000000000000000000000000000000000000000000000000000000811681146107bd575f80fd5b5f602082840312156114bf575f80fd5b8135610fa581611482565b5f5b838110156114e45781810151838201526020016114cc565b50505f910152565b5f81518084526115038160208601602086016114ca565b601f017fffffffffffffffffffffffffffffffffffffffffffffffffffffffffffffffe0169290920160200192915050565b602081525f610fa560208301846114ec565b5f60208284031215611557575f80fd5b5035919050565b803573ffffffffffffffffffffffffffffffffffffffff81168114611581575f80fd5b919050565b5f8060408385031215611597575f80fd5b6115a08361155e565b946020939093013593505050565b5f805f606084860312156115c0575f80fd5b6115c98461155e565b92506115d76020850161155e565b9150604084013590509250925092565b5f602082840312156115f7575f80fd5b610fa58261155e565b7f4e487b71000000000000000000000000000000000000000000000000000000005f52604160045260245ffd5b5f67ffffffffffffffff8084111561164757611647611600565b604051601f85017fffffffffffffffffffffffffffffffffffffffffffffffffffffffffffffffe0908116603f0116810190828211818310171561168d5761168d611600565b816040528093508581528686860111156116a5575f80fd5b858560208301375f602087830101525050509392505050565b5f80604083850312156116cf575f80fd5b6116d88361155e565b9150602083013567ffffffffffffffff8111156116f3575f80fd5b8301601f81018513611703575f80fd5b6117128582356020840161162d565b9150509250929050565b5f806040838503121561172d575f80fd5b6117368361155e565b91506020830135801515811461174a575f80fd5b809150509250929050565b5f805f8060808587031215611768575f80fd5b6117718561155e565b935061177f6020860161155e565b925060408501359150606085013567ffffffffffffffff8111156117a1575f80fd5b8501601f810187136117b1575f80fd5b6117c08782356020840161162d565b91505092959194509250565b5f80604083850312156117dd575f80fd5b6117e68361155e565b91506117f46020840161155e565b90509250929050565b600181811c9082168061181157607f821691505b602082108103611848577f4e487b71000000000000000000000000000000000000000000000000000000005f52602260045260245ffd5b50919050565b5f7fffffffffffffffffffffffffffffffffffffffffffffffffffffffffffffffff82036118a3577f4e487b71000000000000000000000000000000000000000000000000000000005f52601160045260245ffd5b5060010190565b5f83516118bb8184602088016114ca565b8351908301906118cf8183602088016114ca565b01949350505050565b601f82111561050d575f81815260208120601f850160051c810160208610156118fe5750805b601f850160051c820191505b81811015610f325782815560010161190a565b815167ffffffffffffffff81111561193757611937611600565b61194b8161194584546117fd565b846118d8565b602080601f83116001811461199d575f84156119675750858301515b7fffffffffffffffffffffffffffffffffffffffffffffffffffffffffffffffff600386901b1c1916600185901b178555610f32565b5f858152602081207fffffffffffffffffffffffffffffffffffffffffffffffffffffffffffffffe08616915b828110156119e9578886015182559484019460019091019084016119ca565b5085821015611a2557878501517fffffffffffffffffffffffffffffffffffffffffffffffffffffffffffffffff600388901b60f8161c191681555b5050505050600190811b01905550565b5f73ffffffffffffffffffffffffffffffffffffffff808716835280861660208401525083604083015260806060830152611a7360808301846114ec565b9695505050505050565b5f60208284031215611a8d575f80fd5b8151610fa58161148256fea2646970667358221220b96a8431d42a3bea88751e51cd0fe79fca238baa8dc2d09cf1050ac988bc92cc64736f6c63430008140033","linkReferences":{}},"methodIdentifiers":{"approve(address,uint256)":"095ea7b3","balanceOf(address)":"70a08231","getApproved(uint256)":"081812fc","isApprovedForAll(address,address)":"e985e9c5","issueCredential(address,string)":"90c7c49c","name()":"06fdde03","owner()":"8da5cb5b","ownerOf(uint256)":"6352211e","renounceOwnership()":"715018a6","safeTransferFrom(address,address,uint256)":"42842e0e","safeTransferFrom(address,address,uint256,bytes)":"b88d4fde","setApprovalForAll(address,bool)":"a22cb465","supportsInterface(bytes4)":"01ffc9a7","symbol()":"95d89b41","tokenURI(uint256)":"c87b56dd","transferFrom(address,address,uint256)":"23b872dd","transferOwnership(address)":"f2fde38b"},"id":1}