{"abi":[{"type":"function","name":"getYieldRate","inputs":[{"name":"user","type":"address","internalType":"address"}],"outputs":[{"name":"","type":"uint256","internalType":"uint256"}],"stateMutability":"view"},{"type":"function","name":"updateYieldRate","inputs":[{"name":"user","type":"address","internalType":"address"},{"name":"newYield","type":"uint256","internalType":"uint256"}],"outputs":[],"stateMutability":"nonpayable"}],"bytecode":{"object":"0x608060405234801561000f575f80fd5b5061015d8061001d5f395ff3fe608060405234801561000f575f80fd5b5060043610610034575f3560e01c80633390076614610038578063f37a55e41461007f575b5f80fd5b61006d6100463660046100df565b73ffffffffffffffffffffffffffffffffffffffff165f9081526020819052604090205490565b60405190815260200160405180910390f35b6100b561008d3660046100ff565b73ffffffffffffffffffffffffffffffffffffffff9091165f90815260208190526040902055565b005b803573ffffffffffffffffffffffffffffffffffffffff811681146100da575f80fd5b919050565b5f602082840312156100ef575f80fd5b6100f8826100b7565b9392505050565b5f8060408385031215610110575f80fd5b610119836100b7565b94602093909301359350505056fea2646970667358221220db5b5ea420ce13503954e7fd02193bdea148ebe75b1068df73684537e607b7e264736f6c63430008140033","linkReferences":{}},"methodIdentifiers":{"getYieldRate(address)":"33900766","updateYieldRate(address,uint256)":"f37a55e4"},"id":14}