{"abi":[{"type":"function","name":"getMetric","inputs":[],"outputs":[{"name":"","type":"string","internalType":"string"}],"stateMutability":"view"},{"type":"function","name":"metric","inputs":[],"outputs":[{"name":"","type":"string","internalType":"string"}],"stateMutability":"view"}],"bytecode":{"object":"0x60c06040526008608090815267524f49203e20352560c01b60a0525f9061002690826100d2565b50348015610032575f80fd5b5061018d565b634e487b7160e01b5f52604160045260245ffd5b600181811c9082168061006057607f821691505b60208210810361007e57634e487b7160e01b5f52602260045260245ffd5b50919050565b601f8211156100cd575f81815260208120601f850160051c810160208610156100aa5750805b601f850160051c820191505b818110156100c9578281556001016100b6565b5050505b505050565b81516001600160401b038111156100eb576100eb610038565b6100ff816100f9845461004c565b84610084565b602080601f831160018114610132575f841561011b5750858301515b5f19600386901b1c1916600185901b1785556100c9565b5f85815260208120601f198616915b8281101561016057888601518255948401946001909101908401610141565b508582101561017d57878501515f19600388901b60f8161c191681555b5050505050600190811b01905550565b6102688061019a5f395ff3fe608060405234801561000f575f80fd5b5060043610610034575f3560e01c8063232ed85814610038578063cb55197614610056575b5f80fd5b61004061005e565b60405161004d9190610178565b60405180910390f35b6100406100ed565b60605f805461006c906101e1565b80601f0160208091040260200160405190810160405280929190818152602001828054610098906101e1565b80156100e35780601f106100ba576101008083540402835291602001916100e3565b820191905f5260205f20905b8154815290600101906020018083116100c657829003601f168201915b5050505050905090565b5f80546100f9906101e1565b80601f0160208091040260200160405190810160405280929190818152602001828054610125906101e1565b80156101705780601f1061014757610100808354040283529160200191610170565b820191905f5260205f20905b81548152906001019060200180831161015357829003601f168201915b505050505081565b5f6020808352835180828501525f5b818110156101a357858101830151858201604001528201610187565b505f6040828601015260407fffffffffffffffffffffffffffffffffffffffffffffffffffffffffffffffe0601f8301168501019250505092915050565b600181811c908216806101f557607f821691505b60208210810361022c577f4e487b71000000000000000000000000000000000000000000000000000000005f52602260045260245ffd5b5091905056fea2646970667358221220aabba4e9c4b96a06e7440c808398fbdb69302922b3193ebdce7058cb244f381764736f6c63430008140033","linkReferences":{}},"methodIdentifiers":{"getMetric()":"232ed858","metric()":"cb551976"},"id":5}