{"abi":[{"type":"constructor","inputs":[],"stateMutability":"nonpayable"},{"type":"function","name":"owner","inputs":[],"outputs":[{"name":"","type":"address","internalType":"address"}],"stateMutability":"view"},{"type":"function","name":"registerDataset","inputs":[{"name":"datasetNFT","type":"address","internalType":"address"},{"name":"tokenId","type":"uint256","internalType":"uint256"}],"outputs":[{"name":"ipId","type":"address","internalType":"address"},{"name":"licenseTermsId","type":"uint256","internalType":"uint256"}],"stateMutability":"nonpayable"},{"type":"function","name":"renounceOwnership","inputs":[],"outputs":[],"stateMutability":"nonpayable"},{"type":"function","name":"transferOwnership","inputs":[{"name":"newOwner","type":"address","internalType":"address"}],"outputs":[],"stateMutability":"nonpayable"},{"type":"event","name":"DatasetRegistered","inputs":[{"name":"owner","type":"address","indexed":true,"internalType":"address"},{"name":"tokenId","type":"uint256","indexed":false,"internalType":"uint256"},{"name":"ipId","type":"address","indexed":false,"internalType":"address"},{"name":"licenseTermsId","type":"uint256","indexed":false,"internalType":"uint256"}],"anonymous":false},{"type":"event","name":"OwnershipTransferred","inputs":[{"name":"previousOwner","type":"address","indexed":true,"internalType":"address"},{"name":"newOwner","type":"address","indexed":true,"internalType":"address"}],"anonymous":false},{"type":"error","name":"OwnableInvalidOwner","inputs":[{"name":"owner","type":"address","internalType":"address"}]},{"type":"error","name":"OwnableUnauthorizedAccount","inputs":[{"name":"account","type":"address","internalType":"address"}]}],"bytecode":{"object":"0x608060405234801561000f575f80fd5b50338061003557604051631e4fbdf760e01b81525f600482015260240160405180910390fd5b61003e81610044565b50610093565b5f80546001600160a01b038381166001600160a01b0319831681178455604051919092169283917f8be0079c531659141344cd1fd0a4f28419497f9722a3daafe3b4186f6b6457e09190a35050565b6104e5806100a05f395ff3fe608060405234801561000f575f80fd5b506004361061004a575f3560e01c8063260e79481461004e578063715018a6146100925780638da5cb5b1461009c578063f2fde38b146100c3575b5f80fd5b61006161005c366004610448565b6100d6565b6040805173ffffffffffffffffffffffffffffffffffffffff90931683526020830191909152015b60405180910390f35b61009a6102eb565b005b5f5460405173ffffffffffffffffffffffffffffffffffffffff9091168152602001610089565b61009a6100d1366004610472565b6102fe565b6040517f6352211e000000000000000000000000000000000000000000000000000000008152600481018290525f908190339073ffffffffffffffffffffffffffffffffffffffff861690636352211e90602401602060405180830381865afa158015610145573d5f803e3d5ffd5b505050506040513d601f19601f820116820180604052508101906101699190610494565b73ffffffffffffffffffffffffffffffffffffffff16146101eb576040517f08c379a000000000000000000000000000000000000000000000000000000000815260206004820152601c60248201527f596f75206d757374206f776e207468652064617461736574204e46540000000060448201526064015b60405180910390fd5b505060408051606084901b7fffffffffffffffffffffffffffffffffffffffff0000000000000000000000001660208083018290526034808401869052845180850390910181526054840185528051908201206074840192909252608883018590527f6c6963656e73650000000000000000000000000000000000000000000000000060a88401528351608f81850301815260af8401808652815191909201209085905273ffffffffffffffffffffffffffffffffffffffff821660cf84015260ef8301819052925190929133917fd9bf917be08ce89b1b0d673821a321030412bf6707a2272160f4e9fa46b02c319181900361010f0190a29250929050565b6102f3610361565b6102fc5f6103b3565b565b610306610361565b73ffffffffffffffffffffffffffffffffffffffff8116610355576040517f1e4fbdf70000000000000000000000000000000000000000000000000000000081525f60048201526024016101e2565b61035e816103b3565b50565b5f5473ffffffffffffffffffffffffffffffffffffffff1633146102fc576040517f118cdaa70000000000000000000000000000000000000000000000000000000081523360048201526024016101e2565b5f805473ffffffffffffffffffffffffffffffffffffffff8381167fffffffffffffffffffffffff0000000000000000000000000000000000000000831681178455604051919092169283917f8be0079c531659141344cd1fd0a4f28419497f9722a3daafe3b4186f6b6457e09190a35050565b73ffffffffffffffffffffffffffffffffffffffff8116811461035e575f80fd5b5f8060408385031215610459575f80fd5b823561046481610427565b946020939093013593505050565b5f60208284031215610482575f80fd5b813561048d81610427565b9392505050565b5f602082840312156104a4575f80fd5b815161048d8161042756fea264697066735822122067007d733c6002f70e3845c37484c3fdfaa7ccfd35f907eafe54113b2596721a64736f6c63430008140033","linkReferences":{}},"methodIdentifiers":{"owner()":"8da5cb5b","registerDataset(address,uint256)":"260e7948","renounceOwnership()":"715018a6","transferOwnership(address)":"f2fde38b"},"id":9}